{"abi":[{"type":"constructor","inputs":[],"stateMutability":"nonpayable"},{"type":"function","name":"DEFAULT_ADMIN_ROLE","inputs":[],"outputs":[{"name":"","type":"bytes32","internalType":"bytes32"}],"stateMutability":"view"},{"type":"function","name":"REWARD_MANAGER_ROLE","inputs":[],"outputs":[{"name":"","type":"bytes32","internalType":"bytes32"}],"stateMutability":"view"},{"type":"function","name":"UPGRADE_INTERFACE_VERSION","inputs":[],"outputs":[{"name":"","type":"string","internalType":"string"}],"stateMutability":"view"},{"type":"function","name":"batchClaimReward","inputs":[{"name":"periodNumbers","type":"uint256[]","internalType":"uint256[]"}],"outputs":[],"stateMutability":"nonpayable"},{"type":"function","name":"claimReward","inputs":[{"name":"periodNumber","type":"uint256","internalType":"uint256"}],"outputs":[],"stateMutability":"nonpayable"},{"type":"function","name":"claimed","inputs":[{"name":"","type":"uint256","internalType":"uint256"},{"name":"","type":"address","internalType":"address"}],"outputs":[{"name":"","type":"bool","internalType":"bool"}],"stateMutability":"view"},{"type":"function","name":"contribution","inputs":[],"outputs":[{"name":"","type":"address","internalType":"contract IContribution"}],"stateMutability":"view"},{"type":"function","name":"getClaimableReward","inputs":[{"name":"periodNumber","type":"uint256","internalType":"uint256"},{"name":"user","type":"address","internalType":"address"}],"outputs":[{"name":"","type":"uint256","internalType":"uint256"}],"stateMutability":"view"},{"type":"function","name":"getReward","inputs":[{"name":"periodNumber","type":"uint256","internalType":"uint256"}],"outputs":[{"name":"","type":"bool","internalType":"bool"},{"name":"","type":"uint256","internalType":"uint256"}],"stateMutability":"view"},{"type":"function","name":"getRoleAdmin","inputs":[{"name":"role","type":"bytes32","internalType":"bytes32"}],"outputs":[{"name":"","type":"bytes32","internalType":"bytes32"}],"stateMutability":"view"},{"type":"function","name":"grantRole","inputs":[{"name":"role","type":"bytes32","internalType":"bytes32"},{"name":"account","type":"address","internalType":"address"}],"outputs":[],"stateMutability":"nonpayable"},{"type":"function","name":"hasRole","inputs":[{"name":"role","type":"bytes32","internalType":"bytes32"},{"name":"account","type":"address","internalType":"address"}],"outputs":[{"name":"","type":"bool","internalType":"bool"}],"stateMutability":"view"},{"type":"function","name":"initialize","inputs":[{"name":"_admin","type":"address","internalType":"address"},{"name":"_rewardManager","type":"address","internalType":"address"},{"name":"_contribution","type":"address","internalType":"address"},{"name":"_intmaxToken","type":"address","internalType":"address"}],"outputs":[],"stateMutability":"nonpayable"},{"type":"function","name":"intmaxToken","inputs":[],"outputs":[{"name":"","type":"address","internalType":"contract IERC20"}],"stateMutability":"view"},{"type":"function","name":"proxiableUUID","inputs":[],"outputs":[{"name":"","type":"bytes32","internalType":"bytes32"}],"stateMutability":"view"},{"type":"function","name":"renounceRole","inputs":[{"name":"role","type":"bytes32","internalType":"bytes32"},{"name":"callerConfirmation","type":"address","internalType":"address"}],"outputs":[],"stateMutability":"nonpayable"},{"type":"function","name":"revokeRole","inputs":[{"name":"role","type":"bytes32","internalType":"bytes32"},{"name":"account","type":"address","internalType":"address"}],"outputs":[],"stateMutability":"nonpayable"},{"type":"function","name":"setReward","inputs":[{"name":"periodNumber","type":"uint256","internalType":"uint256"},{"name":"amount","type":"uint256","internalType":"uint256"}],"outputs":[],"stateMutability":"nonpayable"},{"type":"function","name":"supportsInterface","inputs":[{"name":"interfaceId","type":"bytes4","internalType":"bytes4"}],"outputs":[{"name":"","type":"bool","internalType":"bool"}],"stateMutability":"view"},{"type":"function","name":"totalRewards","inputs":[{"name":"","type":"uint256","internalType":"uint256"}],"outputs":[{"name":"isSet","type":"bool","internalType":"bool"},{"name":"amount","type":"uint248","internalType":"uint248"}],"stateMutability":"view"},{"type":"function","name":"upgradeToAndCall","inputs":[{"name":"newImplementation","type":"address","internalType":"address"},{"name":"data","type":"bytes","internalType":"bytes"}],"outputs":[],"stateMutability":"payable"},{"type":"event","name":"Claimed","inputs":[{"name":"periodNumber","type":"uint256","indexed":true,"internalType":"uint256"},{"name":"user","type":"address","indexed":true,"internalType":"address"},{"name":"amount","type":"uint256","indexed":false,"internalType":"uint256"}],"anonymous":false},{"type":"event","name":"Initialized","inputs":[{"name":"version","type":"uint64","indexed":false,"internalType":"uint64"}],"anonymous":false},{"type":"event","name":"RoleAdminChanged","inputs":[{"name":"role","type":"bytes32","indexed":true,"internalType":"bytes32"},{"name":"previousAdminRole","type":"bytes32","indexed":true,"internalType":"bytes32"},{"name":"newAdminRole","type":"bytes32","indexed":true,"internalType":"bytes32"}],"anonymous":false},{"type":"event","name":"RoleGranted","inputs":[{"name":"role","type":"bytes32","indexed":true,"internalType":"bytes32"},{"name":"account","type":"address","indexed":true,"internalType":"address"},{"name":"sender","type":"address","indexed":true,"internalType":"address"}],"anonymous":false},{"type":"event","name":"RoleRevoked","inputs":[{"name":"role","type":"bytes32","indexed":true,"internalType":"bytes32"},{"name":"account","type":"address","indexed":true,"internalType":"address"},{"name":"sender","type":"address","indexed":true,"internalType":"address"}],"anonymous":false},{"type":"event","name":"SetReward","inputs":[{"name":"periodNumber","type":"uint256","indexed":true,"internalType":"uint256"},{"name":"amount","type":"uint256","indexed":false,"internalType":"uint256"}],"anonymous":false},{"type":"event","name":"Upgraded","inputs":[{"name":"implementation","type":"address","indexed":true,"internalType":"address"}],"anonymous":false},{"type":"error","name":"AccessControlBadConfirmation","inputs":[]},{"type":"error","name":"AccessControlUnauthorizedAccount","inputs":[{"name":"account","type":"address","internalType":"address"},{"name":"neededRole","type":"bytes32","internalType":"bytes32"}]},{"type":"error","name":"AddressEmptyCode","inputs":[{"name":"target","type":"address","internalType":"address"}]},{"type":"error","name":"AddressZero","inputs":[]},{"type":"error","name":"AlreadyClaimed","inputs":[]},{"type":"error","name":"AlreadySetReward","inputs":[]},{"type":"error","name":"ERC1967InvalidImplementation","inputs":[{"name":"implementation","type":"address","internalType":"address"}]},{"type":"error","name":"ERC1967NonPayable","inputs":[]},{"type":"error","name":"FailedCall","inputs":[]},{"type":"error","name":"InvalidInitialization","inputs":[]},{"type":"error","name":"NotInitializing","inputs":[]},{"type":"error","name":"NotSetReward","inputs":[]},{"type":"error","name":"PeriodNotEnded","inputs":[]},{"type":"error","name":"RewardTooLarge","inputs":[]},{"type":"error","name":"UUPSUnauthorizedCallContext","inputs":[]},{"type":"error","name":"UUPSUnsupportedProxiableUUID","inputs":[{"name":"slot","type":"bytes32","internalType":"bytes32"}]}],"bytecode":{"object":"0x60a06040523073ffffffffffffffffffffffffffffffffffffffff1660809073ffffffffffffffffffffffffffffffffffffffff16815250348015610042575f5ffd5b5061005161005660201b60201c565b6101b6565b5f61006561015460201b60201c565b9050805f0160089054906101000a900460ff16156100af576040517ff92ee8a900000000000000000000000000000000000000000000000000000000815260040160405180910390fd5b67ffffffffffffffff8016815f015f9054906101000a900467ffffffffffffffff1667ffffffffffffffff16146101515767ffffffffffffffff815f015f6101000a81548167ffffffffffffffff021916908367ffffffffffffffff1602179055507fc7f505b2f371ae2175ee4913f4499e1f2633a7b5936321eed1cdaeb6115181d267ffffffffffffffff604051610148919061019d565b60405180910390a15b50565b5f7ff0c57e16840df040f15088dc2f81fe391c3923bec73e23a9662efc9c229c6a00905090565b5f67ffffffffffffffff82169050919050565b6101978161017b565b82525050565b5f6020820190506101b05f83018461018e565b92915050565b608051612c3e6101dc5f395f8181611acb01528181611b200152611cdf0152612c3e5ff3fe608060405260043610610129575f3560e01c80636d750d80116100aa578063ad3cb1cc1161006e578063ad3cb1cc1461040f578063ad8d280714610439578063ae169a5014610463578063c760da041461048b578063d547741f146104b3578063f8c8765e146104db57610129565b80636d750d801461031b57806391d1485414610345578063a217fddf14610381578063a47bd496146103ab578063ab3b55e3146103d357610129565b806332f26694116100f157806332f266941461024657806336568abe146102835780634f1ef286146102ab57806350520b1f146102c757806352d1902d146102f157610129565b806301ffc9a71461012d578063120aa877146101695780631c4b774b146101a5578063248a9ca3146101e25780632f2ff15d1461021e575b5f5ffd5b348015610138575f5ffd5b50610153600480360381019061014e91906121d8565b610503565b604051610160919061221d565b60405180910390f35b348015610174575f5ffd5b5061018f600480360381019061018a91906122c3565b61057c565b60405161019c919061221d565b60405180910390f35b3480156101b0575f5ffd5b506101cb60048036038101906101c69190612301565b6105a6565b6040516101d992919061233b565b60405180910390f35b3480156101ed575f5ffd5b5061020860048036038101906102039190612395565b61068a565b60405161021591906123cf565b60405180910390f35b348015610229575f5ffd5b50610244600480360381019061023f91906123e8565b6106b4565b005b348015610251575f5ffd5b5061026c60048036038101906102679190612301565b6106d6565b60405161027a92919061245f565b60405180910390f35b34801561028e575f5ffd5b506102a960048036038101906102a491906123e8565b61072c565b005b6102c560048036038101906102c091906125c2565b6107a7565b005b3480156102d2575f5ffd5b506102db6107c6565b6040516102e89190612677565b60405180910390f35b3480156102fc575f5ffd5b506103056107ea565b60405161031291906123cf565b60405180910390f35b348015610326575f5ffd5b5061032f61081b565b60405161033c91906123cf565b60405180910390f35b348015610350575f5ffd5b5061036b600480360381019061036691906123e8565b61083f565b604051610378919061221d565b60405180910390f35b34801561038c575f5ffd5b506103956108b0565b6040516103a291906123cf565b60405180910390f35b3480156103b6575f5ffd5b506103d160048036038101906103cc9190612690565b6108b6565b005b3480156103de575f5ffd5b506103f960048036038101906103f491906122c3565b610b2c565b60405161040691906126ce565b60405180910390f35b34801561041a575f5ffd5b50610423610eae565b6040516104309190612747565b60405180910390f35b348015610444575f5ffd5b5061044d610ee7565b60405161045a9190612787565b60405180910390f35b34801561046e575f5ffd5b5061048960048036038101906104849190612301565b610f0c565b005b348015610496575f5ffd5b506104b160048036038101906104ac91906127fd565b611479565b005b3480156104be575f5ffd5b506104d960048036038101906104d491906123e8565b6114c2565b005b3480156104e6575f5ffd5b5061050160048036038101906104fc9190612848565b6114e4565b005b5f7f7965db0b000000000000000000000000000000000000000000000000000000007bffffffffffffffffffffffffffffffffffffffffffffffffffffffff1916827bffffffffffffffffffffffffffffffffffffffffffffffffffffffff1916148061057557506105748261182e565b5b9050919050565b6003602052815f5260405f20602052805f5260405f205f915091509054906101000a900460ff1681565b5f5f5f60025f8581526020019081526020015f206040518060400160405290815f82015f9054906101000a900460ff161515151581526020015f820160019054906101000a90047effffffffffffffffffffffffffffffffffffffffffffffffffffffffffffff167effffffffffffffffffffffffffffffffffffffffffffffffffffffffffffff167effffffffffffffffffffffffffffffffffffffffffffffffffffffffffffff16815250509050805f015181602001517effffffffffffffffffffffffffffffffffffffffffffffffffffffffffffff169250925050915091565b5f5f610694611897565b9050805f015f8481526020019081526020015f2060010154915050919050565b6106bd8261068a565b6106c6816118be565b6106d083836118d2565b50505050565b6002602052805f5260405f205f91509050805f015f9054906101000a900460ff1690805f0160019054906101000a90047effffffffffffffffffffffffffffffffffffffffffffffffffffffffffffff16905082565b6107346119ca565b73ffffffffffffffffffffffffffffffffffffffff168173ffffffffffffffffffffffffffffffffffffffff1614610798576040517f6697b23200000000000000000000000000000000000000000000000000000000815260040160405180910390fd5b6107a282826119d1565b505050565b6107af611ac9565b6107b882611baf565b6107c28282611bbf565b5050565b5f5f9054906101000a900473ffffffffffffffffffffffffffffffffffffffff1681565b5f6107f3611cdd565b7f360894a13ba1a3210667c828492db98dca3e2076cc3735a920a3ca505d382bbc5f1b905090565b7f0f51adb3f49e4a9bbb17b3783f025995eaf8c24be2c8eefff214bdfda05ef94d81565b5f5f610849611897565b9050805f015f8581526020019081526020015f205f015f8473ffffffffffffffffffffffffffffffffffffffff1673ffffffffffffffffffffffffffffffffffffffff1681526020019081526020015f205f9054906101000a900460ff1691505092915050565b5f5f1b81565b7f0f51adb3f49e4a9bbb17b3783f025995eaf8c24be2c8eefff214bdfda05ef94d6108e0816118be565b5f829050807effffffffffffffffffffffffffffffffffffffffffffffffffffffffffffff16831461093e576040517f71009bf700000000000000000000000000000000000000000000000000000000815260040160405180910390fd5b5f60025f8681526020019081526020015f206040518060400160405290815f82015f9054906101000a900460ff161515151581526020015f820160019054906101000a90047effffffffffffffffffffffffffffffffffffffffffffffffffffffffffffff167effffffffffffffffffffffffffffffffffffffffffffffffffffffffffffff167effffffffffffffffffffffffffffffffffffffffffffffffffffffffffffff16815250509050805f015115610a27576040517fdf54677000000000000000000000000000000000000000000000000000000000815260040160405180910390fd5b6040518060400160405280600115158152602001837effffffffffffffffffffffffffffffffffffffffffffffffffffffffffffff1681525060025f8781526020019081526020015f205f820151815f015f6101000a81548160ff0219169083151502179055506020820151815f0160016101000a8154817effffffffffffffffffffffffffffffffffffffffffffffffffffffffffffff02191690837effffffffffffffffffffffffffffffffffffffffffffffffffffffffffffff160217905550905050847ff0ce7aa5ba2b3ac54f08032f04953c5d57c298b78460dd948bf0211bb0a8587185604051610b1d91906126ce565b60405180910390a25050505050565b5f825f5f9054906101000a900473ffffffffffffffffffffffffffffffffffffffff1673ffffffffffffffffffffffffffffffffffffffff1663086146d26040518163ffffffff1660e01b8152600401602060405180830381865afa158015610b97573d5f5f3e3d5ffd5b505050506040513d601f19601f82011682018060405250810190610bbb91906128c0565b11610bc8575f9050610ea8565b5f60025f8581526020019081526020015f206040518060400160405290815f82015f9054906101000a900460ff161515151581526020015f820160019054906101000a90047effffffffffffffffffffffffffffffffffffffffffffffffffffffffffffff167effffffffffffffffffffffffffffffffffffffffffffffffffffffffffffff167effffffffffffffffffffffffffffffffffffffffffffffffffffffffffffff16815250509050805f0151610c87575f915050610ea8565b5f81602001517effffffffffffffffffffffffffffffffffffffffffffffffffffffffffffff16905060035f8681526020019081526020015f205f8573ffffffffffffffffffffffffffffffffffffffff1673ffffffffffffffffffffffffffffffffffffffff1681526020019081526020015f205f9054906101000a900460ff1615610d18575f92505050610ea8565b5f5f9054906101000a900473ffffffffffffffffffffffffffffffffffffffff1673ffffffffffffffffffffffffffffffffffffffff16638c962d9d867f86b9f03d796881acc3ae8b638c23861904ac9c358da18e1d9994e3874f61c12d6040518363ffffffff1660e01b8152600401610d939291906128eb565b602060405180830381865afa158015610dae573d5f5f3e3d5ffd5b505050506040513d601f19601f82011682018060405250810190610dd291906128c0565b5f5f9054906101000a900473ffffffffffffffffffffffffffffffffffffffff1673ffffffffffffffffffffffffffffffffffffffff16636513f7ab877f86b9f03d796881acc3ae8b638c23861904ac9c358da18e1d9994e3874f61c12d886040518463ffffffff1660e01b8152600401610e4f93929190612921565b602060405180830381865afa158015610e6a573d5f5f3e3d5ffd5b505050506040513d601f19601f82011682018060405250810190610e8e91906128c0565b82610e999190612983565b610ea391906129f1565b925050505b92915050565b6040518060400160405280600581526020017f352e302e3000000000000000000000000000000000000000000000000000000081525081565b60015f9054906101000a900473ffffffffffffffffffffffffffffffffffffffff1681565b805f5f9054906101000a900473ffffffffffffffffffffffffffffffffffffffff1673ffffffffffffffffffffffffffffffffffffffff1663086146d26040518163ffffffff1660e01b8152600401602060405180830381865afa158015610f76573d5f5f3e3d5ffd5b505050506040513d601f19601f82011682018060405250810190610f9a91906128c0565b11610fd1576040517fac59a02d00000000000000000000000000000000000000000000000000000000815260040160405180910390fd5b5f60025f8381526020019081526020015f206040518060400160405290815f82015f9054906101000a900460ff161515151581526020015f820160019054906101000a90047effffffffffffffffffffffffffffffffffffffffffffffffffffffffffffff167effffffffffffffffffffffffffffffffffffffffffffffffffffffffffffff167effffffffffffffffffffffffffffffffffffffffffffffffffffffffffffff16815250509050805f01516110b9576040517f8fbe5a9b00000000000000000000000000000000000000000000000000000000815260040160405180910390fd5b5f81602001517effffffffffffffffffffffffffffffffffffffffffffffffffffffffffffff16905060035f8481526020019081526020015f205f6110fc6119ca565b73ffffffffffffffffffffffffffffffffffffffff1673ffffffffffffffffffffffffffffffffffffffff1681526020019081526020015f205f9054906101000a900460ff1615611179576040517f646cf55800000000000000000000000000000000000000000000000000000000815260040160405180910390fd5b600160035f8581526020019081526020015f205f6111956119ca565b73ffffffffffffffffffffffffffffffffffffffff1673ffffffffffffffffffffffffffffffffffffffff1681526020019081526020015f205f6101000a81548160ff0219169083151502179055505f5f5f9054906101000a900473ffffffffffffffffffffffffffffffffffffffff1673ffffffffffffffffffffffffffffffffffffffff16638c962d9d857f86b9f03d796881acc3ae8b638c23861904ac9c358da18e1d9994e3874f61c12d6040518363ffffffff1660e01b81526004016112609291906128eb565b602060405180830381865afa15801561127b573d5f5f3e3d5ffd5b505050506040513d601f19601f8201168201806040525081019061129f91906128c0565b5f5f9054906101000a900473ffffffffffffffffffffffffffffffffffffffff1673ffffffffffffffffffffffffffffffffffffffff16636513f7ab867f86b9f03d796881acc3ae8b638c23861904ac9c358da18e1d9994e3874f61c12d6113056119ca565b6040518463ffffffff1660e01b815260040161132393929190612921565b602060405180830381865afa15801561133e573d5f5f3e3d5ffd5b505050506040513d601f19601f8201168201806040525081019061136291906128c0565b8361136d9190612983565b61137791906129f1565b905060015f9054906101000a900473ffffffffffffffffffffffffffffffffffffffff1673ffffffffffffffffffffffffffffffffffffffff1663a9059cbb6113be6119ca565b836040518363ffffffff1660e01b81526004016113dc929190612a21565b6020604051808303815f875af11580156113f8573d5f5f3e3d5ffd5b505050506040513d601f19601f8201168201806040525081019061141c9190612a72565b506114256119ca565b73ffffffffffffffffffffffffffffffffffffffff16847f4ec90e965519d92681267467f775ada5bd214aa92c0dc93d90a5e880ce9ed0268360405161146b91906126ce565b60405180910390a350505050565b5f5f90505b828290508110156114bd575f83838381811061149d5761149c612a9d565b5b9050602002013590506114af81610f0c565b50808060010191505061147e565b505050565b6114cb8261068a565b6114d4816118be565b6114de83836119d1565b50505050565b5f6114ed611d64565b90505f815f0160089054906101000a900460ff161590505f825f015f9054906101000a900467ffffffffffffffff1690505f5f8267ffffffffffffffff161480156115355750825b90505f60018367ffffffffffffffff1614801561156857505f3073ffffffffffffffffffffffffffffffffffffffff163b145b905081158015611576575080155b156115ad576040517ff92ee8a900000000000000000000000000000000000000000000000000000000815260040160405180910390fd5b6001855f015f6101000a81548167ffffffffffffffff021916908367ffffffffffffffff16021790555083156115fa576001855f0160086101000a81548160ff0219169083151502179055505b5f73ffffffffffffffffffffffffffffffffffffffff168973ffffffffffffffffffffffffffffffffffffffff16148061165f57505f73ffffffffffffffffffffffffffffffffffffffff168873ffffffffffffffffffffffffffffffffffffffff16145b8061169557505f73ffffffffffffffffffffffffffffffffffffffff168773ffffffffffffffffffffffffffffffffffffffff16145b806116cb57505f73ffffffffffffffffffffffffffffffffffffffff168673ffffffffffffffffffffffffffffffffffffffff16145b15611702576040517f9fabe1c100000000000000000000000000000000000000000000000000000000815260040160405180910390fd5b61170a611d8b565b611712611d95565b61171e5f5f1b8a6118d2565b506117497f0f51adb3f49e4a9bbb17b3783f025995eaf8c24be2c8eefff214bdfda05ef94d896118d2565b50865f5f6101000a81548173ffffffffffffffffffffffffffffffffffffffff021916908373ffffffffffffffffffffffffffffffffffffffff1602179055508560015f6101000a81548173ffffffffffffffffffffffffffffffffffffffff021916908373ffffffffffffffffffffffffffffffffffffffff1602179055508315611823575f855f0160086101000a81548160ff0219169083151502179055507fc7f505b2f371ae2175ee4913f4499e1f2633a7b5936321eed1cdaeb6115181d2600160405161181a9190612b16565b60405180910390a15b505050505050505050565b5f7f01ffc9a7000000000000000000000000000000000000000000000000000000007bffffffffffffffffffffffffffffffffffffffffffffffffffffffff1916827bffffffffffffffffffffffffffffffffffffffffffffffffffffffff1916149050919050565b5f7f02dd7bc7dec4dceedda775e58dd541e08a116c6c53815c0bd028192f7b626800905090565b6118cf816118ca6119ca565b611d9f565b50565b5f5f6118dc611897565b90506118e8848461083f565b6119bf576001815f015f8681526020019081526020015f205f015f8573ffffffffffffffffffffffffffffffffffffffff1673ffffffffffffffffffffffffffffffffffffffff1681526020019081526020015f205f6101000a81548160ff02191690831515021790555061195b6119ca565b73ffffffffffffffffffffffffffffffffffffffff168373ffffffffffffffffffffffffffffffffffffffff16857f2f8788117e7eff1d82e926ec794901d17c78024a50270940304540a733656f0d60405160405180910390a460019150506119c4565b5f9150505b92915050565b5f33905090565b5f5f6119db611897565b90506119e7848461083f565b15611abe575f815f015f8681526020019081526020015f205f015f8573ffffffffffffffffffffffffffffffffffffffff1673ffffffffffffffffffffffffffffffffffffffff1681526020019081526020015f205f6101000a81548160ff021916908315150217905550611a5a6119ca565b73ffffffffffffffffffffffffffffffffffffffff168373ffffffffffffffffffffffffffffffffffffffff16857ff6391f5c32d9c69d2a47ea670b442974b53935d1edc7fd64eb21e047a839171b60405160405180910390a46001915050611ac3565b5f9150505b92915050565b7f000000000000000000000000000000000000000000000000000000000000000073ffffffffffffffffffffffffffffffffffffffff163073ffffffffffffffffffffffffffffffffffffffff161480611b7657507f000000000000000000000000000000000000000000000000000000000000000073ffffffffffffffffffffffffffffffffffffffff16611b5d611df0565b73ffffffffffffffffffffffffffffffffffffffff1614155b15611bad576040517fe07c8dba00000000000000000000000000000000000000000000000000000000815260040160405180910390fd5b565b5f5f1b611bbb816118be565b5050565b8173ffffffffffffffffffffffffffffffffffffffff166352d1902d6040518163ffffffff1660e01b8152600401602060405180830381865afa925050508015611c2757506040513d601f19601f82011682018060405250810190611c249190612b43565b60015b611c6857816040517f4c9c8ce3000000000000000000000000000000000000000000000000000000008152600401611c5f9190612b6e565b60405180910390fd5b7f360894a13ba1a3210667c828492db98dca3e2076cc3735a920a3ca505d382bbc5f1b8114611cce57806040517faa1d49a4000000000000000000000000000000000000000000000000000000008152600401611cc591906123cf565b60405180910390fd5b611cd88383611e43565b505050565b7f000000000000000000000000000000000000000000000000000000000000000073ffffffffffffffffffffffffffffffffffffffff163073ffffffffffffffffffffffffffffffffffffffff1614611d62576040517fe07c8dba00000000000000000000000000000000000000000000000000000000815260040160405180910390fd5b565b5f7ff0c57e16840df040f15088dc2f81fe391c3923bec73e23a9662efc9c229c6a00905090565b611d93611eb5565b565b611d9d611eb5565b565b611da9828261083f565b611dec5780826040517fe2517d3f000000000000000000000000000000000000000000000000000000008152600401611de3929190612b87565b60405180910390fd5b5050565b5f611e1c7f360894a13ba1a3210667c828492db98dca3e2076cc3735a920a3ca505d382bbc5f1b611ef5565b5f015f9054906101000a900473ffffffffffffffffffffffffffffffffffffffff16905090565b611e4c82611efe565b8173ffffffffffffffffffffffffffffffffffffffff167fbc7cd75a20ee27fd9adebab32041f755214dbc6bffa90cc0225b39da2e5c2d3b60405160405180910390a25f81511115611ea857611ea28282611fc7565b50611eb1565b611eb0612047565b5b5050565b611ebd612083565b611ef3576040517fd7e6bcf800000000000000000000000000000000000000000000000000000000815260040160405180910390fd5b565b5f819050919050565b5f8173ffffffffffffffffffffffffffffffffffffffff163b03611f5957806040517f4c9c8ce3000000000000000000000000000000000000000000000000000000008152600401611f509190612b6e565b60405180910390fd5b80611f857f360894a13ba1a3210667c828492db98dca3e2076cc3735a920a3ca505d382bbc5f1b611ef5565b5f015f6101000a81548173ffffffffffffffffffffffffffffffffffffffff021916908373ffffffffffffffffffffffffffffffffffffffff16021790555050565b60605f5f8473ffffffffffffffffffffffffffffffffffffffff1684604051611ff09190612bf2565b5f60405180830381855af49150503d805f8114612028576040519150601f19603f3d011682016040523d82523d5f602084013e61202d565b606091505b509150915061203d8583836120a1565b9250505092915050565b5f341115612081576040517fb398979f00000000000000000000000000000000000000000000000000000000815260040160405180910390fd5b565b5f61208c611d64565b5f0160089054906101000a900460ff16905090565b6060826120b6576120b18261212e565b612126565b5f82511480156120dc57505f8473ffffffffffffffffffffffffffffffffffffffff163b145b1561211e57836040517f9996b3150000000000000000000000000000000000000000000000000000000081526004016121159190612b6e565b60405180910390fd5b819050612127565b5b9392505050565b5f815111156121405780518082602001fd5b6040517fd6bda27500000000000000000000000000000000000000000000000000000000815260040160405180910390fd5b5f604051905090565b5f5ffd5b5f5ffd5b5f7fffffffff0000000000000000000000000000000000000000000000000000000082169050919050565b6121b781612183565b81146121c1575f5ffd5b50565b5f813590506121d2816121ae565b92915050565b5f602082840312156121ed576121ec61217b565b5b5f6121fa848285016121c4565b91505092915050565b5f8115159050919050565b61221781612203565b82525050565b5f6020820190506122305f83018461220e565b92915050565b5f819050919050565b61224881612236565b8114612252575f5ffd5b50565b5f813590506122638161223f565b92915050565b5f73ffffffffffffffffffffffffffffffffffffffff82169050919050565b5f61229282612269565b9050919050565b6122a281612288565b81146122ac575f5ffd5b50565b5f813590506122bd81612299565b92915050565b5f5f604083850312156122d9576122d861217b565b5b5f6122e685828601612255565b92505060206122f7858286016122af565b9150509250929050565b5f602082840312156123165761231561217b565b5b5f61232384828501612255565b91505092915050565b61233581612236565b82525050565b5f60408201905061234e5f83018561220e565b61235b602083018461232c565b9392505050565b5f819050919050565b61237481612362565b811461237e575f5ffd5b50565b5f8135905061238f8161236b565b92915050565b5f602082840312156123aa576123a961217b565b5b5f6123b784828501612381565b91505092915050565b6123c981612362565b82525050565b5f6020820190506123e25f8301846123c0565b92915050565b5f5f604083850312156123fe576123fd61217b565b5b5f61240b85828601612381565b925050602061241c858286016122af565b9150509250929050565b5f7effffffffffffffffffffffffffffffffffffffffffffffffffffffffffffff82169050919050565b61245981612426565b82525050565b5f6040820190506124725f83018561220e565b61247f6020830184612450565b9392505050565b5f5ffd5b5f5ffd5b5f601f19601f8301169050919050565b7f4e487b71000000000000000000000000000000000000000000000000000000005f52604160045260245ffd5b6124d48261248e565b810181811067ffffffffffffffff821117156124f3576124f261249e565b5b80604052505050565b5f612505612172565b905061251182826124cb565b919050565b5f67ffffffffffffffff8211156125305761252f61249e565b5b6125398261248e565b9050602081019050919050565b828183375f83830152505050565b5f61256661256184612516565b6124fc565b9050828152602081018484840111156125825761258161248a565b5b61258d848285612546565b509392505050565b5f82601f8301126125a9576125a8612486565b5b81356125b9848260208601612554565b91505092915050565b5f5f604083850312156125d8576125d761217b565b5b5f6125e5858286016122af565b925050602083013567ffffffffffffffff8111156126065761260561217f565b5b61261285828601612595565b9150509250929050565b5f819050919050565b5f61263f61263a61263584612269565b61261c565b612269565b9050919050565b5f61265082612625565b9050919050565b5f61266182612646565b9050919050565b61267181612657565b82525050565b5f60208201905061268a5f830184612668565b92915050565b5f5f604083850312156126a6576126a561217b565b5b5f6126b385828601612255565b92505060206126c485828601612255565b9150509250929050565b5f6020820190506126e15f83018461232c565b92915050565b5f81519050919050565b5f82825260208201905092915050565b8281835e5f83830152505050565b5f612719826126e7565b61272381856126f1565b9350612733818560208601612701565b61273c8161248e565b840191505092915050565b5f6020820190508181035f83015261275f818461270f565b905092915050565b5f61277182612646565b9050919050565b61278181612767565b82525050565b5f60208201905061279a5f830184612778565b92915050565b5f5ffd5b5f5ffd5b5f5f83601f8401126127bd576127bc612486565b5b8235905067ffffffffffffffff8111156127da576127d96127a0565b5b6020830191508360208202830111156127f6576127f56127a4565b5b9250929050565b5f5f602083850312156128135761281261217b565b5b5f83013567ffffffffffffffff8111156128305761282f61217f565b5b61283c858286016127a8565b92509250509250929050565b5f5f5f5f608085870312156128605761285f61217b565b5b5f61286d878288016122af565b945050602061287e878288016122af565b935050604061288f878288016122af565b92505060606128a0878288016122af565b91505092959194509250565b5f815190506128ba8161223f565b92915050565b5f602082840312156128d5576128d461217b565b5b5f6128e2848285016128ac565b91505092915050565b5f6040820190506128fe5f83018561232c565b61290b60208301846123c0565b9392505050565b61291b81612288565b82525050565b5f6060820190506129345f83018661232c565b61294160208301856123c0565b61294e6040830184612912565b949350505050565b7f4e487b71000000000000000000000000000000000000000000000000000000005f52601160045260245ffd5b5f61298d82612236565b915061299883612236565b92508282026129a681612236565b915082820484148315176129bd576129bc612956565b5b5092915050565b7f4e487b71000000000000000000000000000000000000000000000000000000005f52601260045260245ffd5b5f6129fb82612236565b9150612a0683612236565b925082612a1657612a156129c4565b5b828204905092915050565b5f604082019050612a345f830185612912565b612a41602083018461232c565b9392505050565b612a5181612203565b8114612a5b575f5ffd5b50565b5f81519050612a6c81612a48565b92915050565b5f60208284031215612a8757612a8661217b565b5b5f612a9484828501612a5e565b91505092915050565b7f4e487b71000000000000000000000000000000000000000000000000000000005f52603260045260245ffd5b5f819050919050565b5f67ffffffffffffffff82169050919050565b5f612b00612afb612af684612aca565b61261c565b612ad3565b9050919050565b612b1081612ae6565b82525050565b5f602082019050612b295f830184612b07565b92915050565b5f81519050612b3d8161236b565b92915050565b5f60208284031215612b5857612b5761217b565b5b5f612b6584828501612b2f565b91505092915050565b5f602082019050612b815f830184612912565b92915050565b5f604082019050612b9a5f830185612912565b612ba760208301846123c0565b9392505050565b5f81519050919050565b5f81905092915050565b5f612bcc82612bae565b612bd68185612bb8565b9350612be6818560208601612701565b80840191505092915050565b5f612bfd8284612bc2565b91508190509291505056fea26469706673582212208f4ade361c43f046a5791ab43f7082fc918e0769578343542c9d9b907344bc2964736f6c634300081b0033","linkReferences":{}},"methodIdentifiers":{"DEFAULT_ADMIN_ROLE()":"a217fddf","REWARD_MANAGER_ROLE()":"6d750d80","UPGRADE_INTERFACE_VERSION()":"ad3cb1cc","batchClaimReward(uint256[])":"c760da04","claimReward(uint256)":"ae169a50","claimed(uint256,address)":"120aa877","contribution()":"50520b1f","getClaimableReward(uint256,address)":"ab3b55e3","getReward(uint256)":"1c4b774b","getRoleAdmin(bytes32)":"248a9ca3","grantRole(bytes32,address)":"2f2ff15d","hasRole(bytes32,address)":"91d14854","initialize(address,address,address,address)":"f8c8765e","intmaxToken()":"ad8d2807","proxiableUUID()":"52d1902d","renounceRole(bytes32,address)":"36568abe","revokeRole(bytes32,address)":"d547741f","setReward(uint256,uint256)":"a47bd496","supportsInterface(bytes4)":"01ffc9a7","totalRewards(uint256)":"32f26694","upgradeToAndCall(address,bytes)":"4f1ef286"},"id":38}