{
  "_format": "hh-sol-artifact-1",
  "contractName": "Liquidity",
  "sourceName": "contracts/liquidity/Liquidity.sol",
  "abi": [
    {
      "inputs": [],
      "stateMutability": "nonpayable",
      "type": "constructor"
    },
    {
      "inputs": [],
      "name": "AccessControlBadConfirmation",
      "type": "error"
    },
    {
      "inputs": [
        {
          "internalType": "address",
          "name": "account",
          "type": "address"
        },
        {
          "internalType": "bytes32",
          "name": "neededRole",
          "type": "bytes32"
        }
      ],
      "name": "AccessControlUnauthorizedAccount",
      "type": "error"
    },
    {
      "inputs": [
        {
          "internalType": "address",
          "name": "target",
          "type": "address"
        }
      ],
      "name": "AddressEmptyCode",
      "type": "error"
    },
    {
      "inputs": [],
      "name": "AddressZero",
      "type": "error"
    },
    {
      "inputs": [],
      "name": "AlreadyAnalyzed",
      "type": "error"
    },
    {
      "inputs": [
        {
          "internalType": "uint256",
          "name": "depositAmount",
          "type": "uint256"
        },
        {
          "internalType": "uint256",
          "name": "limit",
          "type": "uint256"
        }
      ],
      "name": "DepositAmountExceedsLimit",
      "type": "error"
    },
    {
      "inputs": [
        {
          "internalType": "bytes32",
          "name": "depositHash",
          "type": "bytes32"
        }
      ],
      "name": "DepositHashAlreadyExists",
      "type": "error"
    },
    {
      "inputs": [
        {
          "internalType": "address",
          "name": "implementation",
          "type": "address"
        }
      ],
      "name": "ERC1967InvalidImplementation",
      "type": "error"
    },
    {
      "inputs": [],
      "name": "ERC1967NonPayable",
      "type": "error"
    },
    {
      "inputs": [],
      "name": "EnforcedPause",
      "type": "error"
    },
    {
      "inputs": [],
      "name": "ExpectedPause",
      "type": "error"
    },
    {
      "inputs": [],
      "name": "FailedCall",
      "type": "error"
    },
    {
      "inputs": [
        {
          "internalType": "bytes32",
          "name": "depositDataHash",
          "type": "bytes32"
        },
        {
          "internalType": "bytes32",
          "name": "calculatedHash",
          "type": "bytes32"
        }
      ],
      "name": "InvalidDepositHash",
      "type": "error"
    },
    {
      "inputs": [],
      "name": "InvalidInitialization",
      "type": "error"
    },
    {
      "inputs": [],
      "name": "InvalidWithdrawalAddress",
      "type": "error"
    },
    {
      "inputs": [],
      "name": "NotInitializing",
      "type": "error"
    },
    {
      "inputs": [],
      "name": "OnlySenderCanCancelDeposit",
      "type": "error"
    },
    {
      "inputs": [
        {
          "internalType": "address",
          "name": "token",
          "type": "address"
        }
      ],
      "name": "SafeERC20FailedOperation",
      "type": "error"
    },
    {
      "inputs": [],
      "name": "SenderIsNotScrollMessenger",
      "type": "error"
    },
    {
      "inputs": [],
      "name": "TokenAddressIsZero",
      "type": "error"
    },
    {
      "inputs": [
        {
          "internalType": "uint256",
          "name": "upToDepositId",
          "type": "uint256"
        },
        {
          "internalType": "uint256",
          "name": "firstDepositId",
          "type": "uint256"
        },
        {
          "internalType": "uint256",
          "name": "lastDepositId",
          "type": "uint256"
        }
      ],
      "name": "TriedAnalyzeOutOfRange",
      "type": "error"
    },
    {
      "inputs": [],
      "name": "TriedToDepositZero",
      "type": "error"
    },
    {
      "inputs": [
        {
          "internalType": "uint256",
          "name": "rejectIndex",
          "type": "uint256"
        },
        {
          "internalType": "uint256",
          "name": "front",
          "type": "uint256"
        },
        {
          "internalType": "uint256",
          "name": "upToDepositId",
          "type": "uint256"
        }
      ],
      "name": "TriedToRejectOutOfRange",
      "type": "error"
    },
    {
      "inputs": [],
      "name": "UUPSUnauthorizedCallContext",
      "type": "error"
    },
    {
      "inputs": [
        {
          "internalType": "bytes32",
          "name": "slot",
          "type": "bytes32"
        }
      ],
      "name": "UUPSUnsupportedProxiableUUID",
      "type": "error"
    },
    {
      "inputs": [],
      "name": "WithdrawalAddressNotSet",
      "type": "error"
    },
    {
      "inputs": [
        {
          "internalType": "bytes32",
          "name": "withdrawalHash",
          "type": "bytes32"
        }
      ],
      "name": "WithdrawalNotFound",
      "type": "error"
    },
    {
      "anonymous": false,
      "inputs": [
        {
          "indexed": true,
          "internalType": "address",
          "name": "recipient",
          "type": "address"
        },
        {
          "indexed": true,
          "internalType": "bytes32",
          "name": "withdrawalHash",
          "type": "bytes32"
        }
      ],
      "name": "ClaimedWithdrawal",
      "type": "event"
    },
    {
      "anonymous": false,
      "inputs": [
        {
          "indexed": true,
          "internalType": "uint256",
          "name": "depositId",
          "type": "uint256"
        }
      ],
      "name": "DepositCanceled",
      "type": "event"
    },
    {
      "anonymous": false,
      "inputs": [
        {
          "indexed": true,
          "internalType": "uint256",
          "name": "depositId",
          "type": "uint256"
        },
        {
          "indexed": true,
          "internalType": "address",
          "name": "sender",
          "type": "address"
        },
        {
          "indexed": true,
          "internalType": "bytes32",
          "name": "recipientSaltHash",
          "type": "bytes32"
        },
        {
          "indexed": false,
          "internalType": "uint32",
          "name": "tokenIndex",
          "type": "uint32"
        },
        {
          "indexed": false,
          "internalType": "uint256",
          "name": "amount",
          "type": "uint256"
        },
        {
          "indexed": false,
          "internalType": "uint256",
          "name": "depositedAt",
          "type": "uint256"
        }
      ],
      "name": "Deposited",
      "type": "event"
    },
    {
      "anonymous": false,
      "inputs": [
        {
          "indexed": true,
          "internalType": "uint256",
          "name": "upToDepositId",
          "type": "uint256"
        },
        {
          "indexed": false,
          "internalType": "uint256[]",
          "name": "rejectedIndices",
          "type": "uint256[]"
        },
        {
          "indexed": false,
          "internalType": "uint256",
          "name": "gasLimit",
          "type": "uint256"
        }
      ],
      "name": "DepositsAnalyzedAndRelayed",
      "type": "event"
    },
    {
      "anonymous": false,
      "inputs": [
        {
          "indexed": true,
          "internalType": "bytes32",
          "name": "withdrawalHash",
          "type": "bytes32"
        },
        {
          "components": [
            {
              "internalType": "address",
              "name": "recipient",
              "type": "address"
            },
            {
              "internalType": "uint32",
              "name": "tokenIndex",
              "type": "uint32"
            },
            {
              "internalType": "uint256",
              "name": "amount",
              "type": "uint256"
            },
            {
              "internalType": "bytes32",
              "name": "nullifier",
              "type": "bytes32"
            }
          ],
          "indexed": false,
          "internalType": "struct WithdrawalLib.Withdrawal",
          "name": "withdrawal",
          "type": "tuple"
        }
      ],
      "name": "DirectWithdrawalFailed",
      "type": "event"
    },
    {
      "anonymous": false,
      "inputs": [
        {
          "indexed": true,
          "internalType": "bytes32",
          "name": "withdrawalHash",
          "type": "bytes32"
        },
        {
          "indexed": true,
          "internalType": "address",
          "name": "recipient",
          "type": "address"
        }
      ],
      "name": "DirectWithdrawalSuccessed",
      "type": "event"
    },
    {
      "anonymous": false,
      "inputs": [
        {
          "indexed": false,
          "internalType": "uint64",
          "name": "version",
          "type": "uint64"
        }
      ],
      "name": "Initialized",
      "type": "event"
    },
    {
      "anonymous": false,
      "inputs": [
        {
          "indexed": false,
          "internalType": "address",
          "name": "account",
          "type": "address"
        }
      ],
      "name": "Paused",
      "type": "event"
    },
    {
      "anonymous": false,
      "inputs": [
        {
          "indexed": true,
          "internalType": "bytes32",
          "name": "role",
          "type": "bytes32"
        },
        {
          "indexed": true,
          "internalType": "bytes32",
          "name": "previousAdminRole",
          "type": "bytes32"
        },
        {
          "indexed": true,
          "internalType": "bytes32",
          "name": "newAdminRole",
          "type": "bytes32"
        }
      ],
      "name": "RoleAdminChanged",
      "type": "event"
    },
    {
      "anonymous": false,
      "inputs": [
        {
          "indexed": true,
          "internalType": "bytes32",
          "name": "role",
          "type": "bytes32"
        },
        {
          "indexed": true,
          "internalType": "address",
          "name": "account",
          "type": "address"
        },
        {
          "indexed": true,
          "internalType": "address",
          "name": "sender",
          "type": "address"
        }
      ],
      "name": "RoleGranted",
      "type": "event"
    },
    {
      "anonymous": false,
      "inputs": [
        {
          "indexed": true,
          "internalType": "bytes32",
          "name": "role",
          "type": "bytes32"
        },
        {
          "indexed": true,
          "internalType": "address",
          "name": "account",
          "type": "address"
        },
        {
          "indexed": true,
          "internalType": "address",
          "name": "sender",
          "type": "address"
        }
      ],
      "name": "RoleRevoked",
      "type": "event"
    },
    {
      "anonymous": false,
      "inputs": [
        {
          "indexed": false,
          "internalType": "address",
          "name": "account",
          "type": "address"
        }
      ],
      "name": "Unpaused",
      "type": "event"
    },
    {
      "anonymous": false,
      "inputs": [
        {
          "indexed": true,
          "internalType": "address",
          "name": "implementation",
          "type": "address"
        }
      ],
      "name": "Upgraded",
      "type": "event"
    },
    {
      "anonymous": false,
      "inputs": [
        {
          "indexed": true,
          "internalType": "bytes32",
          "name": "withdrawalHash",
          "type": "bytes32"
        }
      ],
      "name": "WithdrawalClaimable",
      "type": "event"
    },
    {
      "inputs": [],
      "name": "ANALYZER",
      "outputs": [
        {
          "internalType": "bytes32",
          "name": "",
          "type": "bytes32"
        }
      ],
      "stateMutability": "view",
      "type": "function"
    },
    {
      "inputs": [],
      "name": "DEFAULT_ADMIN_ROLE",
      "outputs": [
        {
          "internalType": "bytes32",
          "name": "",
          "type": "bytes32"
        }
      ],
      "stateMutability": "view",
      "type": "function"
    },
    {
      "inputs": [],
      "name": "UPGRADE_INTERFACE_VERSION",
      "outputs": [
        {
          "internalType": "string",
          "name": "",
          "type": "string"
        }
      ],
      "stateMutability": "view",
      "type": "function"
    },
    {
      "inputs": [],
      "name": "WITHDRAWAL",
      "outputs": [
        {
          "internalType": "bytes32",
          "name": "",
          "type": "bytes32"
        }
      ],
      "stateMutability": "view",
      "type": "function"
    },
    {
      "inputs": [
        {
          "internalType": "uint256",
          "name": "upToDepositId",
          "type": "uint256"
        },
        {
          "internalType": "uint256[]",
          "name": "rejectDepositIds",
          "type": "uint256[]"
        },
        {
          "internalType": "uint256",
          "name": "gasLimit",
          "type": "uint256"
        }
      ],
      "name": "analyzeAndRelayDeposits",
      "outputs": [],
      "stateMutability": "payable",
      "type": "function"
    },
    {
      "inputs": [
        {
          "internalType": "uint256",
          "name": "depositId",
          "type": "uint256"
        },
        {
          "components": [
            {
              "internalType": "address",
              "name": "depositor",
              "type": "address"
            },
            {
              "internalType": "bytes32",
              "name": "recipientSaltHash",
              "type": "bytes32"
            },
            {
              "internalType": "uint256",
              "name": "amount",
              "type": "uint256"
            },
            {
              "internalType": "uint32",
              "name": "tokenIndex",
              "type": "uint32"
            },
            {
              "internalType": "bool",
              "name": "isEligible",
              "type": "bool"
            }
          ],
          "internalType": "struct DepositLib.Deposit",
          "name": "deposit",
          "type": "tuple"
        }
      ],
      "name": "cancelDeposit",
      "outputs": [],
      "stateMutability": "nonpayable",
      "type": "function"
    },
    {
      "inputs": [
        {
          "components": [
            {
              "internalType": "address",
              "name": "recipient",
              "type": "address"
            },
            {
              "internalType": "uint32",
              "name": "tokenIndex",
              "type": "uint32"
            },
            {
              "internalType": "uint256",
              "name": "amount",
              "type": "uint256"
            },
            {
              "internalType": "bytes32",
              "name": "nullifier",
              "type": "bytes32"
            }
          ],
          "internalType": "struct WithdrawalLib.Withdrawal[]",
          "name": "withdrawals",
          "type": "tuple[]"
        }
      ],
      "name": "claimWithdrawals",
      "outputs": [],
      "stateMutability": "nonpayable",
      "type": "function"
    },
    {
      "inputs": [
        {
          "internalType": "bytes32",
          "name": "",
          "type": "bytes32"
        }
      ],
      "name": "claimableWithdrawals",
      "outputs": [
        {
          "internalType": "uint256",
          "name": "",
          "type": "uint256"
        }
      ],
      "stateMutability": "view",
      "type": "function"
    },
    {
      "inputs": [
        {
          "internalType": "address",
          "name": "tokenAddress",
          "type": "address"
        },
        {
          "internalType": "bytes32",
          "name": "recipientSaltHash",
          "type": "bytes32"
        },
        {
          "internalType": "uint256",
          "name": "tokenId",
          "type": "uint256"
        },
        {
          "internalType": "uint256",
          "name": "amount",
          "type": "uint256"
        }
      ],
      "name": "depositERC1155",
      "outputs": [],
      "stateMutability": "nonpayable",
      "type": "function"
    },
    {
      "inputs": [
        {
          "internalType": "address",
          "name": "tokenAddress",
          "type": "address"
        },
        {
          "internalType": "bytes32",
          "name": "recipientSaltHash",
          "type": "bytes32"
        },
        {
          "internalType": "uint256",
          "name": "amount",
          "type": "uint256"
        }
      ],
      "name": "depositERC20",
      "outputs": [],
      "stateMutability": "nonpayable",
      "type": "function"
    },
    {
      "inputs": [
        {
          "internalType": "address",
          "name": "tokenAddress",
          "type": "address"
        },
        {
          "internalType": "bytes32",
          "name": "recipientSaltHash",
          "type": "bytes32"
        },
        {
          "internalType": "uint256",
          "name": "tokenId",
          "type": "uint256"
        }
      ],
      "name": "depositERC721",
      "outputs": [],
      "stateMutability": "nonpayable",
      "type": "function"
    },
    {
      "inputs": [
        {
          "internalType": "bytes32",
          "name": "recipientSaltHash",
          "type": "bytes32"
        }
      ],
      "name": "depositNativeToken",
      "outputs": [],
      "stateMutability": "payable",
      "type": "function"
    },
    {
      "inputs": [
        {
          "internalType": "uint256",
          "name": "depositId",
          "type": "uint256"
        }
      ],
      "name": "getDepositData",
      "outputs": [
        {
          "components": [
            {
              "internalType": "bytes32",
              "name": "depositHash",
              "type": "bytes32"
            },
            {
              "internalType": "address",
              "name": "sender",
              "type": "address"
            },
            {
              "internalType": "bool",
              "name": "isRejected",
              "type": "bool"
            }
          ],
          "internalType": "struct DepositQueueLib.DepositData",
          "name": "",
          "type": "tuple"
        }
      ],
      "stateMutability": "view",
      "type": "function"
    },
    {
      "inputs": [
        {
          "internalType": "uint256[]",
          "name": "depositIds",
          "type": "uint256[]"
        }
      ],
      "name": "getDepositDataBatch",
      "outputs": [
        {
          "components": [
            {
              "internalType": "bytes32",
              "name": "depositHash",
              "type": "bytes32"
            },
            {
              "internalType": "address",
              "name": "sender",
              "type": "address"
            },
            {
              "internalType": "bool",
              "name": "isRejected",
              "type": "bool"
            }
          ],
          "internalType": "struct DepositQueueLib.DepositData[]",
          "name": "",
          "type": "tuple[]"
        }
      ],
      "stateMutability": "view",
      "type": "function"
    },
    {
      "inputs": [
        {
          "internalType": "uint256",
          "name": "depositId",
          "type": "uint256"
        }
      ],
      "name": "getDepositDataHash",
      "outputs": [
        {
          "internalType": "bytes32",
          "name": "",
          "type": "bytes32"
        }
      ],
      "stateMutability": "view",
      "type": "function"
    },
    {
      "inputs": [],
      "name": "getLastDepositId",
      "outputs": [
        {
          "internalType": "uint256",
          "name": "",
          "type": "uint256"
        }
      ],
      "stateMutability": "view",
      "type": "function"
    },
    {
      "inputs": [],
      "name": "getLastRelayedDepositId",
      "outputs": [
        {
          "internalType": "uint256",
          "name": "",
          "type": "uint256"
        }
      ],
      "stateMutability": "view",
      "type": "function"
    },
    {
      "inputs": [],
      "name": "getNativeTokenIndex",
      "outputs": [
        {
          "internalType": "uint32",
          "name": "",
          "type": "uint32"
        }
      ],
      "stateMutability": "pure",
      "type": "function"
    },
    {
      "inputs": [
        {
          "internalType": "bytes32",
          "name": "role",
          "type": "bytes32"
        }
      ],
      "name": "getRoleAdmin",
      "outputs": [
        {
          "internalType": "bytes32",
          "name": "",
          "type": "bytes32"
        }
      ],
      "stateMutability": "view",
      "type": "function"
    },
    {
      "inputs": [
        {
          "internalType": "enum ITokenData.TokenType",
          "name": "tokenType",
          "type": "uint8"
        },
        {
          "internalType": "address",
          "name": "tokenAddress",
          "type": "address"
        },
        {
          "internalType": "uint256",
          "name": "tokenId",
          "type": "uint256"
        }
      ],
      "name": "getTokenIndex",
      "outputs": [
        {
          "internalType": "bool",
          "name": "",
          "type": "bool"
        },
        {
          "internalType": "uint32",
          "name": "",
          "type": "uint32"
        }
      ],
      "stateMutability": "view",
      "type": "function"
    },
    {
      "inputs": [
        {
          "internalType": "uint32",
          "name": "tokenIndex",
          "type": "uint32"
        }
      ],
      "name": "getTokenInfo",
      "outputs": [
        {
          "components": [
            {
              "internalType": "enum ITokenData.TokenType",
              "name": "tokenType",
              "type": "uint8"
            },
            {
              "internalType": "address",
              "name": "tokenAddress",
              "type": "address"
            },
            {
              "internalType": "uint256",
              "name": "tokenId",
              "type": "uint256"
            }
          ],
          "internalType": "struct ITokenData.TokenInfo",
          "name": "",
          "type": "tuple"
        }
      ],
      "stateMutability": "view",
      "type": "function"
    },
    {
      "inputs": [
        {
          "internalType": "bytes32",
          "name": "role",
          "type": "bytes32"
        },
        {
          "internalType": "address",
          "name": "account",
          "type": "address"
        }
      ],
      "name": "grantRole",
      "outputs": [],
      "stateMutability": "nonpayable",
      "type": "function"
    },
    {
      "inputs": [
        {
          "internalType": "bytes32",
          "name": "role",
          "type": "bytes32"
        },
        {
          "internalType": "address",
          "name": "account",
          "type": "address"
        }
      ],
      "name": "hasRole",
      "outputs": [
        {
          "internalType": "bool",
          "name": "",
          "type": "bool"
        }
      ],
      "stateMutability": "view",
      "type": "function"
    },
    {
      "inputs": [
        {
          "internalType": "address",
          "name": "_admin",
          "type": "address"
        },
        {
          "internalType": "address",
          "name": "_rollup",
          "type": "address"
        },
        {
          "internalType": "address",
          "name": "_withdrawal",
          "type": "address"
        },
        {
          "internalType": "address",
          "name": "_claim",
          "type": "address"
        },
        {
          "internalType": "address",
          "name": "_analyzer",
          "type": "address"
        },
        {
          "internalType": "address",
          "name": "_contribution",
          "type": "address"
        },
        {
          "internalType": "address[]",
          "name": "initialERC20Tokens",
          "type": "address[]"
        }
      ],
      "name": "initialize",
      "outputs": [],
      "stateMutability": "nonpayable",
      "type": "function"
    },
    {
      "inputs": [
        {
          "internalType": "uint256",
          "name": "depositId",
          "type": "uint256"
        },
        {
          "internalType": "bytes32",
          "name": "recipientSaltHash",
          "type": "bytes32"
        },
        {
          "internalType": "uint32",
          "name": "tokenIndex",
          "type": "uint32"
        },
        {
          "internalType": "uint256",
          "name": "amount",
          "type": "uint256"
        },
        {
          "internalType": "bool",
          "name": "isEligible",
          "type": "bool"
        },
        {
          "internalType": "address",
          "name": "sender",
          "type": "address"
        }
      ],
      "name": "isDepositValid",
      "outputs": [
        {
          "internalType": "bool",
          "name": "",
          "type": "bool"
        }
      ],
      "stateMutability": "view",
      "type": "function"
    },
    {
      "inputs": [
        {
          "internalType": "address",
          "name": "",
          "type": "address"
        },
        {
          "internalType": "address",
          "name": "",
          "type": "address"
        },
        {
          "internalType": "uint256",
          "name": "",
          "type": "uint256"
        },
        {
          "internalType": "uint256",
          "name": "",
          "type": "uint256"
        },
        {
          "internalType": "bytes",
          "name": "",
          "type": "bytes"
        }
      ],
      "name": "onERC1155Received",
      "outputs": [
        {
          "internalType": "bytes4",
          "name": "",
          "type": "bytes4"
        }
      ],
      "stateMutability": "pure",
      "type": "function"
    },
    {
      "inputs": [],
      "name": "pauseDeposits",
      "outputs": [],
      "stateMutability": "nonpayable",
      "type": "function"
    },
    {
      "inputs": [],
      "name": "paused",
      "outputs": [
        {
          "internalType": "bool",
          "name": "",
          "type": "bool"
        }
      ],
      "stateMutability": "view",
      "type": "function"
    },
    {
      "inputs": [
        {
          "components": [
            {
              "internalType": "address",
              "name": "recipient",
              "type": "address"
            },
            {
              "internalType": "uint32",
              "name": "tokenIndex",
              "type": "uint32"
            },
            {
              "internalType": "uint256",
              "name": "amount",
              "type": "uint256"
            },
            {
              "internalType": "bytes32",
              "name": "nullifier",
              "type": "bytes32"
            }
          ],
          "internalType": "struct WithdrawalLib.Withdrawal[]",
          "name": "withdrawals",
          "type": "tuple[]"
        },
        {
          "internalType": "bytes32[]",
          "name": "withdrawalHashes",
          "type": "bytes32[]"
        }
      ],
      "name": "processWithdrawals",
      "outputs": [],
      "stateMutability": "nonpayable",
      "type": "function"
    },
    {
      "inputs": [],
      "name": "proxiableUUID",
      "outputs": [
        {
          "internalType": "bytes32",
          "name": "",
          "type": "bytes32"
        }
      ],
      "stateMutability": "view",
      "type": "function"
    },
    {
      "inputs": [
        {
          "internalType": "bytes32",
          "name": "role",
          "type": "bytes32"
        },
        {
          "internalType": "address",
          "name": "callerConfirmation",
          "type": "address"
        }
      ],
      "name": "renounceRole",
      "outputs": [],
      "stateMutability": "nonpayable",
      "type": "function"
    },
    {
      "inputs": [
        {
          "internalType": "bytes32",
          "name": "role",
          "type": "bytes32"
        },
        {
          "internalType": "address",
          "name": "account",
          "type": "address"
        }
      ],
      "name": "revokeRole",
      "outputs": [],
      "stateMutability": "nonpayable",
      "type": "function"
    },
    {
      "inputs": [
        {
          "internalType": "bytes4",
          "name": "interfaceId",
          "type": "bytes4"
        }
      ],
      "name": "supportsInterface",
      "outputs": [
        {
          "internalType": "bool",
          "name": "",
          "type": "bool"
        }
      ],
      "stateMutability": "view",
      "type": "function"
    },
    {
      "inputs": [],
      "name": "unpauseDeposits",
      "outputs": [],
      "stateMutability": "nonpayable",
      "type": "function"
    },
    {
      "inputs": [
        {
          "internalType": "address",
          "name": "newImplementation",
          "type": "address"
        },
        {
          "internalType": "bytes",
          "name": "data",
          "type": "bytes"
        }
      ],
      "name": "upgradeToAndCall",
      "outputs": [],
      "stateMutability": "payable",
      "type": "function"
    }
  ],
  "bytecode": "0x60a06040523060805234801561001457600080fd5b5061001d610022565b6100d4565b7ff0c57e16840df040f15088dc2f81fe391c3923bec73e23a9662efc9c229c6a00805468010000000000000000900460ff16156100725760405163f92ee8a960e01b815260040160405180910390fd5b80546001600160401b03908116146100d15780546001600160401b0319166001600160401b0390811782556040519081527fc7f505b2f371ae2175ee4913f4499e1f2633a7b5936321eed1cdaeb6115181d29060200160405180910390a15b50565b60805161392f6100fd60003960008181611a0e01528181611a370152611b7b015261392f6000f3fe6080604052600436106102045760003560e01c80636751783711610118578063a217fddf116100a0578063d547741f1161006f578063d547741f14610615578063dd9ea29914610635578063e579fa2b1461064a578063f23a6e6114610677578063ffd55332146106bd57600080fd5b8063a217fddf14610568578063ad3cb1cc1461057d578063c13819b6146105bb578063cbd90cd0146105e857600080fd5b8063986be0e2116100e7578063986be0e2146104c85780639c79a31c146104e85780639d07861c146105085780639d6a54cb146105285780639f401f581461054857600080fd5b80636751783714610453578063788c2ecf1461046857806391d148541461048857806391f69b7d146104a857600080fd5b806336568abe1161019b5780634f1ef2861161016a5780634f1ef286146103de57806352d1902d146103f15780635362485e146104065780635c975abb1461041957806363d8882a1461043e57600080fd5b806336568abe14610340578063381175f61461036057806342a82b4f1461039c578063433f6c12146103bc57600080fd5b8063232c1c8a116101d7578063232c1c8a146102b3578063248a9ca3146102e057806326fc02dd146103005780632f2ff15d1461032057600080fd5b806301ffc9a714610209578063021919801461023e5780630c0b59b914610255578063219cd26314610297575b600080fd5b34801561021557600080fd5b50610229610224366004612d79565b6106d0565b60405190151581526020015b60405180910390f35b34801561024a57600080fd5b50610253610707565b005b34801561026157600080fd5b506102897fe5002bd16ffc71462a6c1c19eaf55e254c97864c770378b6f68c1a085231514a81565b604051908152602001610235565b3480156102a357600080fd5b5060405160008152602001610235565b3480156102bf57600080fd5b506102d36102ce366004612e79565b61071d565b6040516102359190612eb5565b3480156102ec57600080fd5b506102896102fb366004612f22565b61083c565b34801561030c57600080fd5b5061025361031b366004612f57565b61085e565b34801561032c57600080fd5b5061025361033b366004612f90565b61091c565b34801561034c57600080fd5b5061025361035b366004612f90565b61093e565b34801561036c57600080fd5b5061038061037b366004612fbc565b610976565b60408051921515835263ffffffff909116602083015201610235565b3480156103a857600080fd5b506102536103b7366004612fff565b610a91565b3480156103c857600080fd5b506102896000805160206138da83398151915281565b6102536103ec366004613101565b610e16565b3480156103fd57600080fd5b50610289610e35565b6102536104143660046131aa565b610e52565b34801561042557600080fd5b506000805160206138ba8339815191525460ff16610229565b34801561044a57600080fd5b50610253610f33565b34801561045f57600080fd5b50610289610f46565b34801561047457600080fd5b506102536104833660046131fa565b610f5d565b34801561049457600080fd5b506102296104a3366004612f90565b610fb8565b3480156104b457600080fd5b506102536104c3366004613278565b610ff0565b3480156104d457600080fd5b506102896104e3366004612f22565b6110f5565b3480156104f457600080fd5b506102536105033660046132db565b611126565b34801561051457600080fd5b5061022961052336600461337c565b611289565b34801561053457600080fd5b506102536105433660046133dd565b611386565b34801561055457600080fd5b506102536105633660046131fa565b6113cf565b34801561057457600080fd5b50610289600081565b34801561058957600080fd5b506105ae604051806040016040528060058152602001640352e302e360dc1b81525081565b60405161023591906134ce565b3480156105c757600080fd5b506105db6105d6366004612f22565b61146a565b60405161023591906134e1565b3480156105f457600080fd5b5061060861060336600461350d565b6114ec565b604051610235919061353e565b34801561062157600080fd5b50610253610630366004612f90565b61158f565b34801561064157600080fd5b506102896115ab565b34801561065657600080fd5b50610289610665366004612f22565b60066020526000908152604090205481565b34801561068357600080fd5b506106a4610692366004613589565b63f23a6e6160e01b9695505050505050565b6040516001600160e01b03199091168152602001610235565b6102536106cb366004612f22565b6115bd565b60006001600160e01b03198216637965db0b60e01b148061070157506301ffc9a760e01b6001600160e01b03198316145b92915050565b6000610712816115f4565b61071a6115fe565b50565b6060600082516001600160401b0381111561073a5761073a612da3565b60405190808252806020026020018201604052801561078557816020015b60408051606081018252600080825260208083018290529282015282526000199092019101816107585790505b50905060005b83518110156108355760086000018482815181106107ab576107ab613630565b6020026020010151815481106107c3576107c3613630565b60009182526020918290206040805160608101825260029390930290910180548352600101546001600160a01b03811693830193909352600160a01b90920460ff16151591810191909152825183908390811061082257610822613630565b602090810291909101015260010161078b565b5092915050565b600090815260008051602061389a833981519152602052604090206001015490565b610866611661565b80600003610887576040516394fe88d960e01b815260040160405180910390fd5b60408051602081018252600081529051637921219560e11b81526001600160a01b0386169163f242432a916108c791339130918891889190600401613646565b600060405180830381600087803b1580156108e157600080fd5b505af11580156108f5573d6000803e3d6000fd5b50505050600061090760038685611694565b9050610915338583856116ce565b5050505050565b6109258261083c565b61092e816115f4565b6109388383611879565b50505050565b6001600160a01b03811633146109675760405163334bd91960e11b815260040160405180910390fd5b610971828261191e565b505050565b6000808085600381111561098c5761098c613528565b0361099d5750600190506000610a89565b6001600160a01b0384166109c45760405163dc2e5e8d60e01b815260040160405180910390fd5b60018560038111156109d8576109d8613528565b03610a0f576001600160a01b03841660009081526001602052604090205463ffffffff168015610a0d57600192509050610a89565b505b6002856003811115610a2357610a23613528565b1480610a4057506003856003811115610a3e57610a3e613528565b145b15610a82576001600160a01b038416600090815260026020908152604080832086845290915290205463ffffffff168015610a8057600192509050610a89565b505b5060009050805b935093915050565b7ff0c57e16840df040f15088dc2f81fe391c3923bec73e23a9662efc9c229c6a008054600160401b810460ff1615906001600160401b0316600081158015610ad65750825b90506000826001600160401b03166001148015610af25750303b155b905081158015610b00575080155b15610b1e5760405163f92ee8a960e01b815260040160405180910390fd5b845467ffffffffffffffff191660011785558315610b4857845460ff60401b1916600160401b1785555b6001600160a01b038c16610b6f57604051639fabe1c160e01b815260040160405180910390fd5b6001600160a01b038b16610b9657604051639fabe1c160e01b815260040160405180910390fd5b6001600160a01b038a16610bbd57604051639fabe1c160e01b815260040160405180910390fd5b6001600160a01b038916610be457604051639fabe1c160e01b815260040160405180910390fd5b6001600160a01b038816610c0b57604051639fabe1c160e01b815260040160405180910390fd5b6001600160a01b038716610c3257604051639fabe1c160e01b815260040160405180910390fd5b610c3d60008d611879565b50610c687fe5002bd16ffc71462a6c1c19eaf55e254c97864c770378b6f68c1a085231514a89611879565b50610c816000805160206138da8339815191528b611879565b50610c9a6000805160206138da8339815191528a611879565b50610ca361199a565b610cab61199a565b610cb4866119a2565b610cbc6119f3565b6040805160608101825260008082526020820181815292820181815260088054600180820183559190935292517ff3f7a9fe364faab93b216da50a3214154f22a0a2b415b23a84c8169e8b636ee360029093029283015592517ff3f7a9fe364faab93b216da50a3214154f22a0a2b415b23a84c8169e8b636ee4909101805493511515600160a01b026001600160a81b03199094166001600160a01b039092169190911792909217909155600955600480546001600160a01b03808a166001600160a01b03199283161790925560058054928e1692909116919091179055610da762015180426136a1565b610db29060016136c3565b610dbf90620151806136d6565b6003558315610e0857845460ff60401b19168555604051600181527fc7f505b2f371ae2175ee4913f4499e1f2633a7b5936321eed1cdaeb6115181d29060200160405180910390a15b505050505050505050505050565b610e1e611a03565b610e2782611aa8565b610e318282611ab3565b5050565b6000610e3f611b70565b5060008051602061387a83398151915290565b7fe5002bd16ffc71462a6c1c19eaf55e254c97864c770378b6f68c1a085231514a610e7c816115f4565b6000610e8a60088686611bb9565b60055460405163f03efa3760e01b81529192506001600160a01b03169063f03efa37908590610ebf90899086906004016136ed565b600060405180830381600088803b158015610ed957600080fd5b5087f1158015610eed573d6000803e3d6000fd5b5050505050847f152ce54c6ea07f4e6ad24aef090b35ba6d67fe0793a7e4a4438195b33ddf46be8585604051610f2492919061373c565b60405180910390a25050505050565b6000610f3e816115f4565b61071a611ea6565b600954600090610f5890600190613789565b905090565b610f65611661565b80600003610f86576040516394fe88d960e01b815260040160405180910390fd5b610f9b6001600160a01b038416333084611eec565b6000610faa6001856000611694565b9050610938338483856116ce565b600091825260008051602061389a833981519152602090815260408084206001600160a01b0393909316845291905290205460ff1690565b60005b8181101561097157600083838381811061100f5761100f613630565b905060800201803603810190611025919061379c565b9050600061103282611f53565b6000818152600660205260408120549192500361106a57604051630181cdef60e61b8152600481018290526024015b60405180910390fd5b600061107983602001516114ec565b905060066000838152602001908152602001600020600090556110b381600001518260200151856000015186604001518560400151611fd0565b825160405183916001600160a01b0316907f0575467d13f5ab9174f470cec96623374b05cf4b19a3c83a4bfca523e243ab0490600090a3505050600101610ff3565b60006008600001828154811061110d5761110d613630565b9060005260206000209060020201600001549050919050565b818160006008600001838154811061114057611140613630565b60009182526020918290206040805160608101825260029390930290910180548352600101546001600160a01b038116938301849052600160a01b900460ff16151590820152915033146111a757604051631165d41f60e31b815260040160405180910390fd5b60006111b283612156565b825190915081146111e3578151604051633df112db60e11b8152600481019190915260248101829052604401611061565b6111eb610f46565b84116112135781604001516112135760405163190dc43560e21b815260040160405180910390fd5b60006112206008886121d4565b9050600061123187606001516114ec565b90506112548160000151826020015184602001518a604001518560400151611fd0565b60405188907f0c1c0787650562778c282502dfd6dcea2fb79d23783920aa18aee36b4aa3dc4890600090a25050505050505050565b600080600860000188815481106112a2576112a2613630565b60009182526020808320604080516060808201835260029590950290920180548352600101546001600160a01b0380821684860152600160a01b90910460ff16151583830152815160a08101835290891681529283018c9052820189905263ffffffff8a1692820192909252861515608082015290925061132290612156565b825190915081146113385760009250505061137c565b836001600160a01b031682602001516001600160a01b0316146113605760009250505061137c565b8160400151156113755760009250505061137c565b6001925050505b9695505050505050565b61139e6000805160206138da83398151915233610fb8565b6113bb57604051634261081360e11b815260040160405180910390fd5b6113c58484612291565b61093882826122d4565b6113d7611661565b6001600160a01b0383166323b872dd336040516001600160e01b031960e084901b1681526001600160a01b03909116600482015230602482015260448101849052606401600060405180830381600087803b15801561143557600080fd5b505af1158015611449573d6000803e3d6000fd5b50505050600061145b60028584611694565b905061093833848360016116ce565b6040805160608101825260008082526020820181905291810191909152600880548390811061149b5761149b613630565b60009182526020918290206040805160608101825260029390930290910180548352600101546001600160a01b03811693830193909352600160a01b90920460ff1615159181019190915292915050565b604080516060810182526000808252602082018190529181019190915260008263ffffffff168154811061152257611522613630565b6000918252602090912060408051606081019091526002909202018054829060ff16600381111561155557611555613528565b600381111561156657611566613528565b8152815461010090046001600160a01b0316602082015260019091015460409091015292915050565b6115988261083c565b6115a1816115f4565b610938838361191e565b600854600090610f5890600190613789565b6115c5611661565b346000036115e6576040516394fe88d960e01b815260040160405180910390fd5b6000610e31338383346116ce565b61071a813361235c565b611606611661565b6000805160206138ba833981519152805460ff191660011781557f62e78cea01bee320cd4e420270b5ea74000d11b0c9f74754ebdbfc544b05a258335b6040516001600160a01b03909116815260200160405180910390a150565b6000805160206138ba8339815191525460ff16156116925760405163d93c066560e01b815260040160405180910390fd5b565b60008060006116a4868686610976565b9150915081156116b75791506116c79050565b6116c2868686612395565b925050505b9392505050565b60006116dc83600354612557565b9050808211156117095760405163539163e160e01b81526004810183905260248101829052604401611061565b60006001905060006117516040518060a00160405280896001600160a01b031681526020018881526020018681526020018763ffffffff168152602001841515815250612156565b60008181526007602052604090205490915060ff16156117875760405163bff0e9e760e01b815260048101829052602401611061565b6000818152600760205260408120805460ff191660011790556118186008838a8254604080516060810182529384526001600160a01b03928316602080860191825260009286018381526001808601895597845292209451600284029095019485555193909401805494511515600160a01b026001600160a81b031990951693909216929092179290921790915590565b6040805163ffffffff89168152602081018890524281830152905191925088916001600160a01b038b169184917f1e88950eef3c1bd8dd83d765aec1f21f34ca153104f0acd7a6218bf8f48e84109181900360600190a45050505050505050565b600060008051602061389a8339815191526118948484610fb8565b611914576000848152602082815260408083206001600160a01b03871684529091529020805460ff191660011790556118ca3390565b6001600160a01b0316836001600160a01b0316857f2f8788117e7eff1d82e926ec794901d17c78024a50270940304540a733656f0d60405160405180910390a46001915050610701565b6000915050610701565b600060008051602061389a8339815191526119398484610fb8565b15611914576000848152602082815260408083206001600160a01b0387168085529252808320805460ff1916905551339287917ff6391f5c32d9c69d2a47ea670b442974b53935d1edc7fd64eb21e047a839171b9190a46001915050610701565b6116926127da565b6119aa6127da565b6119b76000806000612395565b5060005b8151811015610e31576119ea60018383815181106119db576119db613630565b60200260200101516000612395565b506001016119bb565b6119fb6127da565b611692612823565b306001600160a01b037f0000000000000000000000000000000000000000000000000000000000000000161480611a8a57507f00000000000000000000000000000000000000000000000000000000000000006001600160a01b0316611a7e60008051602061387a833981519152546001600160a01b031690565b6001600160a01b031614155b156116925760405163703e46dd60e11b815260040160405180910390fd5b6000610e31816115f4565b816001600160a01b03166352d1902d6040518163ffffffff1660e01b8152600401602060405180830381865afa925050508015611b0d575060408051601f3d908101601f19168201909252611b0a9181019061380e565b60015b611b3557604051634c9c8ce360e01b81526001600160a01b0383166004820152602401611061565b60008051602061387a8339815191528114611b6657604051632a87526960e21b815260048101829052602401611061565b6109718383612844565b306001600160a01b037f000000000000000000000000000000000000000000000000000000000000000016146116925760405163703e46dd60e11b815260040160405180910390fd5b600183015483546060919084101580611bd157508084105b15611c1257845484908290611be890600190613789565b604051631da02a9b60e11b8152600481019390935260248301919091526044820152606401611061565b60005b8351811015611cc5576000848281518110611c3257611c32613630565b6020026020010151905085811180611c4957508281105b15611c7857604051639e16c3b960e01b8152600481018290526024810184905260448101879052606401611061565b6001876000018281548110611c8f57611c8f613630565b906000526020600020906002020160010160146101000a81548160ff021916908315150217905550508080600101915050611c15565b506000815b858111611d62578654600090889083908110611ce857611ce8613630565b60009182526020909120600160029092020101546001600160a01b031614611d5057866000018181548110611d1f57611d1f613630565b906000526020600020906002020160010160149054906101000a900460ff16611d505781611d4c81613827565b9250505b80611d5a81613827565b915050611cca565b506000816001600160401b03811115611d7d57611d7d612da3565b604051908082528060200260200182016040528015611da6578160200160208202803683370190505b5090506000835b878111611e895788546000908a9083908110611dcb57611dcb613630565b60009182526020909120600160029092020101546001600160a01b031614611e7757886000018181548110611e0257611e02613630565b906000526020600020906002020160010160149054906101000a900460ff16611e7757886000018181548110611e3a57611e3a613630565b906000526020600020906002020160000154838381518110611e5e57611e5e613630565b602090810291909101015281611e7381613827565b9250505b80611e8181613827565b915050611dad565b50611e958760016136c3565b600189015550925050509392505050565b611eae61289a565b6000805160206138ba833981519152805460ff191681557f5db9ee0a495bf2e6ff9c91a7834c1ba4fdd244a5e8aa4e537bd38aeae4b073aa33611643565b6040516001600160a01b0384811660248301528381166044830152606482018390526109389186918216906323b872dd906084015b604051602081830303815290604052915060e01b6020820180516001600160e01b0383818316178352505050506128ca565b60008160000151826020015183604001518460600151604051602001611fb3949392919060609490941b6bffffffffffffffffffffffff1916845260e09290921b6001600160e01b03191660148401526018830152603882015260580190565b604051602081830303815290604052805190602001209050919050565b6000856003811115611fe457611fe4613528565b03612025576040516001600160a01b0384169083156108fc029084906000818181858888f1935050505015801561201f573d6000803e3d6000fd5b50610915565b600185600381111561203957612039613528565b03612057576120526001600160a01b038516848461293b565b610915565b600285600381111561206b5761206b613528565b036120dd576040516323b872dd60e01b81523060048201526001600160a01b038481166024830152604482018390528516906323b872dd90606401600060405180830381600087803b1580156120c057600080fd5b505af11580156120d4573d6000803e3d6000fd5b50505050610915565b60408051602081018252600081529051637921219560e11b81526001600160a01b0386169163f242432a9161211d91309188918791899190600401613646565b600060405180830381600087803b15801561213757600080fd5b505af115801561214b573d6000803e3d6000fd5b505050505050505050565b60008160000151826020015183604001518460600151856080015161217c57600061217f565b60015b60405160609590951b6bffffffffffffffffffffffff191660208601526034850193909352605484019190915260e090811b6001600160e01b03191660748401521b60ff60e01b166078820152607c01611fb3565b604080516060810182526000808252602082018190529181019190915282600001828154811061220657612206613630565b60009182526020918290206040805160608101825260029390930290910180548352600101546001600160a01b03811693830193909352600160a01b90920460ff16151591810191909152835490915083908390811061226857612268613630565b60009182526020822060029091020190815560010180546001600160a81b031916905592915050565b60005b81811015610971576122cc8383838181106122b1576122b1613630565b9050608002018036038101906122c7919061379c565b61296c565b600101612294565b60005b818110156109715742600660008585858181106122f6576122f6613630565b9050602002013581526020019081526020016000208190555082828281811061232157612321613630565b905060200201357fd63a18c6858559d79659151118b33c6ad7cf4f7735b64fe9dbd85c509e11a11760405160405180910390a26001016122d7565b6123668282610fb8565b610e315760405163e2517d3f60e01b81526001600160a01b038216600482015260248101839052604401611061565b6000805460408051606081019091528290808760038111156123b9576123b9613528565b81526001600160a01b038716602080830191909152604090910186905282546001818101855560009485529190932082516002909402018054929390929091839160ff19169083600381111561241157612411613528565b0217905550602082015181546001600160a01b0390911661010002610100600160a81b0319909116178155604090910151600190910155600085600381111561245c5761245c613528565b036124a5576000805260016020527fa6eef7e35abe7026729641147f7915573c7e97b47efa546f5f6e3230263bcb49805463ffffffff191663ffffffff831617905590506116c7565b6001600160a01b0384166124cc5760405163dc2e5e8d60e01b815260040160405180910390fd5b60018560038111156124e0576124e0613528565b03612517576001600160a01b0384166000908152600160205260409020805463ffffffff191663ffffffff831617905590506116c7565b6001600160a01b0393909316600090815260026020908152604080832094835293905291909120805463ffffffff191663ffffffff841617905550919050565b600063ffffffff831615801590612575575063ffffffff8316600214155b8015612588575063ffffffff8316600314155b156125965750600019610701565b814210156125df5763ffffffff83166125b9575068056bc75e2d63100000610701565b60011963ffffffff8416016125d35750631dcd6500610701565b5064746a528800610701565b6000620151806125ef8442613789565b6125f991906136a1565b905060006102d8821061260e57506004612644565b610222821061261f57506003612644565b61016c821061263057506002612644565b60b6821061264057506001612644565b5060005b63ffffffff85166126dc578060ff1660000361266d5768056bc75e2d6310000092505050610701565b8060ff1660010361268b57681b1ae4d6e2ef50000092505050610701565b8060ff166002036126a957683635c9adc5dea0000092505050610701565b8060ff166003036126c85769010f0cf064dd5920000092505050610701565b69021e19e0c9bab240000092505050610701565b60011963ffffffff861601612760578060ff1660000361270457631dcd650092505050610701565b8060ff1660010361271d57633b9aca0092505050610701565b8060ff166002036127375764012a05f20092505050610701565b8060ff16600303612751576402540be40092505050610701565b640ba43b740092505050610701565b8060ff1660000361277a5764746a52880092505050610701565b8060ff166001036127945764e8d4a5100092505050610701565b8060ff166002036127af5765048c2739500092505050610701565b8060ff166003036127ca576509184e72a00092505050610701565b652d79883d200092505050610701565b7ff0c57e16840df040f15088dc2f81fe391c3923bec73e23a9662efc9c229c6a0054600160401b900460ff1661169257604051631afcd79f60e31b815260040160405180910390fd5b61282b6127da565b6000805160206138ba833981519152805460ff19169055565b61284d82612b57565b6040516001600160a01b038316907fbc7cd75a20ee27fd9adebab32041f755214dbc6bffa90cc0225b39da2e5c2d3b90600090a2805115612892576109718282612bbc565b610e31612c32565b6000805160206138ba8339815191525460ff1661169257604051638dfc202b60e01b815260040160405180910390fd5b600080602060008451602086016000885af1806128ed576040513d6000823e3d81fd5b50506000513d91508115612905578060011415612912565b6001600160a01b0384163b155b1561093857604051635274afe760e01b81526001600160a01b0385166004820152602401611061565b6040516001600160a01b0383811660248301526044820183905261097191859182169063a9059cbb90606401611f21565b600061297b82602001516114ec565b9050600160008251600381111561299457612994613528565b036129cc57825160408085015190516000926001600160a01b03169180156108fc029184818181858888f19550612a50945050505050565b6001825160038111156129e1576129e1613528565b03612a4c57825160408085015181516001600160a01b03938416602482015260448082019290925282518082039092018252606401909152602080820180516001600160e01b031663a9059cbb60e01b1790528401519091612a44911682612c51565b915050612a50565b5060005b8015612a985782516001600160a01b0316612a6a84611f53565b6040517f6a65a945f1306f9bb3d4e3ce63aa367de6976a375de002492404554392c2460e90600090a3505050565b6000612aa384611f53565b600081815260066020526040908190204290555190915081907fedf8120f63daf877f6cb9aa7a3e21724c4532681d4afd77a45561904f1a0459990612b1e90879081516001600160a01b0316815260208083015163ffffffff1690820152604080830151908201526060918201519181019190915260800190565b60405180910390a260405181907fd63a18c6858559d79659151118b33c6ad7cf4f7735b64fe9dbd85c509e11a11790600090a250505050565b806001600160a01b03163b600003612b8d57604051634c9c8ce360e01b81526001600160a01b0382166004820152602401611061565b60008051602061387a83398151915280546001600160a01b0319166001600160a01b0392909216919091179055565b6060600080846001600160a01b031684604051612bd99190613840565b600060405180830381855af49150503d8060008114612c14576040519150601f19603f3d011682016040523d82523d6000602084013e612c19565b606091505b5091509150612c29858383612cf4565b95945050505050565b34156116925760405163b398979f60e01b815260040160405180910390fd5b6000806000846001600160a01b031684604051612c6e9190613840565b6000604051808303816000865af19150503d8060008114612cab576040519150601f19603f3d011682016040523d82523d6000602084013e612cb0565b606091505b5091509150818015612cda575080511580612cda575080806020019051810190612cda919061385c565b8015612c295750505050506001600160a01b03163b151590565b606082612d0957612d0482612d50565b6116c7565b8151158015612d2057506001600160a01b0384163b155b15612d4957604051639996b31560e01b81526001600160a01b0385166004820152602401611061565b50806116c7565b805115612d605780518082602001fd5b60405163d6bda27560e01b815260040160405180910390fd5b600060208284031215612d8b57600080fd5b81356001600160e01b0319811681146116c757600080fd5b634e487b7160e01b600052604160045260246000fd5b604051601f8201601f191681016001600160401b0381118282101715612de157612de1612da3565b604052919050565b60006001600160401b03821115612e0257612e02612da3565b5060051b60200190565b600082601f830112612e1d57600080fd5b8135612e30612e2b82612de9565b612db9565b8082825260208201915060208360051b860101925085831115612e5257600080fd5b602085015b83811015612e6f578035835260209283019201612e57565b5095945050505050565b600060208284031215612e8b57600080fd5b81356001600160401b03811115612ea157600080fd5b612ead84828501612e0c565b949350505050565b602080825282518282018190526000918401906040840190835b81811015612f1757612f01838551805182526020808201516001600160a01b0316908301526040908101511515910152565b6020939093019260609290920191600101612ecf565b509095945050505050565b600060208284031215612f3457600080fd5b5035919050565b80356001600160a01b0381168114612f5257600080fd5b919050565b60008060008060808587031215612f6d57600080fd5b612f7685612f3b565b966020860135965060408601359560600135945092505050565b60008060408385031215612fa357600080fd5b82359150612fb360208401612f3b565b90509250929050565b600080600060608486031215612fd157600080fd5b833560048110612fe057600080fd5b9250612fee60208501612f3b565b929592945050506040919091013590565b600080600080600080600060e0888a03121561301a57600080fd5b61302388612f3b565b965061303160208901612f3b565b955061303f60408901612f3b565b945061304d60608901612f3b565b935061305b60808901612f3b565b925061306960a08901612f3b565b915060c08801356001600160401b0381111561308457600080fd5b8801601f81018a1361309557600080fd5b80356130a3612e2b82612de9565b8082825260208201915060208360051b85010192508c8311156130c557600080fd5b6020840193505b828410156130ee576130dd84612f3b565b8252602093840193909101906130cc565b8094505050505092959891949750929550565b6000806040838503121561311457600080fd5b61311d83612f3b565b915060208301356001600160401b0381111561313857600080fd5b8301601f8101851361314957600080fd5b80356001600160401b0381111561316257613162612da3565b613175601f8201601f1916602001612db9565b81815286602083850101111561318a57600080fd5b816020840160208301376000602083830101528093505050509250929050565b6000806000606084860312156131bf57600080fd5b8335925060208401356001600160401b038111156131dc57600080fd5b6131e886828701612e0c565b93969395505050506040919091013590565b60008060006060848603121561320f57600080fd5b61321884612f3b565b95602085013595506040909401359392505050565b60008083601f84011261323f57600080fd5b5081356001600160401b0381111561325657600080fd5b6020830191508360208260071b850101111561327157600080fd5b9250929050565b6000806020838503121561328b57600080fd5b82356001600160401b038111156132a157600080fd5b6132ad8582860161322d565b90969095509350505050565b803563ffffffff81168114612f5257600080fd5b801515811461071a57600080fd5b60008082840360c08112156132ef57600080fd5b8335925060a0601f198201121561330557600080fd5b5060405160a081016001600160401b038111828210171561332857613328612da3565b60405261333760208501612f3b565b81526040848101356020830152606085013590820152613359608085016132b9565b606082015260a084013561336c816132cd565b6080820152919491935090915050565b60008060008060008060c0878903121561339557600080fd5b86359550602087013594506133ac604088016132b9565b93506060870135925060808701356133c3816132cd565b91506133d160a08801612f3b565b90509295509295509295565b600080600080604085870312156133f357600080fd5b84356001600160401b0381111561340957600080fd5b6134158782880161322d565b90955093505060208501356001600160401b0381111561343457600080fd5b8501601f8101871361344557600080fd5b80356001600160401b0381111561345b57600080fd5b8760208260051b840101111561347057600080fd5b949793965060200194505050565b60005b83811015613499578181015183820152602001613481565b50506000910152565b600081518084526134ba81602086016020860161347e565b601f01601f19169290920160200192915050565b6020815260006116c760208301846134a2565b815181526020808301516001600160a01b03169082015260408083015115159082015260608101610701565b60006020828403121561351f57600080fd5b6116c7826132b9565b634e487b7160e01b600052602160045260246000fd5b815160608201906004811061356357634e487b7160e01b600052602160045260246000fd5b82526020838101516001600160a01b031690830152604092830151929091019190915290565b60008060008060008060a087890312156135a257600080fd5b6135ab87612f3b565b95506135b960208801612f3b565b9450604087013593506060870135925060808701356001600160401b038111156135e257600080fd5b8701601f810189136135f357600080fd5b80356001600160401b0381111561360957600080fd5b89602082840101111561361b57600080fd5b60208201935080925050509295509295509295565b634e487b7160e01b600052603260045260246000fd5b6001600160a01b03868116825285166020820152604081018490526060810183905260a060808201819052600090613680908301846134a2565b979650505050505050565b634e487b7160e01b600052601160045260246000fd5b6000826136be57634e487b7160e01b600052601260045260246000fd5b500490565b808201808211156107015761070161368b565b80820281158282048414176107015761070161368b565b6000604082018483526040602084015280845180835260608501915060208601925060005b81811015613730578351835260209384019390920191600101613712565b50909695505050505050565b6040808252835190820181905260009060208501906060840190835b81811015613776578351835260209384019390920191600101613758565b5050602093909301939093525092915050565b818103818111156107015761070161368b565b600060808284031280156137af57600080fd5b50604051608081016001600160401b03811182821017156137d2576137d2612da3565b6040526137de83612f3b565b81526137ec602084016132b9565b6020820152604083810135908201526060928301359281019290925250919050565b60006020828403121561382057600080fd5b5051919050565b6000600182016138395761383961368b565b5060010190565b6000825161385281846020870161347e565b9190910192915050565b60006020828403121561386e57600080fd5b81516116c7816132cd56fe360894a13ba1a3210667c828492db98dca3e2076cc3735a920a3ca505d382bbc02dd7bc7dec4dceedda775e58dd541e08a116c6c53815c0bd028192f7b626800cd5ed15c6e187e77e9aee88184c21f4f2182ab5827cb3b7e07fbedcd63f03300738128fe393bef1bcd8a524796fff40618b938cd467c71fcf37850ab0ba4f7d7a2646970667358221220f2319fffee4def79eecc1dc46659efc82f8b67cff58a8a1e3c4dc5d4fcb6c67864736f6c634300081b0033",
  "linkReferences": {},
  "deployedLinkReferences": {}
}