{
  "_format": "hh-sol-artifact-1",
  "contractName": "Liquidity",
  "sourceName": "contracts/liquidity/Liquidity.sol",
  "abi": [
    {
      "inputs": [],
      "stateMutability": "nonpayable",
      "type": "constructor"
    },
    {
      "inputs": [],
      "name": "AccessControlBadConfirmation",
      "type": "error"
    },
    {
      "inputs": [
        {
          "internalType": "address",
          "name": "account",
          "type": "address"
        },
        {
          "internalType": "bytes32",
          "name": "neededRole",
          "type": "bytes32"
        }
      ],
      "name": "AccessControlUnauthorizedAccount",
      "type": "error"
    },
    {
      "inputs": [
        {
          "internalType": "address",
          "name": "target",
          "type": "address"
        }
      ],
      "name": "AddressEmptyCode",
      "type": "error"
    },
    {
      "inputs": [],
      "name": "AddressZero",
      "type": "error"
    },
    {
      "inputs": [],
      "name": "AlreadyAnalyzed",
      "type": "error"
    },
    {
      "inputs": [
        {
          "internalType": "uint256",
          "name": "depositAmount",
          "type": "uint256"
        },
        {
          "internalType": "uint256",
          "name": "limit",
          "type": "uint256"
        }
      ],
      "name": "DepositAmountExceedsLimit",
      "type": "error"
    },
    {
      "inputs": [
        {
          "internalType": "bytes32",
          "name": "depositHash",
          "type": "bytes32"
        }
      ],
      "name": "DepositHashAlreadyExists",
      "type": "error"
    },
    {
      "inputs": [
        {
          "internalType": "address",
          "name": "implementation",
          "type": "address"
        }
      ],
      "name": "ERC1967InvalidImplementation",
      "type": "error"
    },
    {
      "inputs": [],
      "name": "ERC1967NonPayable",
      "type": "error"
    },
    {
      "inputs": [],
      "name": "EnforcedPause",
      "type": "error"
    },
    {
      "inputs": [],
      "name": "ExpectedPause",
      "type": "error"
    },
    {
      "inputs": [],
      "name": "FailedCall",
      "type": "error"
    },
    {
      "inputs": [
        {
          "internalType": "bytes32",
          "name": "depositDataHash",
          "type": "bytes32"
        },
        {
          "internalType": "bytes32",
          "name": "calculatedHash",
          "type": "bytes32"
        }
      ],
      "name": "InvalidDepositHash",
      "type": "error"
    },
    {
      "inputs": [],
      "name": "InvalidInitialization",
      "type": "error"
    },
    {
      "inputs": [],
      "name": "InvalidWithdrawalAddress",
      "type": "error"
    },
    {
      "inputs": [],
      "name": "NotInitializing",
      "type": "error"
    },
    {
      "inputs": [],
      "name": "OnlySenderCanCancelDeposit",
      "type": "error"
    },
    {
      "inputs": [
        {
          "internalType": "address",
          "name": "token",
          "type": "address"
        }
      ],
      "name": "SafeERC20FailedOperation",
      "type": "error"
    },
    {
      "inputs": [],
      "name": "SenderIsNotScrollMessenger",
      "type": "error"
    },
    {
      "inputs": [],
      "name": "TokenAddressIsZero",
      "type": "error"
    },
    {
      "inputs": [],
      "name": "TriedToDepositZero",
      "type": "error"
    },
    {
      "inputs": [],
      "name": "UUPSUnauthorizedCallContext",
      "type": "error"
    },
    {
      "inputs": [
        {
          "internalType": "bytes32",
          "name": "slot",
          "type": "bytes32"
        }
      ],
      "name": "UUPSUnsupportedProxiableUUID",
      "type": "error"
    },
    {
      "inputs": [],
      "name": "WithdrawalAddressNotSet",
      "type": "error"
    },
    {
      "inputs": [
        {
          "internalType": "bytes32",
          "name": "withdrawalHash",
          "type": "bytes32"
        }
      ],
      "name": "WithdrawalNotFound",
      "type": "error"
    },
    {
      "anonymous": false,
      "inputs": [
        {
          "indexed": true,
          "internalType": "address",
          "name": "recipient",
          "type": "address"
        },
        {
          "indexed": true,
          "internalType": "bytes32",
          "name": "withdrawalHash",
          "type": "bytes32"
        }
      ],
      "name": "ClaimedWithdrawal",
      "type": "event"
    },
    {
      "anonymous": false,
      "inputs": [
        {
          "indexed": true,
          "internalType": "uint256",
          "name": "depositId",
          "type": "uint256"
        }
      ],
      "name": "DepositCanceled",
      "type": "event"
    },
    {
      "anonymous": false,
      "inputs": [
        {
          "indexed": true,
          "internalType": "uint256",
          "name": "depositId",
          "type": "uint256"
        },
        {
          "indexed": true,
          "internalType": "address",
          "name": "sender",
          "type": "address"
        },
        {
          "indexed": true,
          "internalType": "bytes32",
          "name": "recipientSaltHash",
          "type": "bytes32"
        },
        {
          "indexed": false,
          "internalType": "uint32",
          "name": "tokenIndex",
          "type": "uint32"
        },
        {
          "indexed": false,
          "internalType": "uint256",
          "name": "amount",
          "type": "uint256"
        },
        {
          "indexed": false,
          "internalType": "uint256",
          "name": "depositedAt",
          "type": "uint256"
        }
      ],
      "name": "Deposited",
      "type": "event"
    },
    {
      "anonymous": false,
      "inputs": [
        {
          "indexed": true,
          "internalType": "uint256",
          "name": "upToDepositId",
          "type": "uint256"
        },
        {
          "indexed": false,
          "internalType": "uint256[]",
          "name": "rejectedIndices",
          "type": "uint256[]"
        },
        {
          "indexed": false,
          "internalType": "uint256",
          "name": "gasLimit",
          "type": "uint256"
        }
      ],
      "name": "DepositsAnalyzedAndRelayed",
      "type": "event"
    },
    {
      "anonymous": false,
      "inputs": [
        {
          "indexed": true,
          "internalType": "bytes32",
          "name": "withdrawalHash",
          "type": "bytes32"
        },
        {
          "components": [
            {
              "internalType": "address",
              "name": "recipient",
              "type": "address"
            },
            {
              "internalType": "uint32",
              "name": "tokenIndex",
              "type": "uint32"
            },
            {
              "internalType": "uint256",
              "name": "amount",
              "type": "uint256"
            },
            {
              "internalType": "bytes32",
              "name": "nullifier",
              "type": "bytes32"
            }
          ],
          "indexed": false,
          "internalType": "struct WithdrawalLib.Withdrawal",
          "name": "withdrawal",
          "type": "tuple"
        }
      ],
      "name": "DirectWithdrawalFailed",
      "type": "event"
    },
    {
      "anonymous": false,
      "inputs": [
        {
          "indexed": true,
          "internalType": "bytes32",
          "name": "withdrawalHash",
          "type": "bytes32"
        },
        {
          "indexed": true,
          "internalType": "address",
          "name": "recipient",
          "type": "address"
        }
      ],
      "name": "DirectWithdrawalSuccessed",
      "type": "event"
    },
    {
      "anonymous": false,
      "inputs": [
        {
          "indexed": false,
          "internalType": "uint64",
          "name": "version",
          "type": "uint64"
        }
      ],
      "name": "Initialized",
      "type": "event"
    },
    {
      "anonymous": false,
      "inputs": [
        {
          "indexed": false,
          "internalType": "address",
          "name": "account",
          "type": "address"
        }
      ],
      "name": "Paused",
      "type": "event"
    },
    {
      "anonymous": false,
      "inputs": [
        {
          "indexed": true,
          "internalType": "bytes32",
          "name": "role",
          "type": "bytes32"
        },
        {
          "indexed": true,
          "internalType": "bytes32",
          "name": "previousAdminRole",
          "type": "bytes32"
        },
        {
          "indexed": true,
          "internalType": "bytes32",
          "name": "newAdminRole",
          "type": "bytes32"
        }
      ],
      "name": "RoleAdminChanged",
      "type": "event"
    },
    {
      "anonymous": false,
      "inputs": [
        {
          "indexed": true,
          "internalType": "bytes32",
          "name": "role",
          "type": "bytes32"
        },
        {
          "indexed": true,
          "internalType": "address",
          "name": "account",
          "type": "address"
        },
        {
          "indexed": true,
          "internalType": "address",
          "name": "sender",
          "type": "address"
        }
      ],
      "name": "RoleGranted",
      "type": "event"
    },
    {
      "anonymous": false,
      "inputs": [
        {
          "indexed": true,
          "internalType": "bytes32",
          "name": "role",
          "type": "bytes32"
        },
        {
          "indexed": true,
          "internalType": "address",
          "name": "account",
          "type": "address"
        },
        {
          "indexed": true,
          "internalType": "address",
          "name": "sender",
          "type": "address"
        }
      ],
      "name": "RoleRevoked",
      "type": "event"
    },
    {
      "anonymous": false,
      "inputs": [
        {
          "indexed": false,
          "internalType": "address",
          "name": "account",
          "type": "address"
        }
      ],
      "name": "Unpaused",
      "type": "event"
    },
    {
      "anonymous": false,
      "inputs": [
        {
          "indexed": true,
          "internalType": "address",
          "name": "implementation",
          "type": "address"
        }
      ],
      "name": "Upgraded",
      "type": "event"
    },
    {
      "anonymous": false,
      "inputs": [
        {
          "indexed": true,
          "internalType": "bytes32",
          "name": "withdrawalHash",
          "type": "bytes32"
        }
      ],
      "name": "WithdrawalClaimable",
      "type": "event"
    },
    {
      "inputs": [],
      "name": "ANALYZER",
      "outputs": [
        {
          "internalType": "bytes32",
          "name": "",
          "type": "bytes32"
        }
      ],
      "stateMutability": "view",
      "type": "function"
    },
    {
      "inputs": [],
      "name": "DEFAULT_ADMIN_ROLE",
      "outputs": [
        {
          "internalType": "bytes32",
          "name": "",
          "type": "bytes32"
        }
      ],
      "stateMutability": "view",
      "type": "function"
    },
    {
      "inputs": [],
      "name": "UPGRADE_INTERFACE_VERSION",
      "outputs": [
        {
          "internalType": "string",
          "name": "",
          "type": "string"
        }
      ],
      "stateMutability": "view",
      "type": "function"
    },
    {
      "inputs": [],
      "name": "WITHDRAWAL",
      "outputs": [
        {
          "internalType": "bytes32",
          "name": "",
          "type": "bytes32"
        }
      ],
      "stateMutability": "view",
      "type": "function"
    },
    {
      "inputs": [
        {
          "components": [
            {
              "internalType": "address",
              "name": "recipient",
              "type": "address"
            },
            {
              "internalType": "uint32",
              "name": "tokenIndex",
              "type": "uint32"
            },
            {
              "internalType": "uint256",
              "name": "amount",
              "type": "uint256"
            },
            {
              "internalType": "bytes32",
              "name": "nullifier",
              "type": "bytes32"
            }
          ],
          "internalType": "struct WithdrawalLib.Withdrawal[]",
          "name": "withdrawals",
          "type": "tuple[]"
        }
      ],
      "name": "claimWithdrawals",
      "outputs": [],
      "stateMutability": "nonpayable",
      "type": "function"
    },
    {
      "inputs": [
        {
          "internalType": "bytes32",
          "name": "",
          "type": "bytes32"
        }
      ],
      "name": "claimableWithdrawals",
      "outputs": [
        {
          "internalType": "uint256",
          "name": "",
          "type": "uint256"
        }
      ],
      "stateMutability": "view",
      "type": "function"
    },
    {
      "inputs": [
        {
          "internalType": "address",
          "name": "tokenAddress",
          "type": "address"
        },
        {
          "internalType": "bytes32",
          "name": "recipientSaltHash",
          "type": "bytes32"
        },
        {
          "internalType": "uint256",
          "name": "tokenId",
          "type": "uint256"
        },
        {
          "internalType": "uint256",
          "name": "amount",
          "type": "uint256"
        }
      ],
      "name": "depositERC1155",
      "outputs": [],
      "stateMutability": "nonpayable",
      "type": "function"
    },
    {
      "inputs": [
        {
          "internalType": "address",
          "name": "tokenAddress",
          "type": "address"
        },
        {
          "internalType": "bytes32",
          "name": "recipientSaltHash",
          "type": "bytes32"
        },
        {
          "internalType": "uint256",
          "name": "amount",
          "type": "uint256"
        }
      ],
      "name": "depositERC20",
      "outputs": [],
      "stateMutability": "nonpayable",
      "type": "function"
    },
    {
      "inputs": [
        {
          "internalType": "address",
          "name": "tokenAddress",
          "type": "address"
        },
        {
          "internalType": "bytes32",
          "name": "recipientSaltHash",
          "type": "bytes32"
        },
        {
          "internalType": "uint256",
          "name": "tokenId",
          "type": "uint256"
        }
      ],
      "name": "depositERC721",
      "outputs": [],
      "stateMutability": "nonpayable",
      "type": "function"
    },
    {
      "inputs": [
        {
          "internalType": "bytes32",
          "name": "recipientSaltHash",
          "type": "bytes32"
        }
      ],
      "name": "depositNativeToken",
      "outputs": [],
      "stateMutability": "payable",
      "type": "function"
    },
    {
      "inputs": [],
      "name": "getLastDepositId",
      "outputs": [
        {
          "internalType": "uint256",
          "name": "",
          "type": "uint256"
        }
      ],
      "stateMutability": "view",
      "type": "function"
    },
    {
      "inputs": [],
      "name": "getLastRelayedDepositId",
      "outputs": [
        {
          "internalType": "uint256",
          "name": "",
          "type": "uint256"
        }
      ],
      "stateMutability": "view",
      "type": "function"
    },
    {
      "inputs": [],
      "name": "getNativeTokenIndex",
      "outputs": [
        {
          "internalType": "uint32",
          "name": "",
          "type": "uint32"
        }
      ],
      "stateMutability": "pure",
      "type": "function"
    },
    {
      "inputs": [
        {
          "internalType": "bytes32",
          "name": "role",
          "type": "bytes32"
        }
      ],
      "name": "getRoleAdmin",
      "outputs": [
        {
          "internalType": "bytes32",
          "name": "",
          "type": "bytes32"
        }
      ],
      "stateMutability": "view",
      "type": "function"
    },
    {
      "inputs": [
        {
          "internalType": "enum ITokenData.TokenType",
          "name": "tokenType",
          "type": "uint8"
        },
        {
          "internalType": "address",
          "name": "tokenAddress",
          "type": "address"
        },
        {
          "internalType": "uint256",
          "name": "tokenId",
          "type": "uint256"
        }
      ],
      "name": "getTokenIndex",
      "outputs": [
        {
          "internalType": "bool",
          "name": "",
          "type": "bool"
        },
        {
          "internalType": "uint32",
          "name": "",
          "type": "uint32"
        }
      ],
      "stateMutability": "view",
      "type": "function"
    },
    {
      "inputs": [
        {
          "internalType": "uint32",
          "name": "tokenIndex",
          "type": "uint32"
        }
      ],
      "name": "getTokenInfo",
      "outputs": [
        {
          "components": [
            {
              "internalType": "enum ITokenData.TokenType",
              "name": "tokenType",
              "type": "uint8"
            },
            {
              "internalType": "address",
              "name": "tokenAddress",
              "type": "address"
            },
            {
              "internalType": "uint256",
              "name": "tokenId",
              "type": "uint256"
            }
          ],
          "internalType": "struct ITokenData.TokenInfo",
          "name": "",
          "type": "tuple"
        }
      ],
      "stateMutability": "view",
      "type": "function"
    },
    {
      "inputs": [
        {
          "internalType": "bytes32",
          "name": "role",
          "type": "bytes32"
        },
        {
          "internalType": "address",
          "name": "account",
          "type": "address"
        }
      ],
      "name": "grantRole",
      "outputs": [],
      "stateMutability": "nonpayable",
      "type": "function"
    },
    {
      "inputs": [
        {
          "internalType": "bytes32",
          "name": "role",
          "type": "bytes32"
        },
        {
          "internalType": "address",
          "name": "account",
          "type": "address"
        }
      ],
      "name": "hasRole",
      "outputs": [
        {
          "internalType": "bool",
          "name": "",
          "type": "bool"
        }
      ],
      "stateMutability": "view",
      "type": "function"
    },
    {
      "inputs": [
        {
          "internalType": "address",
          "name": "_admin",
          "type": "address"
        },
        {
          "internalType": "address",
          "name": "_rollup",
          "type": "address"
        },
        {
          "internalType": "address",
          "name": "_withdrawal",
          "type": "address"
        },
        {
          "internalType": "address",
          "name": "_claim",
          "type": "address"
        },
        {
          "internalType": "address",
          "name": "_analyzer",
          "type": "address"
        },
        {
          "internalType": "address",
          "name": "_contribution",
          "type": "address"
        },
        {
          "internalType": "address[]",
          "name": "initialERC20Tokens",
          "type": "address[]"
        }
      ],
      "name": "initialize",
      "outputs": [],
      "stateMutability": "nonpayable",
      "type": "function"
    },
    {
      "inputs": [
        {
          "internalType": "address",
          "name": "",
          "type": "address"
        },
        {
          "internalType": "address",
          "name": "",
          "type": "address"
        },
        {
          "internalType": "uint256",
          "name": "",
          "type": "uint256"
        },
        {
          "internalType": "uint256",
          "name": "",
          "type": "uint256"
        },
        {
          "internalType": "bytes",
          "name": "",
          "type": "bytes"
        }
      ],
      "name": "onERC1155Received",
      "outputs": [
        {
          "internalType": "bytes4",
          "name": "",
          "type": "bytes4"
        }
      ],
      "stateMutability": "pure",
      "type": "function"
    },
    {
      "inputs": [],
      "name": "pauseDeposits",
      "outputs": [],
      "stateMutability": "nonpayable",
      "type": "function"
    },
    {
      "inputs": [],
      "name": "paused",
      "outputs": [
        {
          "internalType": "bool",
          "name": "",
          "type": "bool"
        }
      ],
      "stateMutability": "view",
      "type": "function"
    },
    {
      "inputs": [
        {
          "components": [
            {
              "internalType": "address",
              "name": "recipient",
              "type": "address"
            },
            {
              "internalType": "uint32",
              "name": "tokenIndex",
              "type": "uint32"
            },
            {
              "internalType": "uint256",
              "name": "amount",
              "type": "uint256"
            },
            {
              "internalType": "bytes32",
              "name": "nullifier",
              "type": "bytes32"
            }
          ],
          "internalType": "struct WithdrawalLib.Withdrawal[]",
          "name": "withdrawals",
          "type": "tuple[]"
        },
        {
          "internalType": "bytes32[]",
          "name": "withdrawalHashes",
          "type": "bytes32[]"
        }
      ],
      "name": "processWithdrawals",
      "outputs": [],
      "stateMutability": "nonpayable",
      "type": "function"
    },
    {
      "inputs": [],
      "name": "proxiableUUID",
      "outputs": [
        {
          "internalType": "bytes32",
          "name": "",
          "type": "bytes32"
        }
      ],
      "stateMutability": "view",
      "type": "function"
    },
    {
      "inputs": [
        {
          "internalType": "bytes32",
          "name": "role",
          "type": "bytes32"
        },
        {
          "internalType": "address",
          "name": "callerConfirmation",
          "type": "address"
        }
      ],
      "name": "renounceRole",
      "outputs": [],
      "stateMutability": "nonpayable",
      "type": "function"
    },
    {
      "inputs": [
        {
          "internalType": "bytes32",
          "name": "role",
          "type": "bytes32"
        },
        {
          "internalType": "address",
          "name": "account",
          "type": "address"
        }
      ],
      "name": "revokeRole",
      "outputs": [],
      "stateMutability": "nonpayable",
      "type": "function"
    },
    {
      "inputs": [
        {
          "internalType": "bytes4",
          "name": "interfaceId",
          "type": "bytes4"
        }
      ],
      "name": "supportsInterface",
      "outputs": [
        {
          "internalType": "bool",
          "name": "",
          "type": "bool"
        }
      ],
      "stateMutability": "view",
      "type": "function"
    },
    {
      "inputs": [],
      "name": "unpauseDeposits",
      "outputs": [],
      "stateMutability": "nonpayable",
      "type": "function"
    },
    {
      "inputs": [
        {
          "internalType": "address",
          "name": "newImplementation",
          "type": "address"
        },
        {
          "internalType": "bytes",
          "name": "data",
          "type": "bytes"
        }
      ],
      "name": "upgradeToAndCall",
      "outputs": [],
      "stateMutability": "payable",
      "type": "function"
    }
  ],
  "bytecode": "0x60a06040523060805234801561001457600080fd5b5061001d610022565b6100d4565b7ff0c57e16840df040f15088dc2f81fe391c3923bec73e23a9662efc9c229c6a00805468010000000000000000900460ff16156100725760405163f92ee8a960e01b815260040160405180910390fd5b80546001600160401b03908116146100d15780546001600160401b0319166001600160401b0390811782556040519081527fc7f505b2f371ae2175ee4913f4499e1f2633a7b5936321eed1cdaeb6115181d29060200160405180910390a15b50565b608051612c746100fd600039600081816113130152818161133c01526114800152612c746000f3fe6080604052600436106101c25760003560e01c806363d8882a116100f7578063a217fddf11610095578063dd9ea29911610064578063dd9ea299146103d1578063e579fa2b14610526578063f23a6e6114610553578063ffd553321461059957600080fd5b8063a217fddf14610486578063ad3cb1cc1461049b578063cbd90cd0146104d9578063d547741f1461050657600080fd5b806391d14854116100d157806391d148541461040657806391f69b7d146104265780639d6a54cb146104465780639f401f581461046657600080fd5b806363d8882a146103bc57806367517837146103d1578063788c2ecf146103e657600080fd5b806336568abe11610164578063433f6c121161013e578063433f6c121461034d5780634f1ef2861461036f57806352d1902d146103825780635c975abb1461039757600080fd5b806336568abe146102d1578063381175f6146102f157806342a82b4f1461032d57600080fd5b8063219cd263116101a0578063219cd26314610255578063248a9ca31461027157806326fc02dd146102915780632f2ff15d146102b157600080fd5b806301ffc9a7146101c757806302191980146101fc5780630c0b59b914610213575b600080fd5b3480156101d357600080fd5b506101e76101e23660046123ce565b6105ac565b60405190151581526020015b60405180910390f35b34801561020857600080fd5b506102116105e3565b005b34801561021f57600080fd5b506102477fe5002bd16ffc71462a6c1c19eaf55e254c97864c770378b6f68c1a085231514a81565b6040519081526020016101f3565b34801561026157600080fd5b50604051600081526020016101f3565b34801561027d57600080fd5b5061024761028c3660046123f8565b6105f9565b34801561029d57600080fd5b506102116102ac36600461242d565b61061b565b3480156102bd57600080fd5b506102116102cc366004612466565b6106d9565b3480156102dd57600080fd5b506102116102ec366004612466565b6106fb565b3480156102fd57600080fd5b5061031161030c366004612492565b610733565b60408051921515835263ffffffff9091166020830152016101f3565b34801561033957600080fd5b5061021161034836600461251b565b61084e565b34801561035957600080fd5b50610247600080516020612c1f83398151915281565b61021161037d366004612633565b610b25565b34801561038e57600080fd5b50610247610b44565b3480156103a357600080fd5b50600080516020612bff8339815191525460ff166101e7565b3480156103c857600080fd5b50610211610b61565b3480156103dd57600080fd5b50600454610247565b3480156103f257600080fd5b506102116104013660046126dc565b610b74565b34801561041257600080fd5b506101e7610421366004612466565b610bcf565b34801561043257600080fd5b5061021161044136600461275a565b610c07565b34801561045257600080fd5b5061021161046136600461279b565b610d0c565b34801561047257600080fd5b506102116104813660046126dc565b610d55565b34801561049257600080fd5b50610247600081565b3480156104a757600080fd5b506104cc604051806040016040528060058152602001640352e302e360dc1b81525081565b6040516101f3919061288c565b3480156104e557600080fd5b506104f96104f43660046128b3565b610df0565b6040516101f391906128e4565b34801561051257600080fd5b50610211610521366004612466565b610e93565b34801561053257600080fd5b506102476105413660046123f8565b60076020526000908152604090205481565b34801561055f57600080fd5b5061058061056e36600461292f565b63f23a6e6160e01b9695505050505050565b6040516001600160e01b031990911681526020016101f3565b6102116105a73660046123f8565b610eaf565b60006001600160e01b03198216637965db0b60e01b14806105dd57506301ffc9a760e01b6001600160e01b03198316145b92915050565b60006105ee81610ee6565b6105f6610ef0565b50565b6000908152600080516020612bdf833981519152602052604090206001015490565b610623610f53565b80600003610644576040516394fe88d960e01b815260040160405180910390fd5b60408051602081018252600081529051637921219560e11b81526001600160a01b0386169163f242432a91610684913391309188918891906004016129d6565b600060405180830381600087803b15801561069e57600080fd5b505af11580156106b2573d6000803e3d6000fd5b5050505060006106c460038685610f86565b90506106d233858385610fc0565b5050505050565b6106e2826105f9565b6106eb81610ee6565b6106f5838361117e565b50505050565b6001600160a01b03811633146107245760405163334bd91960e11b815260040160405180910390fd5b61072e8282611223565b505050565b60008080856003811115610749576107496128ce565b0361075a5750600190506000610846565b6001600160a01b0384166107815760405163dc2e5e8d60e01b815260040160405180910390fd5b6001856003811115610795576107956128ce565b036107cc576001600160a01b03841660009081526001602052604090205463ffffffff1680156107ca57600192509050610846565b505b60028560038111156107e0576107e06128ce565b14806107fd575060038560038111156107fb576107fb6128ce565b145b1561083f576001600160a01b038416600090815260026020908152604080832086845290915290205463ffffffff16801561083d57600192509050610846565b505b5060009050805b935093915050565b7ff0c57e16840df040f15088dc2f81fe391c3923bec73e23a9662efc9c229c6a008054600160401b810460ff1615906001600160401b03166000811580156108935750825b90506000826001600160401b031660011480156108af5750303b155b9050811580156108bd575080155b156108db5760405163f92ee8a960e01b815260040160405180910390fd5b845467ffffffffffffffff19166001178555831561090557845460ff60401b1916600160401b1785555b6001600160a01b038c1661092c57604051639fabe1c160e01b815260040160405180910390fd5b6001600160a01b038b1661095357604051639fabe1c160e01b815260040160405180910390fd5b6001600160a01b038a1661097a57604051639fabe1c160e01b815260040160405180910390fd5b6001600160a01b0389166109a157604051639fabe1c160e01b815260040160405180910390fd5b6001600160a01b0388166109c857604051639fabe1c160e01b815260040160405180910390fd5b6001600160a01b0387166109ef57604051639fabe1c160e01b815260040160405180910390fd5b6109fa60008d61117e565b50610a257fe5002bd16ffc71462a6c1c19eaf55e254c97864c770378b6f68c1a085231514a8961117e565b50610a3e600080516020612c1f8339815191528b61117e565b50610a57600080516020612c1f8339815191528a61117e565b50610a6061129f565b610a6861129f565b610a71866112a7565b610a796112f8565b600580546001600160a01b03808a166001600160a01b03199283161790925560068054928e1692909116919091179055610ab66201518042612a31565b610ac1906001612a53565b610ace9062015180612a66565b6003558315610b1757845460ff60401b19168555604051600181527fc7f505b2f371ae2175ee4913f4499e1f2633a7b5936321eed1cdaeb6115181d29060200160405180910390a15b505050505050505050505050565b610b2d611308565b610b36826113ad565b610b4082826113b8565b5050565b6000610b4e611475565b50600080516020612bbf83398151915290565b6000610b6c81610ee6565b6105f66114be565b610b7c610f53565b80600003610b9d576040516394fe88d960e01b815260040160405180910390fd5b610bb26001600160a01b038416333084611504565b6000610bc16001856000610f86565b90506106f533848385610fc0565b6000918252600080516020612bdf833981519152602090815260408084206001600160a01b0393909316845291905290205460ff1690565b60005b8181101561072e576000838383818110610c2657610c26612a7d565b905060800201803603810190610c3c9190612a93565b90506000610c498261156b565b60008181526007602052604081205491925003610c8157604051630181cdef60e61b8152600481018290526024015b60405180910390fd5b6000610c908360200151610df0565b90506007600083815260200190815260200160002060009055610cca816000015182602001518560000151866040015185604001516115e8565b825160405183916001600160a01b0316907f0575467d13f5ab9174f470cec96623374b05cf4b19a3c83a4bfca523e243ab0490600090a3505050600101610c0a565b610d24600080516020612c1f83398151915233610bcf565b610d4157604051634261081360e11b815260040160405180910390fd5b610d4b848461176e565b6106f58282611847565b610d5d610f53565b6001600160a01b0383166323b872dd336040516001600160e01b031960e084901b1681526001600160a01b03909116600482015230602482015260448101849052606401600060405180830381600087803b158015610dbb57600080fd5b505af1158015610dcf573d6000803e3d6000fd5b505050506000610de160028584610f86565b90506106f53384836001610fc0565b604080516060810182526000808252602082018190529181019190915260008263ffffffff1681548110610e2657610e26612a7d565b6000918252602090912060408051606081019091526002909202018054829060ff166003811115610e5957610e596128ce565b6003811115610e6a57610e6a6128ce565b8152815461010090046001600160a01b0316602082015260019091015460409091015292915050565b610e9c826105f9565b610ea581610ee6565b6106f58383611223565b610eb7610f53565b34600003610ed8576040516394fe88d960e01b815260040160405180910390fd5b6000610b4033838334610fc0565b6105f68133611933565b610ef8610f53565b600080516020612bff833981519152805460ff191660011781557f62e78cea01bee320cd4e420270b5ea74000d11b0c9f74754ebdbfc544b05a258335b6040516001600160a01b03909116815260200160405180910390a150565b600080516020612bff8339815191525460ff1615610f845760405163d93c066560e01b815260040160405180910390fd5b565b6000806000610f96868686610733565b915091508115610fa9579150610fb99050565b610fb486868661196c565b925050505b9392505050565b6000610fce83600354611b2e565b905080821115610ffb5760405163539163e160e01b81526004810183905260248101829052604401610c78565b60006001905060006110436040518060a00160405280896001600160a01b031681526020018881526020018681526020018763ffffffff168152602001841515815250611db1565b60008181526008602052604090205490915060ff16156110795760405163bff0e9e760e01b815260048101829052602401610c78565b6040805160018082528183019092526000916020808301908036833701905050905081816000815181106110af576110af612a7d565b60209081029190910101526006546004805460405163f03efa3760e01b81526001600160a01b039093169263f03efa37926110ed9291869101612b05565b600060405180830381600087803b15801561110757600080fd5b505af115801561111b573d6000803e3d6000fd5b50506004546040805163ffffffff8b168152602081018a9052428183015290518b94506001600160a01b038d1693507f1e88950eef3c1bd8dd83d765aec1f21f34ca153104f0acd7a6218bf8f48e84109181900360600190a45050505050505050565b6000600080516020612bdf8339815191526111998484610bcf565b611219576000848152602082815260408083206001600160a01b03871684529091529020805460ff191660011790556111cf3390565b6001600160a01b0316836001600160a01b0316857f2f8788117e7eff1d82e926ec794901d17c78024a50270940304540a733656f0d60405160405180910390a460019150506105dd565b60009150506105dd565b6000600080516020612bdf83398151915261123e8484610bcf565b15611219576000848152602082815260408083206001600160a01b0387168085529252808320805460ff1916905551339287917ff6391f5c32d9c69d2a47ea670b442974b53935d1edc7fd64eb21e047a839171b9190a460019150506105dd565b610f84611e2f565b6112af611e2f565b6112bc600080600061196c565b5060005b8151811015610b40576112ef60018383815181106112e0576112e0612a7d565b6020026020010151600061196c565b506001016112c0565b611300611e2f565b610f84611e78565b306001600160a01b037f000000000000000000000000000000000000000000000000000000000000000016148061138f57507f00000000000000000000000000000000000000000000000000000000000000006001600160a01b0316611383600080516020612bbf833981519152546001600160a01b031690565b6001600160a01b031614155b15610f845760405163703e46dd60e11b815260040160405180910390fd5b6000610b4081610ee6565b816001600160a01b03166352d1902d6040518163ffffffff1660e01b8152600401602060405180830381865afa925050508015611412575060408051601f3d908101601f1916820190925261140f91810190612b54565b60015b61143a57604051634c9c8ce360e01b81526001600160a01b0383166004820152602401610c78565b600080516020612bbf833981519152811461146b57604051632a87526960e21b815260048101829052602401610c78565b61072e8383611e99565b306001600160a01b037f00000000000000000000000000000000000000000000000000000000000000001614610f845760405163703e46dd60e11b815260040160405180910390fd5b6114c6611eef565b600080516020612bff833981519152805460ff191681557f5db9ee0a495bf2e6ff9c91a7834c1ba4fdd244a5e8aa4e537bd38aeae4b073aa33610f35565b6040516001600160a01b0384811660248301528381166044830152606482018390526106f59186918216906323b872dd906084015b604051602081830303815290604052915060e01b6020820180516001600160e01b038381831617835250505050611f1f565b600081600001518260200151836040015184606001516040516020016115cb949392919060609490941b6bffffffffffffffffffffffff1916845260e09290921b6001600160e01b03191660148401526018830152603882015260580190565b604051602081830303815290604052805190602001209050919050565b60008560038111156115fc576115fc6128ce565b0361163d576040516001600160a01b0384169083156108fc029084906000818181858888f19350505050158015611637573d6000803e3d6000fd5b506106d2565b6001856003811115611651576116516128ce565b0361166f5761166a6001600160a01b0385168484611f90565b6106d2565b6002856003811115611683576116836128ce565b036116f5576040516323b872dd60e01b81523060048201526001600160a01b038481166024830152604482018390528516906323b872dd90606401600060405180830381600087803b1580156116d857600080fd5b505af11580156116ec573d6000803e3d6000fd5b505050506106d2565b60408051602081018252600081529051637921219560e11b81526001600160a01b0386169163f242432a91611735913091889187918991906004016129d6565b600060405180830381600087803b15801561174f57600080fd5b505af1158015611763573d6000803e3d6000fd5b505050505050505050565b60005b818110156117b1576117a983838381811061178e5761178e612a7d565b9050608002018036038101906117a49190612a93565b611fc1565b600101611771565b508015610b405760055460405163f099f9f560e01b81527ff00e60aabbc167f41684e8d81677229edbc0f1876ae2c1ded0a60367465292ab6004820152326024820152604481018390526001600160a01b039091169063f099f9f5906064015b600060405180830381600087803b15801561182b57600080fd5b505af115801561183f573d6000803e3d6000fd5b505050505050565b60005b818110156118cf57426007600085858581811061186957611869612a7d565b9050602002013581526020019081526020016000208190555082828281811061189457611894612a7d565b905060200201357fd63a18c6858559d79659151118b33c6ad7cf4f7735b64fe9dbd85c509e11a11760405160405180910390a260010161184a565b508015610b405760055460405163f099f9f560e01b81527f25146e2fbfab3f988e64e94788d256b87c4fa8691f43ec409c49b57436cb7ee66004820152326024820152604481018390526001600160a01b039091169063f099f9f590606401611811565b61193d8282610bcf565b610b405760405163e2517d3f60e01b81526001600160a01b038216600482015260248101839052604401610c78565b600080546040805160608101909152829080876003811115611990576119906128ce565b81526001600160a01b038716602080830191909152604090910186905282546001818101855560009485529190932082516002909402018054929390929091839160ff1916908360038111156119e8576119e86128ce565b0217905550602082015181546001600160a01b0390911661010002610100600160a81b03199091161781556040909101516001909101556000856003811115611a3357611a336128ce565b03611a7c576000805260016020527fa6eef7e35abe7026729641147f7915573c7e97b47efa546f5f6e3230263bcb49805463ffffffff191663ffffffff83161790559050610fb9565b6001600160a01b038416611aa35760405163dc2e5e8d60e01b815260040160405180910390fd5b6001856003811115611ab757611ab76128ce565b03611aee576001600160a01b0384166000908152600160205260409020805463ffffffff191663ffffffff83161790559050610fb9565b6001600160a01b0393909316600090815260026020908152604080832094835293905291909120805463ffffffff191663ffffffff841617905550919050565b600063ffffffff831615801590611b4c575063ffffffff8316600214155b8015611b5f575063ffffffff8316600314155b15611b6d57506000196105dd565b81421015611bb65763ffffffff8316611b90575068056bc75e2d631000006105dd565b60011963ffffffff841601611baa5750631dcd65006105dd565b5064746a5288006105dd565b600062015180611bc68442612b6d565b611bd09190612a31565b905060006102d88210611be557506004611c1b565b6102228210611bf657506003611c1b565b61016c8210611c0757506002611c1b565b60b68210611c1757506001611c1b565b5060005b63ffffffff8516611cb3578060ff16600003611c445768056bc75e2d63100000925050506105dd565b8060ff16600103611c6257681b1ae4d6e2ef500000925050506105dd565b8060ff16600203611c8057683635c9adc5dea00000925050506105dd565b8060ff16600303611c9f5769010f0cf064dd59200000925050506105dd565b69021e19e0c9bab2400000925050506105dd565b60011963ffffffff861601611d37578060ff16600003611cdb57631dcd6500925050506105dd565b8060ff16600103611cf457633b9aca00925050506105dd565b8060ff16600203611d0e5764012a05f200925050506105dd565b8060ff16600303611d28576402540be400925050506105dd565b640ba43b7400925050506105dd565b8060ff16600003611d515764746a528800925050506105dd565b8060ff16600103611d6b5764e8d4a51000925050506105dd565b8060ff16600203611d865765048c27395000925050506105dd565b8060ff16600303611da1576509184e72a000925050506105dd565b652d79883d2000925050506105dd565b600081600001518260200151836040015184606001518560800151611dd7576000611dda565b60015b60405160609590951b6bffffffffffffffffffffffff191660208601526034850193909352605484019190915260e090811b6001600160e01b03191660748401521b60ff60e01b166078820152607c016115cb565b7ff0c57e16840df040f15088dc2f81fe391c3923bec73e23a9662efc9c229c6a0054600160401b900460ff16610f8457604051631afcd79f60e31b815260040160405180910390fd5b611e80611e2f565b600080516020612bff833981519152805460ff19169055565b611ea2826121ac565b6040516001600160a01b038316907fbc7cd75a20ee27fd9adebab32041f755214dbc6bffa90cc0225b39da2e5c2d3b90600090a2805115611ee75761072e8282612211565b610b40612287565b600080516020612bff8339815191525460ff16610f8457604051638dfc202b60e01b815260040160405180910390fd5b600080602060008451602086016000885af180611f42576040513d6000823e3d81fd5b50506000513d91508115611f5a578060011415611f67565b6001600160a01b0384163b155b156106f557604051635274afe760e01b81526001600160a01b0385166004820152602401610c78565b6040516001600160a01b0383811660248301526044820183905261072e91859182169063a9059cbb90606401611539565b6000611fd08260200151610df0565b90506001600082516003811115611fe957611fe96128ce565b0361202157825160408085015190516000926001600160a01b03169180156108fc029184818181858888f195506120a5945050505050565b600182516003811115612036576120366128ce565b036120a157825160408085015181516001600160a01b03938416602482015260448082019290925282518082039092018252606401909152602080820180516001600160e01b031663a9059cbb60e01b17905284015190916120999116826122a6565b9150506120a5565b5060005b80156120ed5782516001600160a01b03166120bf8461156b565b6040517f6a65a945f1306f9bb3d4e3ce63aa367de6976a375de002492404554392c2460e90600090a3505050565b60006120f88461156b565b600081815260076020526040908190204290555190915081907fedf8120f63daf877f6cb9aa7a3e21724c4532681d4afd77a45561904f1a045999061217390879081516001600160a01b0316815260208083015163ffffffff1690820152604080830151908201526060918201519181019190915260800190565b60405180910390a260405181907fd63a18c6858559d79659151118b33c6ad7cf4f7735b64fe9dbd85c509e11a11790600090a250505050565b806001600160a01b03163b6000036121e257604051634c9c8ce360e01b81526001600160a01b0382166004820152602401610c78565b600080516020612bbf83398151915280546001600160a01b0319166001600160a01b0392909216919091179055565b6060600080846001600160a01b03168460405161222e9190612b80565b600060405180830381855af49150503d8060008114612269576040519150601f19603f3d011682016040523d82523d6000602084013e61226e565b606091505b509150915061227e858383612349565b95945050505050565b3415610f845760405163b398979f60e01b815260040160405180910390fd5b6000806000846001600160a01b0316846040516122c39190612b80565b6000604051808303816000865af19150503d8060008114612300576040519150601f19603f3d011682016040523d82523d6000602084013e612305565b606091505b509150915081801561232f57508051158061232f57508080602001905181019061232f9190612b9c565b801561227e5750505050506001600160a01b03163b151590565b60608261235e57612359826123a5565b610fb9565b815115801561237557506001600160a01b0384163b155b1561239e57604051639996b31560e01b81526001600160a01b0385166004820152602401610c78565b5080610fb9565b8051156123b55780518082602001fd5b60405163d6bda27560e01b815260040160405180910390fd5b6000602082840312156123e057600080fd5b81356001600160e01b031981168114610fb957600080fd5b60006020828403121561240a57600080fd5b5035919050565b80356001600160a01b038116811461242857600080fd5b919050565b6000806000806080858703121561244357600080fd5b61244c85612411565b966020860135965060408601359560600135945092505050565b6000806040838503121561247957600080fd5b8235915061248960208401612411565b90509250929050565b6000806000606084860312156124a757600080fd5b8335600481106124b657600080fd5b92506124c460208501612411565b929592945050506040919091013590565b634e487b7160e01b600052604160045260246000fd5b604051601f8201601f191681016001600160401b0381118282101715612513576125136124d5565b604052919050565b600080600080600080600060e0888a03121561253657600080fd5b61253f88612411565b965061254d60208901612411565b955061255b60408901612411565b945061256960608901612411565b935061257760808901612411565b925061258560a08901612411565b915060c08801356001600160401b038111156125a057600080fd5b8801601f81018a136125b157600080fd5b80356001600160401b038111156125ca576125ca6124d5565b8060051b6125da602082016124eb565b9182526020818401810192908101908d8411156125f657600080fd5b6020850194505b8385101561261f5761260e85612411565b8252602094850194909101906125fd565b809550505050505092959891949750929550565b6000806040838503121561264657600080fd5b61264f83612411565b915060208301356001600160401b0381111561266a57600080fd5b8301601f8101851361267b57600080fd5b80356001600160401b03811115612694576126946124d5565b6126a7601f8201601f19166020016124eb565b8181528660208385010111156126bc57600080fd5b816020840160208301376000602083830101528093505050509250929050565b6000806000606084860312156126f157600080fd5b6126fa84612411565b95602085013595506040909401359392505050565b60008083601f84011261272157600080fd5b5081356001600160401b0381111561273857600080fd5b6020830191508360208260071b850101111561275357600080fd5b9250929050565b6000806020838503121561276d57600080fd5b82356001600160401b0381111561278357600080fd5b61278f8582860161270f565b90969095509350505050565b600080600080604085870312156127b157600080fd5b84356001600160401b038111156127c757600080fd5b6127d38782880161270f565b90955093505060208501356001600160401b038111156127f257600080fd5b8501601f8101871361280357600080fd5b80356001600160401b0381111561281957600080fd5b8760208260051b840101111561282e57600080fd5b949793965060200194505050565b60005b8381101561285757818101518382015260200161283f565b50506000910152565b6000815180845261287881602086016020860161283c565b601f01601f19169290920160200192915050565b602081526000610fb96020830184612860565b803563ffffffff8116811461242857600080fd5b6000602082840312156128c557600080fd5b610fb98261289f565b634e487b7160e01b600052602160045260246000fd5b815160608201906004811061290957634e487b7160e01b600052602160045260246000fd5b82526020838101516001600160a01b031690830152604092830151929091019190915290565b60008060008060008060a0878903121561294857600080fd5b61295187612411565b955061295f60208801612411565b9450604087013593506060870135925060808701356001600160401b0381111561298857600080fd5b8701601f8101891361299957600080fd5b80356001600160401b038111156129af57600080fd5b8960208284010111156129c157600080fd5b60208201935080925050509295509295509295565b6001600160a01b03868116825285166020820152604081018490526060810183905260a060808201819052600090612a1090830184612860565b979650505050505050565b634e487b7160e01b600052601160045260246000fd5b600082612a4e57634e487b7160e01b600052601260045260246000fd5b500490565b808201808211156105dd576105dd612a1b565b80820281158282048414176105dd576105dd612a1b565b634e487b7160e01b600052603260045260246000fd5b60006080828403128015612aa657600080fd5b50604051608081016001600160401b0381118282101715612ac957612ac96124d5565b604052612ad583612411565b8152612ae36020840161289f565b6020820152604083810135908201526060928301359281019290925250919050565b6000604082018483526040602084015280845180835260608501915060208601925060005b81811015612b48578351835260209384019390920191600101612b2a565b50909695505050505050565b600060208284031215612b6657600080fd5b5051919050565b818103818111156105dd576105dd612a1b565b60008251612b9281846020870161283c565b9190910192915050565b600060208284031215612bae57600080fd5b81518015158114610fb957600080fdfe360894a13ba1a3210667c828492db98dca3e2076cc3735a920a3ca505d382bbc02dd7bc7dec4dceedda775e58dd541e08a116c6c53815c0bd028192f7b626800cd5ed15c6e187e77e9aee88184c21f4f2182ab5827cb3b7e07fbedcd63f03300738128fe393bef1bcd8a524796fff40618b938cd467c71fcf37850ab0ba4f7d7a2646970667358221220ef5259fb955ebdbccb457d6507dc5d9ee8d19be93a1c5c8ac6188dbc0951c24464736f6c634300081b0033",
  "linkReferences": {},
  "deployedLinkReferences": {}
}