{
  "_format": "hh-sol-artifact-1",
  "contractName": "Rollup",
  "sourceName": "contracts/rollup/Rollup.sol",
  "abi": [
    {
      "inputs": [],
      "stateMutability": "nonpayable",
      "type": "constructor"
    },
    {
      "inputs": [
        {
          "internalType": "address",
          "name": "target",
          "type": "address"
        }
      ],
      "name": "AddressEmptyCode",
      "type": "error"
    },
    {
      "inputs": [],
      "name": "AddressZero",
      "type": "error"
    },
    {
      "inputs": [],
      "name": "BlockNumberOutOfRange",
      "type": "error"
    },
    {
      "inputs": [
        {
          "internalType": "address",
          "name": "implementation",
          "type": "address"
        }
      ],
      "name": "ERC1967InvalidImplementation",
      "type": "error"
    },
    {
      "inputs": [],
      "name": "ERC1967NonPayable",
      "type": "error"
    },
    {
      "inputs": [],
      "name": "Expired",
      "type": "error"
    },
    {
      "inputs": [],
      "name": "FailedCall",
      "type": "error"
    },
    {
      "inputs": [],
      "name": "InsufficientPenaltyFee",
      "type": "error"
    },
    {
      "inputs": [],
      "name": "InvalidInitialization",
      "type": "error"
    },
    {
      "inputs": [],
      "name": "InvalidNonce",
      "type": "error"
    },
    {
      "inputs": [],
      "name": "MerkleTreeFull",
      "type": "error"
    },
    {
      "inputs": [],
      "name": "NotInitializing",
      "type": "error"
    },
    {
      "inputs": [],
      "name": "OnlyLiquidity",
      "type": "error"
    },
    {
      "inputs": [],
      "name": "OnlyScrollMessenger",
      "type": "error"
    },
    {
      "inputs": [
        {
          "internalType": "address",
          "name": "owner",
          "type": "address"
        }
      ],
      "name": "OwnableInvalidOwner",
      "type": "error"
    },
    {
      "inputs": [
        {
          "internalType": "address",
          "name": "account",
          "type": "address"
        }
      ],
      "name": "OwnableUnauthorizedAccount",
      "type": "error"
    },
    {
      "inputs": [
        {
          "internalType": "uint256",
          "name": "x",
          "type": "uint256"
        },
        {
          "internalType": "uint256",
          "name": "y",
          "type": "uint256"
        }
      ],
      "name": "PRBMath_MulDiv18_Overflow",
      "type": "error"
    },
    {
      "inputs": [
        {
          "internalType": "uint256",
          "name": "x",
          "type": "uint256"
        }
      ],
      "name": "PRBMath_UD60x18_Convert_Overflow",
      "type": "error"
    },
    {
      "inputs": [],
      "name": "PairingCheckFailed",
      "type": "error"
    },
    {
      "inputs": [],
      "name": "PairingOpCodeFailed",
      "type": "error"
    },
    {
      "inputs": [],
      "name": "SenderAccountIdsInvalidLength",
      "type": "error"
    },
    {
      "inputs": [],
      "name": "TooManyAccountIds",
      "type": "error"
    },
    {
      "inputs": [],
      "name": "TooManySenderPublicKeys",
      "type": "error"
    },
    {
      "inputs": [],
      "name": "UUPSUnauthorizedCallContext",
      "type": "error"
    },
    {
      "inputs": [
        {
          "internalType": "bytes32",
          "name": "slot",
          "type": "bytes32"
        }
      ],
      "name": "UUPSUnsupportedProxiableUUID",
      "type": "error"
    },
    {
      "anonymous": false,
      "inputs": [
        {
          "indexed": true,
          "internalType": "bytes32",
          "name": "prevBlockHash",
          "type": "bytes32"
        },
        {
          "indexed": true,
          "internalType": "address",
          "name": "blockBuilder",
          "type": "address"
        },
        {
          "indexed": false,
          "internalType": "uint64",
          "name": "timestamp",
          "type": "uint64"
        },
        {
          "indexed": false,
          "internalType": "uint256",
          "name": "blockNumber",
          "type": "uint256"
        },
        {
          "indexed": false,
          "internalType": "bytes32",
          "name": "depositTreeRoot",
          "type": "bytes32"
        },
        {
          "indexed": false,
          "internalType": "bytes32",
          "name": "signatureHash",
          "type": "bytes32"
        }
      ],
      "name": "BlockPosted",
      "type": "event"
    },
    {
      "anonymous": false,
      "inputs": [
        {
          "indexed": true,
          "internalType": "uint32",
          "name": "depositIndex",
          "type": "uint32"
        },
        {
          "indexed": true,
          "internalType": "bytes32",
          "name": "depositHash",
          "type": "bytes32"
        }
      ],
      "name": "DepositLeafInserted",
      "type": "event"
    },
    {
      "anonymous": false,
      "inputs": [
        {
          "indexed": true,
          "internalType": "uint256",
          "name": "lastProcessedDepositId",
          "type": "uint256"
        },
        {
          "indexed": false,
          "internalType": "bytes32",
          "name": "depositTreeRoot",
          "type": "bytes32"
        }
      ],
      "name": "DepositsProcessed",
      "type": "event"
    },
    {
      "anonymous": false,
      "inputs": [
        {
          "indexed": false,
          "internalType": "uint64",
          "name": "version",
          "type": "uint64"
        }
      ],
      "name": "Initialized",
      "type": "event"
    },
    {
      "anonymous": false,
      "inputs": [
        {
          "indexed": true,
          "internalType": "address",
          "name": "previousOwner",
          "type": "address"
        },
        {
          "indexed": true,
          "internalType": "address",
          "name": "newOwner",
          "type": "address"
        }
      ],
      "name": "OwnershipTransferred",
      "type": "event"
    },
    {
      "anonymous": false,
      "inputs": [
        {
          "indexed": true,
          "internalType": "address",
          "name": "implementation",
          "type": "address"
        }
      ],
      "name": "Upgraded",
      "type": "event"
    },
    {
      "inputs": [],
      "name": "UPGRADE_INTERFACE_VERSION",
      "outputs": [
        {
          "internalType": "string",
          "name": "",
          "type": "string"
        }
      ],
      "stateMutability": "view",
      "type": "function"
    },
    {
      "inputs": [
        {
          "internalType": "uint256",
          "name": "",
          "type": "uint256"
        }
      ],
      "name": "blockHashes",
      "outputs": [
        {
          "internalType": "bytes32",
          "name": "",
          "type": "bytes32"
        }
      ],
      "stateMutability": "view",
      "type": "function"
    },
    {
      "inputs": [
        {
          "internalType": "address",
          "name": "",
          "type": "address"
        }
      ],
      "name": "builderNonRegistrationNonce",
      "outputs": [
        {
          "internalType": "uint32",
          "name": "",
          "type": "uint32"
        }
      ],
      "stateMutability": "view",
      "type": "function"
    },
    {
      "inputs": [
        {
          "internalType": "address",
          "name": "",
          "type": "address"
        }
      ],
      "name": "builderRegistrationNonce",
      "outputs": [
        {
          "internalType": "uint32",
          "name": "",
          "type": "uint32"
        }
      ],
      "stateMutability": "view",
      "type": "function"
    },
    {
      "inputs": [],
      "name": "depositIndex",
      "outputs": [
        {
          "internalType": "uint32",
          "name": "",
          "type": "uint32"
        }
      ],
      "stateMutability": "view",
      "type": "function"
    },
    {
      "inputs": [],
      "name": "depositTreeRoot",
      "outputs": [
        {
          "internalType": "bytes32",
          "name": "",
          "type": "bytes32"
        }
      ],
      "stateMutability": "view",
      "type": "function"
    },
    {
      "inputs": [
        {
          "internalType": "uint32",
          "name": "blockNumber",
          "type": "uint32"
        }
      ],
      "name": "getBlockHash",
      "outputs": [
        {
          "internalType": "bytes32",
          "name": "",
          "type": "bytes32"
        }
      ],
      "stateMutability": "view",
      "type": "function"
    },
    {
      "inputs": [],
      "name": "getLatestBlockNumber",
      "outputs": [
        {
          "internalType": "uint32",
          "name": "",
          "type": "uint32"
        }
      ],
      "stateMutability": "view",
      "type": "function"
    },
    {
      "inputs": [],
      "name": "getPenalty",
      "outputs": [
        {
          "internalType": "uint256",
          "name": "",
          "type": "uint256"
        }
      ],
      "stateMutability": "view",
      "type": "function"
    },
    {
      "inputs": [
        {
          "internalType": "address",
          "name": "_admin",
          "type": "address"
        },
        {
          "internalType": "address",
          "name": "_scrollMessenger",
          "type": "address"
        },
        {
          "internalType": "address",
          "name": "_liquidity",
          "type": "address"
        },
        {
          "internalType": "address",
          "name": "_contribution",
          "type": "address"
        }
      ],
      "name": "initialize",
      "outputs": [],
      "stateMutability": "nonpayable",
      "type": "function"
    },
    {
      "inputs": [],
      "name": "lastProcessedDepositId",
      "outputs": [
        {
          "internalType": "uint256",
          "name": "",
          "type": "uint256"
        }
      ],
      "stateMutability": "view",
      "type": "function"
    },
    {
      "inputs": [],
      "name": "owner",
      "outputs": [
        {
          "internalType": "address",
          "name": "",
          "type": "address"
        }
      ],
      "stateMutability": "view",
      "type": "function"
    },
    {
      "inputs": [
        {
          "internalType": "bytes32",
          "name": "txTreeRoot",
          "type": "bytes32"
        },
        {
          "internalType": "uint64",
          "name": "expiry",
          "type": "uint64"
        },
        {
          "internalType": "uint32",
          "name": "builderNonce",
          "type": "uint32"
        },
        {
          "internalType": "bytes16",
          "name": "senderFlags",
          "type": "bytes16"
        },
        {
          "internalType": "bytes32[2]",
          "name": "aggregatedPublicKey",
          "type": "bytes32[2]"
        },
        {
          "internalType": "bytes32[4]",
          "name": "aggregatedSignature",
          "type": "bytes32[4]"
        },
        {
          "internalType": "bytes32[4]",
          "name": "messagePoint",
          "type": "bytes32[4]"
        },
        {
          "internalType": "bytes32",
          "name": "publicKeysHash",
          "type": "bytes32"
        },
        {
          "internalType": "bytes",
          "name": "senderAccountIds",
          "type": "bytes"
        }
      ],
      "name": "postNonRegistrationBlock",
      "outputs": [],
      "stateMutability": "payable",
      "type": "function"
    },
    {
      "inputs": [
        {
          "internalType": "bytes32",
          "name": "txTreeRoot",
          "type": "bytes32"
        },
        {
          "internalType": "uint64",
          "name": "expiry",
          "type": "uint64"
        },
        {
          "internalType": "uint32",
          "name": "builderNonce",
          "type": "uint32"
        },
        {
          "internalType": "bytes16",
          "name": "senderFlags",
          "type": "bytes16"
        },
        {
          "internalType": "bytes32[2]",
          "name": "aggregatedPublicKey",
          "type": "bytes32[2]"
        },
        {
          "internalType": "bytes32[4]",
          "name": "aggregatedSignature",
          "type": "bytes32[4]"
        },
        {
          "internalType": "bytes32[4]",
          "name": "messagePoint",
          "type": "bytes32[4]"
        },
        {
          "internalType": "uint256[]",
          "name": "senderPublicKeys",
          "type": "uint256[]"
        }
      ],
      "name": "postRegistrationBlock",
      "outputs": [],
      "stateMutability": "payable",
      "type": "function"
    },
    {
      "inputs": [
        {
          "internalType": "uint256",
          "name": "_lastProcessedDepositId",
          "type": "uint256"
        },
        {
          "internalType": "bytes32[]",
          "name": "depositHashes",
          "type": "bytes32[]"
        }
      ],
      "name": "processDeposits",
      "outputs": [],
      "stateMutability": "nonpayable",
      "type": "function"
    },
    {
      "inputs": [],
      "name": "proxiableUUID",
      "outputs": [
        {
          "internalType": "bytes32",
          "name": "",
          "type": "bytes32"
        }
      ],
      "stateMutability": "view",
      "type": "function"
    },
    {
      "inputs": [],
      "name": "renounceOwnership",
      "outputs": [],
      "stateMutability": "nonpayable",
      "type": "function"
    },
    {
      "inputs": [
        {
          "internalType": "address",
          "name": "newOwner",
          "type": "address"
        }
      ],
      "name": "transferOwnership",
      "outputs": [],
      "stateMutability": "nonpayable",
      "type": "function"
    },
    {
      "inputs": [
        {
          "internalType": "address",
          "name": "newImplementation",
          "type": "address"
        },
        {
          "internalType": "bytes",
          "name": "data",
          "type": "bytes"
        }
      ],
      "name": "upgradeToAndCall",
      "outputs": [],
      "stateMutability": "payable",
      "type": "function"
    },
    {
      "inputs": [
        {
          "internalType": "address",
          "name": "to",
          "type": "address"
        }
      ],
      "name": "withdrawPenaltyFee",
      "outputs": [],
      "stateMutability": "nonpayable",
      "type": "function"
    }
  ],
  "bytecode": "0x60a06040523060805234801561001457600080fd5b5061001d610022565b6100d4565b7ff0c57e16840df040f15088dc2f81fe391c3923bec73e23a9662efc9c229c6a00805468010000000000000000900460ff16156100725760405163f92ee8a960e01b815260040160405180910390fd5b80546001600160401b03908116146100d15780546001600160401b0319166001600160401b0390811782556040519081527fc7f505b2f371ae2175ee4913f4499e1f2633a7b5936321eed1cdaeb6115181d29060200160405180910390a15b50565b6080516125006100fd60003960008181610ea001528181610ec9015261100f01526125006000f3fe60806040526004361061011f5760003560e01c80638da5cb5b116100a0578063e56e56db11610064578063e56e56db14610327578063f03efa371461033c578063f2fde38b1461035c578063f8c8765e1461037c578063fdd567561461039c57600080fd5b80638da5cb5b1461025a5780639b6babf0146102a1578063ad3cb1cc146102b4578063c76c3884146102f2578063d2b210a11461030757600080fd5b806353929652116100e757806353929652146101b7578063567419c1146101ff5780635bdcdf1b14610215578063715018a6146102285780637b8989391461023d57600080fd5b80631d9a07b91461012457806325d89cfd1461014d57806334cdf78d1461016f5780634f1ef2861461018f57806352d1902d146101a2575b600080fd5b34801561013057600080fd5b5061013a602b5481565b6040519081526020015b60405180910390f35b34801561015957600080fd5b5061016d610168366004611c8a565b6103cf565b005b34801561017b57600080fd5b5061013a61018a366004611ca7565b610410565b61016d61019d366004611cd6565b610431565b3480156101ae57600080fd5b5061013a61044c565b3480156101c357600080fd5b506101ea6101d2366004611c8a565b60046020526000908152604090205463ffffffff1681565b60405163ffffffff9091168152602001610144565b34801561020b57600080fd5b5061013a60015481565b61016d610223366004611e09565b610469565b34801561023457600080fd5b5061016d61071a565b34801561024957600080fd5b50602c546101ea9063ffffffff1681565b34801561026657600080fd5b507f9016d09d72d40fdae2fd8ceac6b6234c7706214fd39c1cd1e609a0528c199300546040516001600160a01b039091168152602001610144565b61016d6102af366004611f3e565b61072e565b3480156102c057600080fd5b506102e5604051806040016040528060058152602001640352e302e360dc1b81525081565b604051610144919061201a565b3480156102fe57600080fd5b506101ea610932565b34801561031357600080fd5b5061013a61032236600461204d565b61094e565b34801561033357600080fd5b5061013a6109af565b34801561034857600080fd5b5061016d610357366004612068565b6109bb565b34801561036857600080fd5b5061016d610377366004611c8a565b610bd4565b34801561038857600080fd5b5061016d6103973660046120b3565b610c17565b3480156103a857600080fd5b506101ea6103b7366004611c8a565b60036020526000908152604090205463ffffffff1681565b6103d7610e3a565b6040516001600160a01b038216904780156108fc02916000818181858888f1935050505015801561040c573d6000803e3d6000fd5b5050565b6002818154811061042057600080fd5b600091825260209091200154905081565b610439610e95565b61044282610f3a565b61040c8282610f42565b6000610456611004565b506000805160206124ab83398151915290565b6001600160401b0389161580159061048a575042896001600160401b031611155b156104a857604051630407b05b60e31b815260040160405180910390fd5b6104b061104d565b60006040518061012001604052806000151581526020018c81526020018b6001600160401b031681526020016104e33390565b6001600160a01b031681526020018a63ffffffff168152602001896001600160801b0319168152602001886002806020026040519081016040528092919082600260200280828437600092019190915250505081526040805160808181019092526020909201919089906004908390839080828437600092019190915250505081526040805160808181019092526020909201919088906004908390839080828437600092019190915250505090529050816105a160806005612125565b8111156105c1576040516333b890b560e11b815260040160405180910390fd5b6105cc600582612152565b156105ea576040516341adec0d60e01b815260040160405180910390fd5b60006105f860806005612125565b6001600160401b0381111561060f5761060f611cc0565b6040519080825280601f01601f191660200182016040528015610639576020820181803683370190505b50905060005b828110156106945785858281811061065957610659612166565b9050013560f81c60f81b82828151811061067557610675612166565b60200101906001600160f81b031916908160001a90535060010161063f565b50815b6106a360806005612125565b8110156106f457600160f81b826106bb83600461217c565b815181106106cb576106cb612166565b60200101906001600160f81b031916908160001a9053506106ed60058261217c565b9050610697565b508051602082012061070a8488838d8d8d6110bd565b5050505050505050505050505050565b610722610e3a565b61072c6000611324565b565b6001600160401b0388161580159061074f575042886001600160401b031611155b1561076d57604051630407b05b60e31b815260040160405180910390fd5b61077561104d565b60006040518061012001604052806001151581526020018b81526020018a6001600160401b031681526020016107a83390565b6001600160a01b031681526020018963ffffffff168152602001886001600160801b031916815260200187600280602002604051908101604052809291908260026020028082843760009201919091525050508152604080516080818101909252602090920191908890600490839083908082843760009201919091525050508152604080516080818101909252602090920191908790600490839083908082843760009201919091525050509052905081608081111561087c576040516307b556c960e01b815260040160405180910390fd5b610884611c38565b60005b828110156108c7578585828181106108a1576108a1612166565b905060200201358282608081106108ba576108ba612166565b6020020152600101610887565b50815b60808110156108f45760018282608081106108e7576108e7612166565b60200201526001016108ca565b50600081604051602001610908919061218f565b60408051601f1981840301815291905280516020909101209050600061070a8583838d8d8d6110bd565b6000600161093f60025490565b61094991906121c4565b905090565b600061095960025490565b63ffffffff168263ffffffff161061098457604051634c788ccb60e11b815260040160405180910390fd5b60028263ffffffff168154811061099d5761099d612166565b90600052602060002001549050919050565b60006109496029611395565b6005546001600160a01b03163381146109e75760405163dbeadcfd60e01b815260040160405180910390fd5b806001600160a01b0316636e296e456040518163ffffffff1660e01b8152600401602060405180830381865afa158015610a25573d6000803e3d6000fd5b505050506040513d601f19601f82011682018060405250810190610a4991906121e0565b6000546001600160a01b03908116911614610a775760405163aff663a560e01b815260040160405180910390fd5b602c5463ffffffff1660005b83811015610b1857610ab7858583818110610aa057610aa0612166565b9050602002013560076113aa90919063ffffffff16565b848482818110610ac957610ac9612166565b905060200201358263ffffffff167f529a1f0fdd7142aabe2b12dd8590a30a26c8427b5200ad8c775a5b4aa03fb41d60405160405180910390a381610b0d816121fd565b925050600101610a83565b50602c805463ffffffff191663ffffffff8316179055600185905560408051610460810191829052600091610b8f919060079082906060820190839060209082845b815481526020019060010190808311610b5a575050505050815260200160208201548152602001602182015481525050611490565b602b81905560405181815290915086907f598fdeda3e3b7298359a08c9a438151e3481bdcf3c3ff9906fa71dcc723617b09060200160405180910390a2505050505050565b610bdc610e3a565b6001600160a01b038116610c0b57604051631e4fbdf760e01b8152600060048201526024015b60405180910390fd5b610c1481611324565b50565b7ff0c57e16840df040f15088dc2f81fe391c3923bec73e23a9662efc9c229c6a008054600160401b810460ff1615906001600160401b0316600081158015610c5c5750825b90506000826001600160401b03166001148015610c785750303b155b905081158015610c86575080155b15610ca45760405163f92ee8a960e01b815260040160405180910390fd5b845467ffffffffffffffff191660011785558315610cce57845460ff60401b1916600160401b1785555b6001600160a01b0389161580610ceb57506001600160a01b038816155b80610cfd57506001600160a01b038716155b80610d0f57506001600160a01b038616155b15610d2d57604051639fabe1c160e01b815260040160405180910390fd5b610d3689611575565b610d3e611586565b610d48600761158e565b600580546001600160a01b038a81166001600160a01b031992831617909255600080548a84169083161790556006805492891692909116919091179055604080516104608101918290526007805460608301908152610dd8938391908390602090600860808601808311610b5a575050505050815260200160208201548152602001602182015481525050611490565b602b819055610de9906002906115ca565b8315610e2f57845460ff60401b19168555604051600181527fc7f505b2f371ae2175ee4913f4499e1f2633a7b5936321eed1cdaeb6115181d29060200160405180910390a15b505050505050505050565b33610e6c7f9016d09d72d40fdae2fd8ceac6b6234c7706214fd39c1cd1e609a0528c199300546001600160a01b031690565b6001600160a01b03161461072c5760405163118cdaa760e01b8152336004820152602401610c02565b306001600160a01b037f0000000000000000000000000000000000000000000000000000000000000000161480610f1c57507f00000000000000000000000000000000000000000000000000000000000000006001600160a01b0316610f106000805160206124ab833981519152546001600160a01b031690565b6001600160a01b031614155b1561072c5760405163703e46dd60e11b815260040160405180910390fd5b610c14610e3a565b816001600160a01b03166352d1902d6040518163ffffffff1660e01b8152600401602060405180830381865afa925050508015610f9c575060408051601f3d908101601f19168201909252610f9991810190612222565b60015b610fc457604051634c9c8ce360e01b81526001600160a01b0383166004820152602401610c02565b6000805160206124ab8339815191528114610ff557604051632a87526960e21b815260048101829052602401610c02565b610fff83836115f3565b505050565b306001600160a01b037f0000000000000000000000000000000000000000000000000000000000000000161461072c5760405163703e46dd60e11b815260040160405180910390fd5b60006110596029611649565b90503481111561107c5760405163234340c960e11b815260040160405180910390fd5b6000611088823461223b565b9050801561040c57604051339082156108fc029083906000818181858888f19350505050158015610fff573d6000803e3d6000fd5b608086015163ffffffff16156111fc5785511561116a5760608601516001600160a01b0316600090815260036020526040902054608087015163ffffffff918216911681111561112057604051633ab3447f60e11b815260040160405180910390fd5b608087015161113090600161224e565b60608801516001600160a01b03166000908152600360205260409020805463ffffffff191663ffffffff92909216919091179055506111fc565b60608601516001600160a01b0316600090815260046020526040902054608087015163ffffffff91821691168111156111b657604051633ab3447f60e11b815260040160405180910390fd5b60808701516111c690600161224e565b60608801516001600160a01b03166000908152600460205260409020805463ffffffff191663ffffffff92909216919091179055505b600061120984848461166b565b90508061122957604051630792895160e11b815260040160405180910390fd5b865160009061123957600061123c565b60015b60ff16886020015189604001518a606001518b608001518c60a001518c8c8c8c8c6040516020016112779b9a9998979695949392919061227c565b604051602081830303815290604052805190602001209050600061129a60025490565b905060006112a86002611720565b602b54909150426112bc6002838784611743565b50604080516001600160401b038316815263ffffffff86166020820152808201849052606081018790529051339185917f28857582f627ebec65097e573daaa05604c35030fabadc548b80d1eec929d6019181900360800190a3505050505050505050505050565b7f9016d09d72d40fdae2fd8ceac6b6234c7706214fd39c1cd1e609a0528c19930080546001600160a01b031981166001600160a01b03848116918217845560405192169182907f8be0079c531659141344cd1fd0a4f28419497f9722a3daafe3b4186f6b6457e090600090a3505050565b6000806113a28342611782565b949350505050565b60208083015482916001906113c0906002612409565b6113ca919061223b565b81106113e9576040516377ae67b360e11b815260040160405180910390fd5b60006113f682600161217c565b60208601819055905060005b6020811015611480578082901c600116600103611436578386826020811061142c5761142c612166565b0155505050505050565b85816020811061144857611448612166565b0154604080516020810192909252810185905260600160408051601f1981840301815291905280516020909101209350600101611402565b50611489612415565b5050505050565b604081015160208201516000919081835b602081101561156b578083901c60011660010361150857855181602081106114cb576114cb612166565b6020020151846040516020016114eb929190918252602082015260400190565b604051602081830303815290604052805190602001209350611535565b60408051602081018690529081018390526060016040516020818303038152906040528051906020012093505b604080516020810184905290810183905260600160408051601f19818403018152919052805160209091012091506001016114a1565b5091949350505050565b61157d61184a565b610c1481611893565b61072c61184a565b6040805160a0810182526000808252602082018190529181018290526060810182905260808101919091526115c29061189b565b602190910155565b816115d9600083818080611931565b815460018101835560009283526020909220909101555050565b6115fc8261198d565b6040516001600160a01b038316907fbc7cd75a20ee27fd9adebab32041f755214dbc6bffa90cc0225b39da2e5c2d3b90600090a280511561164157610fff82826119f2565b61040c611a6a565b60004281806116588584611782565b9386556001909501949094555092915050565b60008084836040518060400160405280600181526020017f30644e72e131a029b85045b68181585d97816a916871ca8d3c208c16d87cfd45815250866040516020016116ba949392919061242b565b60405160208183030381529060405290506116d3611c57565b81516000906020838282870160086107d05a03fa915081806116f157fe5b50816117105760405163def2011f60e01b815260040160405180910390fd5b50505115159150505b9392505050565b805460009082906117339060019061223b565b8154811061099d5761099d612166565b600061176161175186611720565b85858561175c8a5490565b611931565b85546001810187556000968752602090962090950185905550929392505050565b8154600090819067d02ab486cedc00009082036117a457915060009050611843565b84546704a03ce68d215555906000906117c6906117c1908861223b565b611a89565b90506117fa6117d58383611ad0565b6117f56117eb6117e56001611a89565b86611adf565b8a60010154611ad0565b611aee565b94508483111561183a5760006118108487611adf565b905061183261182f61182966038d7ea4c6800084611ad0565b83611ad0565b90565b94505061183f565b600093505b5050505b9250929050565b7ff0c57e16840df040f15088dc2f81fe391c3923bec73e23a9662efc9c229c6a0054600160401b900460ff1661072c57604051631afcd79f60e31b815260040160405180910390fd5b610bdc61184a565b6000816000015182602001518360400151846060015185608001516118c15760006118c4565b60015b60405160609590951b6bffffffffffffffffffffffff191660208601526034850193909352605484019190915260e090811b6001600160e01b03191660748401521b60ff60e01b166078820152607c01604051602081830303815290604052805190602001209050919050565b6040805160208082019790975280820195909552606085019390935260c09190911b6001600160c01b031916608084015260e01b6001600160e01b03191660888301528051606c818403018152608c9092019052805191012090565b806001600160a01b03163b6000036119c357604051634c9c8ce360e01b81526001600160a01b0382166004820152602401610c02565b6000805160206124ab83398151915280546001600160a01b0319166001600160a01b0392909216919091179055565b6060600080846001600160a01b031684604051611a0f919061247a565b600060405180830381855af49150503d8060008114611a4a576040519150601f19603f3d011682016040523d82523d6000602084013e611a4f565b606091505b5091509150611a5f858383611afd565b925050505b92915050565b341561072c5760405163b398979f60e01b815260040160405180910390fd5b6000611a9f670de0b6b3a7640000600019612496565b821115611ac257604051631cd951a760e01b815260048101839052602401610c02565b50670de0b6b3a76400000290565b600061171961182f8484611b59565b600061171961182f838561223b565b600061171961182f838561217c565b606082611b1257611b0d82611c0f565b611719565b8151158015611b2957506001600160a01b0384163b155b15611b5257604051639996b31560e01b81526001600160a01b0385166004820152602401610c02565b5080611719565b6000808060001984860984860292508281108382030391505080600003611b8d5750670de0b6b3a764000090049050611a64565b670de0b6b3a76400008110611bbf57604051635173648d60e01b81526004810186905260248101859052604401610c02565b6000670de0b6b3a764000085870962040000818503049310909103600160ee1b02919091177faccb18165bd6fe31ae1cf318dc5b51eee0e1ba569b88cd74c1773b91fac106690291505092915050565b805115611c1f5780518082602001fd5b60405163d6bda27560e01b815260040160405180910390fd5b6040518061100001604052806080906020820280368337509192915050565b60405180602001604052806001906020820280368337509192915050565b6001600160a01b0381168114610c1457600080fd5b600060208284031215611c9c57600080fd5b813561171981611c75565b600060208284031215611cb957600080fd5b5035919050565b634e487b7160e01b600052604160045260246000fd5b60008060408385031215611ce957600080fd5b8235611cf481611c75565b915060208301356001600160401b03811115611d0f57600080fd5b8301601f81018513611d2057600080fd5b80356001600160401b03811115611d3957611d39611cc0565b604051601f8201601f19908116603f011681016001600160401b0381118282101715611d6757611d67611cc0565b604052818152828201602001871015611d7f57600080fd5b816020840160208301376000602083830101528093505050509250929050565b80356001600160401b0381168114611db657600080fd5b919050565b803563ffffffff81168114611db657600080fd5b80356001600160801b031981168114611db657600080fd5b8060408101831015611a6457600080fd5b8060808101831015611a6457600080fd5b6000806000806000806000806000806102008b8d031215611e2957600080fd5b8a359950611e3960208c01611d9f565b9850611e4760408c01611dbb565b9750611e5560608c01611dcf565b9650611e648c60808d01611de7565b9550611e738c60c08d01611df8565b9450611e838c6101408d01611df8565b93506101c08b013592506101e08b01356001600160401b03811115611ea757600080fd5b8b01601f81018d13611eb857600080fd5b80356001600160401b03811115611ece57600080fd5b8d6020828401011115611ee057600080fd5b60208201935080925050509295989b9194979a5092959850565b60008083601f840112611f0c57600080fd5b5081356001600160401b03811115611f2357600080fd5b6020830191508360208260051b850101111561184357600080fd5b60008060008060008060008060006101e08a8c031215611f5d57600080fd5b89359850611f6d60208b01611d9f565b9750611f7b60408b01611dbb565b9650611f8960608b01611dcf565b9550611f988b60808c01611de7565b9450611fa78b60c08c01611df8565b9350611fb78b6101408c01611df8565b92506101c08a01356001600160401b03811115611fd357600080fd5b611fdf8c828d01611efa565b915080935050809150509295985092959850929598565b60005b83811015612011578181015183820152602001611ff9565b50506000910152565b6020815260008251806020840152612039816040850160208701611ff6565b601f01601f19169190910160400192915050565b60006020828403121561205f57600080fd5b61171982611dbb565b60008060006040848603121561207d57600080fd5b8335925060208401356001600160401b0381111561209a57600080fd5b6120a686828701611efa565b9497909650939450505050565b600080600080608085870312156120c957600080fd5b84356120d481611c75565b935060208501356120e481611c75565b925060408501356120f481611c75565b9150606085013561210481611c75565b939692955090935050565b634e487b7160e01b600052601160045260246000fd5b8082028115828204841417611a6457611a6461210f565b634e487b7160e01b600052601260045260246000fd5b6000826121615761216161213c565b500690565b634e487b7160e01b600052603260045260246000fd5b80820180821115611a6457611a6461210f565b60008183825b60808110156121b4578151835260209283019290910190600101612195565b5050506110008201905092915050565b63ffffffff8281168282160390811115611a6457611a6461210f565b6000602082840312156121f257600080fd5b815161171981611c75565b600063ffffffff821663ffffffff81036122195761221961210f565b60010192915050565b60006020828403121561223457600080fd5b5051919050565b81810381811115611a6457611a6461210f565b63ffffffff8181168382160190811115611a6457611a6461210f565b60408183375050565b60808183375050565b6001600160e01b031960e08d811b82168352600483018d90526001600160c01b031960c08d901b1660248401526bffffffffffffffffffffffff1960608c901b16602c84015289901b1660408201526001600160801b0319871660448201528560548201528460748201526122f4609482018561226a565b61230160d4820184612273565b61230f610154820183612273565b6101d4019b9a5050505050505050505050565b6001815b600184111561235d578085048111156123415761234161210f565b600184161561234f57908102905b60019390931c928002612326565b935093915050565b60008261237457506001611a64565b8161238157506000611a64565b816001811461239757600281146123a1576123bd565b6001915050611a64565b60ff8411156123b2576123b261210f565b50506001821b611a64565b5060208310610133831016604e8410600b84101617156123e0575081810a611a64565b6123ed6000198484612322565b80600019048211156124015761240161210f565b029392505050565b60006117198383612365565b634e487b7160e01b600052600160045260246000fd5b60408582376080846040830137600060c082018460005b6002811015612461578151835260209283019290910190600101612442565b5050506080836101008401375061018001949350505050565b6000825161248c818460208701611ff6565b9190910192915050565b6000826124a5576124a561213c565b50049056fe360894a13ba1a3210667c828492db98dca3e2076cc3735a920a3ca505d382bbca264697066735822122097f16ae55b31e14b2e9a2a49008aa1f41639a20772b589d0cf34613cc2c546ca64736f6c634300081b0033",
  "linkReferences": {},
  "deployedLinkReferences": {}
}