{
  "_format": "hh-sol-artifact-1",
  "contractName": "Rollup",
  "sourceName": "contracts/rollup/Rollup.sol",
  "abi": [
    {
      "inputs": [],
      "stateMutability": "nonpayable",
      "type": "constructor"
    },
    {
      "inputs": [
        {
          "internalType": "address",
          "name": "target",
          "type": "address"
        }
      ],
      "name": "AddressEmptyCode",
      "type": "error"
    },
    {
      "inputs": [],
      "name": "AddressZero",
      "type": "error"
    },
    {
      "inputs": [],
      "name": "BlockNumberOutOfRange",
      "type": "error"
    },
    {
      "inputs": [
        {
          "internalType": "address",
          "name": "implementation",
          "type": "address"
        }
      ],
      "name": "ERC1967InvalidImplementation",
      "type": "error"
    },
    {
      "inputs": [],
      "name": "ERC1967NonPayable",
      "type": "error"
    },
    {
      "inputs": [],
      "name": "Expired",
      "type": "error"
    },
    {
      "inputs": [],
      "name": "FailedCall",
      "type": "error"
    },
    {
      "inputs": [],
      "name": "InsufficientPenaltyFee",
      "type": "error"
    },
    {
      "inputs": [],
      "name": "InvalidInitialization",
      "type": "error"
    },
    {
      "inputs": [],
      "name": "MerkleTreeFull",
      "type": "error"
    },
    {
      "inputs": [],
      "name": "NotInitializing",
      "type": "error"
    },
    {
      "inputs": [],
      "name": "OnlyLiquidity",
      "type": "error"
    },
    {
      "inputs": [],
      "name": "OnlyScrollMessenger",
      "type": "error"
    },
    {
      "inputs": [
        {
          "internalType": "address",
          "name": "owner",
          "type": "address"
        }
      ],
      "name": "OwnableInvalidOwner",
      "type": "error"
    },
    {
      "inputs": [
        {
          "internalType": "address",
          "name": "account",
          "type": "address"
        }
      ],
      "name": "OwnableUnauthorizedAccount",
      "type": "error"
    },
    {
      "inputs": [
        {
          "internalType": "uint256",
          "name": "x",
          "type": "uint256"
        },
        {
          "internalType": "uint256",
          "name": "y",
          "type": "uint256"
        }
      ],
      "name": "PRBMath_MulDiv18_Overflow",
      "type": "error"
    },
    {
      "inputs": [
        {
          "internalType": "uint256",
          "name": "x",
          "type": "uint256"
        }
      ],
      "name": "PRBMath_UD60x18_Convert_Overflow",
      "type": "error"
    },
    {
      "inputs": [],
      "name": "PairingCheckFailed",
      "type": "error"
    },
    {
      "inputs": [],
      "name": "PairingOpCodeFailed",
      "type": "error"
    },
    {
      "inputs": [],
      "name": "SenderAccountIdsInvalidLength",
      "type": "error"
    },
    {
      "inputs": [],
      "name": "TooManyAccountIds",
      "type": "error"
    },
    {
      "inputs": [],
      "name": "TooManySenderPublicKeys",
      "type": "error"
    },
    {
      "inputs": [],
      "name": "UUPSUnauthorizedCallContext",
      "type": "error"
    },
    {
      "inputs": [
        {
          "internalType": "bytes32",
          "name": "slot",
          "type": "bytes32"
        }
      ],
      "name": "UUPSUnsupportedProxiableUUID",
      "type": "error"
    },
    {
      "anonymous": false,
      "inputs": [
        {
          "indexed": true,
          "internalType": "bytes32",
          "name": "prevBlockHash",
          "type": "bytes32"
        },
        {
          "indexed": true,
          "internalType": "address",
          "name": "blockBuilder",
          "type": "address"
        },
        {
          "indexed": false,
          "internalType": "uint64",
          "name": "timestamp",
          "type": "uint64"
        },
        {
          "indexed": false,
          "internalType": "uint256",
          "name": "blockNumber",
          "type": "uint256"
        },
        {
          "indexed": false,
          "internalType": "bytes32",
          "name": "depositTreeRoot",
          "type": "bytes32"
        },
        {
          "indexed": false,
          "internalType": "bytes32",
          "name": "signatureHash",
          "type": "bytes32"
        }
      ],
      "name": "BlockPosted",
      "type": "event"
    },
    {
      "anonymous": false,
      "inputs": [
        {
          "indexed": true,
          "internalType": "uint32",
          "name": "depositIndex",
          "type": "uint32"
        },
        {
          "indexed": true,
          "internalType": "bytes32",
          "name": "depositHash",
          "type": "bytes32"
        }
      ],
      "name": "DepositLeafInserted",
      "type": "event"
    },
    {
      "anonymous": false,
      "inputs": [
        {
          "indexed": true,
          "internalType": "uint256",
          "name": "lastProcessedDepositId",
          "type": "uint256"
        },
        {
          "indexed": false,
          "internalType": "bytes32",
          "name": "depositTreeRoot",
          "type": "bytes32"
        }
      ],
      "name": "DepositsProcessed",
      "type": "event"
    },
    {
      "anonymous": false,
      "inputs": [
        {
          "indexed": false,
          "internalType": "uint64",
          "name": "version",
          "type": "uint64"
        }
      ],
      "name": "Initialized",
      "type": "event"
    },
    {
      "anonymous": false,
      "inputs": [
        {
          "indexed": true,
          "internalType": "address",
          "name": "previousOwner",
          "type": "address"
        },
        {
          "indexed": true,
          "internalType": "address",
          "name": "newOwner",
          "type": "address"
        }
      ],
      "name": "OwnershipTransferred",
      "type": "event"
    },
    {
      "anonymous": false,
      "inputs": [
        {
          "indexed": true,
          "internalType": "address",
          "name": "implementation",
          "type": "address"
        }
      ],
      "name": "Upgraded",
      "type": "event"
    },
    {
      "inputs": [],
      "name": "UPGRADE_INTERFACE_VERSION",
      "outputs": [
        {
          "internalType": "string",
          "name": "",
          "type": "string"
        }
      ],
      "stateMutability": "view",
      "type": "function"
    },
    {
      "inputs": [
        {
          "internalType": "uint256",
          "name": "",
          "type": "uint256"
        }
      ],
      "name": "blockBuilders",
      "outputs": [
        {
          "internalType": "address",
          "name": "",
          "type": "address"
        }
      ],
      "stateMutability": "view",
      "type": "function"
    },
    {
      "inputs": [
        {
          "internalType": "uint256",
          "name": "",
          "type": "uint256"
        }
      ],
      "name": "blockHashes",
      "outputs": [
        {
          "internalType": "bytes32",
          "name": "",
          "type": "bytes32"
        }
      ],
      "stateMutability": "view",
      "type": "function"
    },
    {
      "inputs": [],
      "name": "depositIndex",
      "outputs": [
        {
          "internalType": "uint32",
          "name": "",
          "type": "uint32"
        }
      ],
      "stateMutability": "view",
      "type": "function"
    },
    {
      "inputs": [],
      "name": "depositTreeRoot",
      "outputs": [
        {
          "internalType": "bytes32",
          "name": "",
          "type": "bytes32"
        }
      ],
      "stateMutability": "view",
      "type": "function"
    },
    {
      "inputs": [
        {
          "internalType": "uint32",
          "name": "blockNumber",
          "type": "uint32"
        }
      ],
      "name": "getBlockBuilder",
      "outputs": [
        {
          "internalType": "address",
          "name": "",
          "type": "address"
        }
      ],
      "stateMutability": "view",
      "type": "function"
    },
    {
      "inputs": [
        {
          "internalType": "uint32",
          "name": "blockNumber",
          "type": "uint32"
        }
      ],
      "name": "getBlockHash",
      "outputs": [
        {
          "internalType": "bytes32",
          "name": "",
          "type": "bytes32"
        }
      ],
      "stateMutability": "view",
      "type": "function"
    },
    {
      "inputs": [],
      "name": "getLatestBlockNumber",
      "outputs": [
        {
          "internalType": "uint32",
          "name": "",
          "type": "uint32"
        }
      ],
      "stateMutability": "view",
      "type": "function"
    },
    {
      "inputs": [],
      "name": "getPenalty",
      "outputs": [
        {
          "internalType": "uint256",
          "name": "",
          "type": "uint256"
        }
      ],
      "stateMutability": "view",
      "type": "function"
    },
    {
      "inputs": [
        {
          "internalType": "address",
          "name": "_admin",
          "type": "address"
        },
        {
          "internalType": "address",
          "name": "_liquidity",
          "type": "address"
        },
        {
          "internalType": "address",
          "name": "_contribution",
          "type": "address"
        }
      ],
      "name": "initialize",
      "outputs": [],
      "stateMutability": "nonpayable",
      "type": "function"
    },
    {
      "inputs": [],
      "name": "lastProcessedDepositId",
      "outputs": [
        {
          "internalType": "uint256",
          "name": "",
          "type": "uint256"
        }
      ],
      "stateMutability": "view",
      "type": "function"
    },
    {
      "inputs": [],
      "name": "owner",
      "outputs": [
        {
          "internalType": "address",
          "name": "",
          "type": "address"
        }
      ],
      "stateMutability": "view",
      "type": "function"
    },
    {
      "inputs": [
        {
          "internalType": "bytes32",
          "name": "txTreeRoot",
          "type": "bytes32"
        },
        {
          "internalType": "uint64",
          "name": "expiry",
          "type": "uint64"
        },
        {
          "internalType": "bytes16",
          "name": "senderFlags",
          "type": "bytes16"
        },
        {
          "internalType": "bytes32[2]",
          "name": "aggregatedPublicKey",
          "type": "bytes32[2]"
        },
        {
          "internalType": "bytes32[4]",
          "name": "aggregatedSignature",
          "type": "bytes32[4]"
        },
        {
          "internalType": "bytes32[4]",
          "name": "messagePoint",
          "type": "bytes32[4]"
        },
        {
          "internalType": "bytes32",
          "name": "publicKeysHash",
          "type": "bytes32"
        },
        {
          "internalType": "bytes",
          "name": "senderAccountIds",
          "type": "bytes"
        }
      ],
      "name": "postNonRegistrationBlock",
      "outputs": [],
      "stateMutability": "payable",
      "type": "function"
    },
    {
      "inputs": [
        {
          "internalType": "bytes32",
          "name": "txTreeRoot",
          "type": "bytes32"
        },
        {
          "internalType": "uint64",
          "name": "expiry",
          "type": "uint64"
        },
        {
          "internalType": "bytes16",
          "name": "senderFlags",
          "type": "bytes16"
        },
        {
          "internalType": "bytes32[2]",
          "name": "aggregatedPublicKey",
          "type": "bytes32[2]"
        },
        {
          "internalType": "bytes32[4]",
          "name": "aggregatedSignature",
          "type": "bytes32[4]"
        },
        {
          "internalType": "bytes32[4]",
          "name": "messagePoint",
          "type": "bytes32[4]"
        },
        {
          "internalType": "uint256[]",
          "name": "senderPublicKeys",
          "type": "uint256[]"
        }
      ],
      "name": "postRegistrationBlock",
      "outputs": [],
      "stateMutability": "payable",
      "type": "function"
    },
    {
      "inputs": [
        {
          "internalType": "uint256",
          "name": "_lastProcessedDepositId",
          "type": "uint256"
        },
        {
          "internalType": "bytes32[]",
          "name": "depositHashes",
          "type": "bytes32[]"
        }
      ],
      "name": "processDeposits",
      "outputs": [],
      "stateMutability": "nonpayable",
      "type": "function"
    },
    {
      "inputs": [],
      "name": "proxiableUUID",
      "outputs": [
        {
          "internalType": "bytes32",
          "name": "",
          "type": "bytes32"
        }
      ],
      "stateMutability": "view",
      "type": "function"
    },
    {
      "inputs": [],
      "name": "renounceOwnership",
      "outputs": [],
      "stateMutability": "nonpayable",
      "type": "function"
    },
    {
      "inputs": [
        {
          "internalType": "address",
          "name": "newOwner",
          "type": "address"
        }
      ],
      "name": "transferOwnership",
      "outputs": [],
      "stateMutability": "nonpayable",
      "type": "function"
    },
    {
      "inputs": [
        {
          "internalType": "address",
          "name": "newImplementation",
          "type": "address"
        },
        {
          "internalType": "bytes",
          "name": "data",
          "type": "bytes"
        }
      ],
      "name": "upgradeToAndCall",
      "outputs": [],
      "stateMutability": "payable",
      "type": "function"
    },
    {
      "inputs": [
        {
          "internalType": "address",
          "name": "to",
          "type": "address"
        }
      ],
      "name": "withdrawPenaltyFee",
      "outputs": [],
      "stateMutability": "nonpayable",
      "type": "function"
    }
  ],
  "bytecode": "0x60a06040523060805234801561001457600080fd5b5061001d610022565b6100d4565b7ff0c57e16840df040f15088dc2f81fe391c3923bec73e23a9662efc9c229c6a00805468010000000000000000900460ff16156100725760405163f92ee8a960e01b815260040160405180910390fd5b80546001600160401b03908116146100d15780546001600160401b0319166001600160401b0390811782556040519081527fc7f505b2f371ae2175ee4913f4499e1f2633a7b5936321eed1cdaeb6115181d29060200160405180910390a15b50565b6080516121a86100fd60003960008181610edb01528181610f04015261104501526121a86000f3fe60806040526004361061011f5760003560e01c8063859bac24116100a0578063c76c388411610064578063c76c38841461032d578063d2b210a114610342578063e56e56db14610362578063f03efa3714610377578063f2fde38b1461039757600080fd5b8063859bac241461025f5780638da5cb5b14610272578063ad3cb1cc146102af578063b568a055146102ed578063c0c53b8b1461030d57600080fd5b80634f1ef286116100e75780634f1ef286146101da57806352d1902d146101ed578063567419c114610202578063715018a6146102185780637b8989391461022d57600080fd5b806306f743c0146101245780631d9a07b91461016157806322bec34e1461018557806325d89cfd1461019a57806334cdf78d146101ba575b600080fd5b34801561013057600080fd5b5061014461013f3660046119d4565b6103b7565b6040516001600160a01b0390911681526020015b60405180910390f35b34801561016d57600080fd5b5061017760295481565b604051908152602001610158565b610198610193366004611a9d565b610421565b005b3480156101a657600080fd5b506101986101b5366004611b59565b610553565b3480156101c657600080fd5b506101776101d5366004611b74565b610594565b6101986101e8366004611ba3565b6105b5565b3480156101f957600080fd5b506101776105d0565b34801561020e57600080fd5b5061017760015481565b34801561022457600080fd5b506101986105ed565b34801561023957600080fd5b50602a5461024a9063ffffffff1681565b60405163ffffffff9091168152602001610158565b61019861026d366004611c6a565b610601565b34801561027e57600080fd5b507f9016d09d72d40fdae2fd8ceac6b6234c7706214fd39c1cd1e609a0528c199300546001600160a01b0316610144565b3480156102bb57600080fd5b506102e0604051806040016040528060058152602001640352e302e360dc1b81525081565b6040516101589190611d6e565b3480156102f957600080fd5b50610144610308366004611b74565b6107c2565b34801561031957600080fd5b50610198610328366004611da1565b6107ec565b34801561033957600080fd5b5061024a610a5d565b34801561034e57600080fd5b5061017761035d3660046119d4565b610a79565b34801561036e57600080fd5b50610177610ada565b34801561038357600080fd5b50610198610392366004611de4565b610ae6565b3480156103a357600080fd5b506101986103b2366004611b59565b610c68565b60006103c260025490565b63ffffffff168263ffffffff16106103ed57604051634c788ccb60e11b815260040160405180910390fd5b60038263ffffffff168154811061040657610406611e2f565b6000918252602090912001546001600160a01b031692915050565b6001600160401b03871615801590610442575042876001600160401b031611155b1561046057604051630407b05b60e31b815260040160405180910390fd5b610468610cab565b80608081111561048b576040516307b556c960e01b815260040160405180910390fd5b610493611997565b60005b828110156104d6578484828181106104b0576104b0611e2f565b905060200201358282608081106104c9576104c9611e2f565b6020020152600101610496565b50815b60808110156105035760018282608081106104f6576104f6611e2f565b60200201526001016104d9565b506000816040516020016105179190611e45565b60408051601f1981840301815291905280516020909101209050600061054560018d8d8d86868f8f8f610d20565b505050505050505050505050565b61055b610e75565b6040516001600160a01b038216904780156108fc02916000818181858888f19350505050158015610590573d6000803e3d6000fd5b5050565b600281815481106105a457600080fd5b600091825260209091200154905081565b6105bd610ed0565b6105c682610f75565b6105908282610f7d565b60006105da61103a565b5060008051602061215383398151915290565b6105f5610e75565b6105ff6000611083565b565b6001600160401b03881615801590610622575042886001600160401b031611155b1561064057604051630407b05b60e31b815260040160405180910390fd5b610648610cab565b8061065560806005611e90565b811115610675576040516333b890b560e11b815260040160405180910390fd5b610680600582611ebd565b1561069e576040516341adec0d60e01b815260040160405180910390fd5b60006106ac60806005611e90565b6001600160401b038111156106c3576106c3611b8d565b6040519080825280601f01601f1916602001820160405280156106ed576020820181803683370190505b50905060005b828110156107485784848281811061070d5761070d611e2f565b9050013560f81c60f81b82828151811061072957610729611e2f565b60200101906001600160f81b031916908160001a9053506001016106f3565b50815b61075760806005611e90565b8110156107a857600160f81b8261076f836004611ed1565b8151811061077f5761077f611e2f565b60200101906001600160f81b031916908160001a9053506107a1600582611ed1565b905061074b565b508051602082012061054560008d8d8d8a868f8f8f610d20565b600381815481106107d257600080fd5b6000918252602090912001546001600160a01b0316905081565b7ff0c57e16840df040f15088dc2f81fe391c3923bec73e23a9662efc9c229c6a008054600160401b810460ff1615906001600160401b03166000811580156108315750825b90506000826001600160401b0316600114801561084d5750303b155b90508115801561085b575080155b156108795760405163f92ee8a960e01b815260040160405180910390fd5b845467ffffffffffffffff1916600117855583156108a357845460ff60401b1916600160401b1785555b6001600160a01b0388166108ca57604051639fabe1c160e01b815260040160405180910390fd5b6001600160a01b0387166108f157604051639fabe1c160e01b815260040160405180910390fd5b6001600160a01b03861661091857604051639fabe1c160e01b815260040160405180910390fd5b610921886110f4565b610929611105565b610933600561110d565b600080546001600160a01b03808a166001600160a01b03199283161790925560048054928916929091169190911790556040805161046081019091526109bc90600581606081018260208282826020028201915b815481526020019060010190808311610987575050505050815260200160208201548152602001602182015481525050611149565b60298190556109cd9060029061122e565b600380546001810182556000919091527fc2575a0e9e593c00f959f8c92f12db2869c3395a3b0502d05e2516446f71f85b0180546001600160a01b03191690558315610a5357845460ff60401b19168555604051600181527fc7f505b2f371ae2175ee4913f4499e1f2633a7b5936321eed1cdaeb6115181d29060200160405180910390a15b5050505050505050565b60006001610a6a60025490565b610a749190611ee4565b905090565b6000610a8460025490565b63ffffffff168263ffffffff1610610aaf57604051634c788ccb60e11b815260040160405180910390fd5b60028263ffffffff1681548110610ac857610ac8611e2f565b90600052602060002001549050919050565b6000610a746027611257565b6000546001600160a01b03163314610b115760405163aff663a560e01b815260040160405180910390fd5b602a5463ffffffff1660005b82811015610bb257610b51848483818110610b3a57610b3a611e2f565b90506020020135600561126c90919063ffffffff16565b838382818110610b6357610b63611e2f565b905060200201358263ffffffff167f529a1f0fdd7142aabe2b12dd8590a30a26c8427b5200ad8c775a5b4aa03fb41d60405160405180910390a381610ba781611f00565b925050600101610b1d565b50602a805463ffffffff191663ffffffff83161790556001849055604080516104608101918290526005805460608301908152600093610c2493929183918390602090600660808601808311610987575050505050815260200160208201548152602001602182015481525050611149565b602981905560405181815290915085907f598fdeda3e3b7298359a08c9a438151e3481bdcf3c3ff9906fa71dcc723617b09060200160405180910390a25050505050565b610c70610e75565b6001600160a01b038116610c9f57604051631e4fbdf760e01b8152600060048201526024015b60405180910390fd5b610ca881611083565b50565b6000610cb76027611352565b905034811115610cda5760405163234340c960e11b815260040160405180910390fd5b6000610ce68234611f25565b9050801561059057604051339082156108fc029083906000818181858888f19350505050158015610d1b573d6000803e3d6000fd5b505050565b6000610d2d848484611374565b905080610d4d57604051630792895160e11b815260040160405180910390fd5b60008a610d5b576000610d5e565b60015b60ff168a8a8a8a8a8a8a8a604051602001610d8199989796959493929190611f38565b6040516020818303038152906040528051906020012090506000610da460025490565b90506000610db26002611429565b60295490915042610dc6600283878461144c565b50600380546001810182556000919091527fc2575a0e9e593c00f959f8c92f12db2869c3395a3b0502d05e2516446f71f85b0180546001600160a01b03191633908117909155604080516001600160401b038416815263ffffffff8716602082015280820185905260608101889052905185917f28857582f627ebec65097e573daaa05604c35030fabadc548b80d1eec929d601919081900360800190a3505050505050505050505050505050565b33610ea77f9016d09d72d40fdae2fd8ceac6b6234c7706214fd39c1cd1e609a0528c199300546001600160a01b031690565b6001600160a01b0316146105ff5760405163118cdaa760e01b8152336004820152602401610c96565b306001600160a01b037f0000000000000000000000000000000000000000000000000000000000000000161480610f5757507f00000000000000000000000000000000000000000000000000000000000000006001600160a01b0316610f4b600080516020612153833981519152546001600160a01b031690565b6001600160a01b031614155b156105ff5760405163703e46dd60e11b815260040160405180910390fd5b610ca8610e75565b816001600160a01b03166352d1902d6040518163ffffffff1660e01b8152600401602060405180830381865afa925050508015610fd7575060408051601f3d908101601f19168201909252610fd491810190611fb1565b60015b610fff57604051634c9c8ce360e01b81526001600160a01b0383166004820152602401610c96565b600080516020612153833981519152811461103057604051632a87526960e21b815260048101829052602401610c96565b610d1b838361148b565b306001600160a01b037f000000000000000000000000000000000000000000000000000000000000000016146105ff5760405163703e46dd60e11b815260040160405180910390fd5b7f9016d09d72d40fdae2fd8ceac6b6234c7706214fd39c1cd1e609a0528c19930080546001600160a01b031981166001600160a01b03848116918217845560405192169182907f8be0079c531659141344cd1fd0a4f28419497f9722a3daafe3b4186f6b6457e090600090a3505050565b6110fc6114e1565b610ca88161152a565b6105ff6114e1565b6040805160a08101825260008082526020820181905291810182905260608101829052608081019190915261114190611532565b602190910155565b604081015160208201516000919081835b6020811015611224578083901c6001166001036111c1578551816020811061118457611184611e2f565b6020020151846040516020016111a4929190918252602082015260400190565b6040516020818303038152906040528051906020012093506111ee565b60408051602081018690529081018390526060016040516020818303038152906040528051906020012093505b604080516020810184905290810183905260600160408051601f198184030181529190528051602090910120915060010161115a565b5091949350505050565b8161123d6000838180806115c8565b815460018101835560009283526020909220909101555050565b6000806112648342611624565b949350505050565b60208083015482916001906112829060026120b1565b61128c9190611f25565b81106112ab576040516377ae67b360e11b815260040160405180910390fd5b60006112b8826001611ed1565b60208601819055905060005b6020811015611342578082901c6001166001036112f857838682602081106112ee576112ee611e2f565b0155505050505050565b85816020811061130a5761130a611e2f565b0154604080516020810192909252810185905260600160408051601f19818403018152919052805160209091012093506001016112c4565b5061134b6120bd565b5050505050565b60004281806113618584611624565b9386556001909501949094555092915050565b60008084836040518060400160405280600181526020017f30644e72e131a029b85045b68181585d97816a916871ca8d3c208c16d87cfd45815250866040516020016113c394939291906120d3565b60405160208183030381529060405290506113dc6119b6565b81516000906020838282870160086107d05a03fa915081806113fa57fe5b50816114195760405163def2011f60e01b815260040160405180910390fd5b50505115159150505b9392505050565b8054600090829061143c90600190611f25565b81548110610ac857610ac8611e2f565b600061146a61145a86611429565b8585856114658a5490565b6115c8565b85546001810187556000968752602090962090950185905550929392505050565b611494826116ec565b6040516001600160a01b038316907fbc7cd75a20ee27fd9adebab32041f755214dbc6bffa90cc0225b39da2e5c2d3b90600090a28051156114d957610d1b8282611751565b6105906117c9565b7ff0c57e16840df040f15088dc2f81fe391c3923bec73e23a9662efc9c229c6a0054600160401b900460ff166105ff57604051631afcd79f60e31b815260040160405180910390fd5b610c706114e1565b60008160000151826020015183604001518460600151856080015161155857600061155b565b60015b60405160609590951b6bffffffffffffffffffffffff191660208601526034850193909352605484019190915260e090811b6001600160e01b03191660748401521b60ff60e01b166078820152607c01604051602081830303815290604052805190602001209050919050565b6040805160208082019790975280820195909552606085019390935260c09190911b6001600160c01b031916608084015260e01b6001600160e01b03191660888301528051606c818403018152608c9092019052805191012090565b8154600090819067d02ab486cedc0000908203611646579150600090506116e5565b84546704a03ce68d21555590600090611668906116639088611f25565b6117e8565b905061169c611677838361182f565b61169761168d61168760016117e8565b8661183e565b8a6001015461182f565b61184d565b9450848311156116dc5760006116b2848761183e565b90506116d46116d16116cb66038d7ea4c680008461182f565b8361182f565b90565b9450506116e1565b600093505b5050505b9250929050565b806001600160a01b03163b60000361172257604051634c9c8ce360e01b81526001600160a01b0382166004820152602401610c96565b60008051602061215383398151915280546001600160a01b0319166001600160a01b0392909216919091179055565b6060600080846001600160a01b03168460405161176e9190612122565b600060405180830381855af49150503d80600081146117a9576040519150601f19603f3d011682016040523d82523d6000602084013e6117ae565b606091505b50915091506117be85838361185c565b925050505b92915050565b34156105ff5760405163b398979f60e01b815260040160405180910390fd5b60006117fe670de0b6b3a764000060001961213e565b82111561182157604051631cd951a760e01b815260048101839052602401610c96565b50670de0b6b3a76400000290565b60006114226116d184846118b8565b60006114226116d18385611f25565b60006114226116d18385611ed1565b6060826118715761186c8261196e565b611422565b815115801561188857506001600160a01b0384163b155b156118b157604051639996b31560e01b81526001600160a01b0385166004820152602401610c96565b5080611422565b60008080600019848609848602925082811083820303915050806000036118ec5750670de0b6b3a7640000900490506117c3565b670de0b6b3a7640000811061191e57604051635173648d60e01b81526004810186905260248101859052604401610c96565b6000670de0b6b3a764000085870962040000818503049310909103600160ee1b02919091177faccb18165bd6fe31ae1cf318dc5b51eee0e1ba569b88cd74c1773b91fac106690291505092915050565b80511561197e5780518082602001fd5b60405163d6bda27560e01b815260040160405180910390fd5b6040518061100001604052806080906020820280368337509192915050565b60405180602001604052806001906020820280368337509192915050565b6000602082840312156119e657600080fd5b813563ffffffff8116811461142257600080fd5b80356001600160401b0381168114611a1157600080fd5b919050565b80356fffffffffffffffffffffffffffffffff1981168114611a1157600080fd5b80604081018310156117c357600080fd5b80608081018310156117c357600080fd5b60008083601f840112611a6b57600080fd5b5081356001600160401b03811115611a8257600080fd5b6020830191508360208260051b85010111156116e557600080fd5b6000806000806000806000806101c0898b031215611aba57600080fd5b88359750611aca60208a016119fa565b9650611ad860408a01611a16565b9550611ae78a60608b01611a37565b9450611af68a60a08b01611a48565b9350611b068a6101208b01611a48565b92506101a08901356001600160401b03811115611b2257600080fd5b611b2e8b828c01611a59565b999c989b5096995094979396929594505050565b80356001600160a01b0381168114611a1157600080fd5b600060208284031215611b6b57600080fd5b61142282611b42565b600060208284031215611b8657600080fd5b5035919050565b634e487b7160e01b600052604160045260246000fd5b60008060408385031215611bb657600080fd5b611bbf83611b42565b915060208301356001600160401b03811115611bda57600080fd5b8301601f81018513611beb57600080fd5b80356001600160401b03811115611c0457611c04611b8d565b604051601f8201601f19908116603f011681016001600160401b0381118282101715611c3257611c32611b8d565b604052818152828201602001871015611c4a57600080fd5b816020840160208301376000602083830101528093505050509250929050565b60008060008060008060008060006101e08a8c031215611c8957600080fd5b89359850611c9960208b016119fa565b9750611ca760408b01611a16565b9650611cb68b60608c01611a37565b9550611cc58b60a08c01611a48565b9450611cd58b6101208c01611a48565b93506101a08a013592506101c08a01356001600160401b03811115611cf957600080fd5b8a01601f81018c13611d0a57600080fd5b80356001600160401b03811115611d2057600080fd5b8c6020828401011115611d3257600080fd5b60208201935080925050509295985092959850929598565b60005b83811015611d65578181015183820152602001611d4d565b50506000910152565b6020815260008251806020840152611d8d816040850160208701611d4a565b601f01601f19169190910160400192915050565b600080600060608486031215611db657600080fd5b611dbf84611b42565b9250611dcd60208501611b42565b9150611ddb60408501611b42565b90509250925092565b600080600060408486031215611df957600080fd5b8335925060208401356001600160401b03811115611e1657600080fd5b611e2286828701611a59565b9497909650939450505050565b634e487b7160e01b600052603260045260246000fd5b60008183825b6080811015611e6a578151835260209283019290910190600101611e4b565b5050506110008201905092915050565b634e487b7160e01b600052601160045260246000fd5b80820281158282048414176117c3576117c3611e7a565b634e487b7160e01b600052601260045260246000fd5b600082611ecc57611ecc611ea7565b500690565b808201808211156117c3576117c3611e7a565b63ffffffff82811682821603908111156117c3576117c3611e7a565b600063ffffffff821663ffffffff8103611f1c57611f1c611e7a565b60010192915050565b818103818111156117c3576117c3611e7a565b63ffffffff60e01b8a60e01b1681528860048201526001600160401b0360c01b8860c01b1660248201526fffffffffffffffffffffffffffffffff198716602c82015285603c82015284605c820152604084607c83013760808360bc83013760808261013c8301376101bc019998505050505050505050565b600060208284031215611fc357600080fd5b5051919050565b6001815b600184111561200557808504811115611fe957611fe9611e7a565b6001841615611ff757908102905b60019390931c928002611fce565b935093915050565b60008261201c575060016117c3565b81612029575060006117c3565b816001811461203f576002811461204957612065565b60019150506117c3565b60ff84111561205a5761205a611e7a565b50506001821b6117c3565b5060208310610133831016604e8410600b8410161715612088575081810a6117c3565b6120956000198484611fca565b80600019048211156120a9576120a9611e7a565b029392505050565b6000611422838361200d565b634e487b7160e01b600052600160045260246000fd5b60408582376080846040830137600060c082018460005b60028110156121095781518352602092830192909101906001016120ea565b5050506080836101008401375061018001949350505050565b60008251612134818460208701611d4a565b9190910192915050565b60008261214d5761214d611ea7565b50049056fe360894a13ba1a3210667c828492db98dca3e2076cc3735a920a3ca505d382bbca2646970667358221220a1dcac888286fbc22211e61b706023c385aeb234f15bf1cbc50c1119bc2000be64736f6c634300081b0033",
  "linkReferences": {},
  "deployedLinkReferences": {}
}