{
  "_format": "hh-sol-artifact-1",
  "contractName": "Withdrawal",
  "sourceName": "contracts/withdrawal/Withdrawal.sol",
  "abi": [
    {
      "inputs": [],
      "stateMutability": "nonpayable",
      "type": "constructor"
    },
    {
      "inputs": [
        {
          "internalType": "address",
          "name": "target",
          "type": "address"
        }
      ],
      "name": "AddressEmptyCode",
      "type": "error"
    },
    {
      "inputs": [],
      "name": "AddressZero",
      "type": "error"
    },
    {
      "inputs": [
        {
          "internalType": "bytes32",
          "name": "blockHash",
          "type": "bytes32"
        }
      ],
      "name": "BlockHashNotExists",
      "type": "error"
    },
    {
      "inputs": [
        {
          "internalType": "address",
          "name": "implementation",
          "type": "address"
        }
      ],
      "name": "ERC1967InvalidImplementation",
      "type": "error"
    },
    {
      "inputs": [],
      "name": "ERC1967NonPayable",
      "type": "error"
    },
    {
      "inputs": [],
      "name": "FailedCall",
      "type": "error"
    },
    {
      "inputs": [],
      "name": "InvalidInitialization",
      "type": "error"
    },
    {
      "inputs": [],
      "name": "NotInitializing",
      "type": "error"
    },
    {
      "inputs": [
        {
          "internalType": "address",
          "name": "owner",
          "type": "address"
        }
      ],
      "name": "OwnableInvalidOwner",
      "type": "error"
    },
    {
      "inputs": [
        {
          "internalType": "address",
          "name": "account",
          "type": "address"
        }
      ],
      "name": "OwnableUnauthorizedAccount",
      "type": "error"
    },
    {
      "inputs": [
        {
          "internalType": "uint256",
          "name": "tokenIndice",
          "type": "uint256"
        }
      ],
      "name": "TokenAlreadyExist",
      "type": "error"
    },
    {
      "inputs": [
        {
          "internalType": "uint256",
          "name": "tokenIndice",
          "type": "uint256"
        }
      ],
      "name": "TokenNotExist",
      "type": "error"
    },
    {
      "inputs": [],
      "name": "UUPSUnauthorizedCallContext",
      "type": "error"
    },
    {
      "inputs": [
        {
          "internalType": "bytes32",
          "name": "slot",
          "type": "bytes32"
        }
      ],
      "name": "UUPSUnsupportedProxiableUUID",
      "type": "error"
    },
    {
      "inputs": [],
      "name": "WithdrawalAggregatorMismatch",
      "type": "error"
    },
    {
      "inputs": [],
      "name": "WithdrawalChainVerificationFailed",
      "type": "error"
    },
    {
      "inputs": [],
      "name": "WithdrawalProofVerificationFailed",
      "type": "error"
    },
    {
      "anonymous": false,
      "inputs": [
        {
          "indexed": true,
          "internalType": "bytes32",
          "name": "withdrawalHash",
          "type": "bytes32"
        },
        {
          "indexed": true,
          "internalType": "address",
          "name": "recipient",
          "type": "address"
        },
        {
          "components": [
            {
              "internalType": "address",
              "name": "recipient",
              "type": "address"
            },
            {
              "internalType": "uint32",
              "name": "tokenIndex",
              "type": "uint32"
            },
            {
              "internalType": "uint256",
              "name": "amount",
              "type": "uint256"
            },
            {
              "internalType": "bytes32",
              "name": "nullifier",
              "type": "bytes32"
            }
          ],
          "indexed": false,
          "internalType": "struct WithdrawalLib.Withdrawal",
          "name": "withdrawal",
          "type": "tuple"
        }
      ],
      "name": "ClaimableWithdrawalQueued",
      "type": "event"
    },
    {
      "anonymous": false,
      "inputs": [
        {
          "indexed": true,
          "internalType": "bytes32",
          "name": "withdrawalHash",
          "type": "bytes32"
        },
        {
          "indexed": true,
          "internalType": "address",
          "name": "recipient",
          "type": "address"
        },
        {
          "components": [
            {
              "internalType": "address",
              "name": "recipient",
              "type": "address"
            },
            {
              "internalType": "uint32",
              "name": "tokenIndex",
              "type": "uint32"
            },
            {
              "internalType": "uint256",
              "name": "amount",
              "type": "uint256"
            },
            {
              "internalType": "bytes32",
              "name": "nullifier",
              "type": "bytes32"
            }
          ],
          "indexed": false,
          "internalType": "struct WithdrawalLib.Withdrawal",
          "name": "withdrawal",
          "type": "tuple"
        }
      ],
      "name": "DirectWithdrawalQueued",
      "type": "event"
    },
    {
      "anonymous": false,
      "inputs": [
        {
          "indexed": false,
          "internalType": "uint256[]",
          "name": "tokenIndices",
          "type": "uint256[]"
        }
      ],
      "name": "DirectWithdrawalTokenIndicesAdded",
      "type": "event"
    },
    {
      "anonymous": false,
      "inputs": [
        {
          "indexed": false,
          "internalType": "uint256[]",
          "name": "tokenIndices",
          "type": "uint256[]"
        }
      ],
      "name": "DirectWithdrawalTokenIndicesRemoved",
      "type": "event"
    },
    {
      "anonymous": false,
      "inputs": [
        {
          "indexed": false,
          "internalType": "uint64",
          "name": "version",
          "type": "uint64"
        }
      ],
      "name": "Initialized",
      "type": "event"
    },
    {
      "anonymous": false,
      "inputs": [
        {
          "indexed": true,
          "internalType": "address",
          "name": "previousOwner",
          "type": "address"
        },
        {
          "indexed": true,
          "internalType": "address",
          "name": "newOwner",
          "type": "address"
        }
      ],
      "name": "OwnershipTransferred",
      "type": "event"
    },
    {
      "anonymous": false,
      "inputs": [
        {
          "indexed": true,
          "internalType": "address",
          "name": "implementation",
          "type": "address"
        }
      ],
      "name": "Upgraded",
      "type": "event"
    },
    {
      "inputs": [],
      "name": "UPGRADE_INTERFACE_VERSION",
      "outputs": [
        {
          "internalType": "string",
          "name": "",
          "type": "string"
        }
      ],
      "stateMutability": "view",
      "type": "function"
    },
    {
      "inputs": [
        {
          "internalType": "uint256[]",
          "name": "tokenIndices",
          "type": "uint256[]"
        }
      ],
      "name": "addDirectWithdrawalTokenIndices",
      "outputs": [],
      "stateMutability": "nonpayable",
      "type": "function"
    },
    {
      "inputs": [],
      "name": "getDirectWithdrawalTokenIndices",
      "outputs": [
        {
          "internalType": "uint256[]",
          "name": "",
          "type": "uint256[]"
        }
      ],
      "stateMutability": "view",
      "type": "function"
    },
    {
      "inputs": [
        {
          "internalType": "address",
          "name": "_admin",
          "type": "address"
        },
        {
          "internalType": "address",
          "name": "_withdrawalVerifier",
          "type": "address"
        },
        {
          "internalType": "address",
          "name": "_liquidity",
          "type": "address"
        },
        {
          "internalType": "address",
          "name": "_rollup",
          "type": "address"
        },
        {
          "internalType": "address",
          "name": "_contribution",
          "type": "address"
        },
        {
          "internalType": "uint256[]",
          "name": "_directWithdrawalTokenIndices",
          "type": "uint256[]"
        }
      ],
      "name": "initialize",
      "outputs": [],
      "stateMutability": "nonpayable",
      "type": "function"
    },
    {
      "inputs": [],
      "name": "owner",
      "outputs": [
        {
          "internalType": "address",
          "name": "",
          "type": "address"
        }
      ],
      "stateMutability": "view",
      "type": "function"
    },
    {
      "inputs": [],
      "name": "proxiableUUID",
      "outputs": [
        {
          "internalType": "bytes32",
          "name": "",
          "type": "bytes32"
        }
      ],
      "stateMutability": "view",
      "type": "function"
    },
    {
      "inputs": [
        {
          "internalType": "uint256[]",
          "name": "tokenIndices",
          "type": "uint256[]"
        }
      ],
      "name": "removeDirectWithdrawalTokenIndices",
      "outputs": [],
      "stateMutability": "nonpayable",
      "type": "function"
    },
    {
      "inputs": [],
      "name": "renounceOwnership",
      "outputs": [],
      "stateMutability": "nonpayable",
      "type": "function"
    },
    {
      "inputs": [
        {
          "components": [
            {
              "internalType": "address",
              "name": "recipient",
              "type": "address"
            },
            {
              "internalType": "uint32",
              "name": "tokenIndex",
              "type": "uint32"
            },
            {
              "internalType": "uint256",
              "name": "amount",
              "type": "uint256"
            },
            {
              "internalType": "bytes32",
              "name": "nullifier",
              "type": "bytes32"
            },
            {
              "internalType": "bytes32",
              "name": "blockHash",
              "type": "bytes32"
            },
            {
              "internalType": "uint32",
              "name": "blockNumber",
              "type": "uint32"
            }
          ],
          "internalType": "struct ChainedWithdrawalLib.ChainedWithdrawal[]",
          "name": "withdrawals",
          "type": "tuple[]"
        },
        {
          "components": [
            {
              "internalType": "bytes32",
              "name": "lastWithdrawalHash",
              "type": "bytes32"
            },
            {
              "internalType": "address",
              "name": "withdrawalAggregator",
              "type": "address"
            }
          ],
          "internalType": "struct WithdrawalProofPublicInputsLib.WithdrawalProofPublicInputs",
          "name": "publicInputs",
          "type": "tuple"
        },
        {
          "internalType": "bytes",
          "name": "proof",
          "type": "bytes"
        }
      ],
      "name": "submitWithdrawalProof",
      "outputs": [],
      "stateMutability": "nonpayable",
      "type": "function"
    },
    {
      "inputs": [
        {
          "internalType": "address",
          "name": "newOwner",
          "type": "address"
        }
      ],
      "name": "transferOwnership",
      "outputs": [],
      "stateMutability": "nonpayable",
      "type": "function"
    },
    {
      "inputs": [
        {
          "internalType": "address",
          "name": "newImplementation",
          "type": "address"
        },
        {
          "internalType": "bytes",
          "name": "data",
          "type": "bytes"
        }
      ],
      "name": "upgradeToAndCall",
      "outputs": [],
      "stateMutability": "payable",
      "type": "function"
    }
  ],
  "bytecode": "0x60a06040523060805234801561001457600080fd5b5061001d610022565b6100d4565b7ff0c57e16840df040f15088dc2f81fe391c3923bec73e23a9662efc9c229c6a00805468010000000000000000900460ff16156100725760405163f92ee8a960e01b815260040160405180910390fd5b80546001600160401b03908116146100d15780546001600160401b0319166001600160401b0390811782556040519081527fc7f505b2f371ae2175ee4913f4499e1f2633a7b5936321eed1cdaeb6115181d29060200160405180910390a15b50565b608051611eb06100fd60003960008181610ba201528181610bcb0152610d110152611eb06000f3fe60806040526004361061009c5760003560e01c80639a0002a9116100645780639a0002a91461015a578063a7178c371461017a578063a93e83a61461019c578063ad3cb1cc146101bc578063f05d0982146101fa578063f2fde38b1461021a57600080fd5b80634f1ef286146100a157806352d1902d146100b6578063715018a6146100de578063871c5fe7146100f35780638da5cb5b14610113575b600080fd5b6100b46100af366004611700565b61023a565b005b3480156100c257600080fd5b506100cb610259565b6040519081526020015b60405180910390f35b3480156100ea57600080fd5b506100b4610276565b3480156100ff57600080fd5b506100b461010e3660046117a9565b61028a565b34801561011f57600080fd5b507f9016d09d72d40fdae2fd8ceac6b6234c7706214fd39c1cd1e609a0528c199300546040516001600160a01b0390911681526020016100d5565b34801561016657600080fd5b506100b46101753660046117a9565b6102ce565b34801561018657600080fd5b5061018f61039b565b6040516100d5919061185a565b3480156101a857600080fd5b506100b46101b73660046118cd565b6103ac565b3480156101c857600080fd5b506101ed604051806040016040528060058152602001640352e302e360dc1b81525081565b6040516100d591906119a9565b34801561020657600080fd5b506100b46102153660046119dc565b610928565b34801561022657600080fd5b506100b4610235366004611adf565b610b59565b610242610b97565b61024b82610c3c565b6102558282610c44565b5050565b6000610263610d06565b50600080516020611e5b83398151915290565b61027e610d4f565b6102886000610daa565b565b610292610d4f565b610255828280806020026020016040519081016040528093929190818152602001838360200280828437600092019190915250610e1b92505050565b6102d6610d4f565b60005b8181101561035d57600061030f8484848181106102f8576102f8611afa565b905060200201356005610ed790919063ffffffff16565b9050806103545783838381811061032857610328611afa565b90506020020135604051632a2c67cd60e01b815260040161034b91815260200190565b60405180910390fd5b506001016102d9565b507f0e5fb72f67c09578724f25132b948e5fb901741fa3240f11804518dc94799a2b828260405161038f929190611b10565b60405180910390a15050565b60606103a76005610eec565b905090565b6103b98585858585610f00565b60008080866001600160401b038111156103d5576103d56116ba565b6040519080825280602002602001820160405280156103fe578160200160208202803683370190505b50905060005b8781101561058b57600089898381811061042057610420611afa565b905060c002018036038101906104369190611b5d565b606081015160009081526004602052604090205490915060ff161561047f57600183838151811061046957610469611afa565b9115156020928302919091019091015250610583565b60608101516000908152600460208190526040808320805460ff191660019081179091555460a0850151915163d2b210a160e01b81526001600160a01b039091169263d2b210a1926104df9290910163ffffffff91909116815260200190565b602060405180830381865afa1580156104fc573d6000803e3d6000fd5b505050506040513d601f19601f820116820180604052508101906105209190611bf0565b90508160800151811461054e578160800151604051630631b89b60e41b815260040161034b91815260200190565b61055b826020015161106c565b15610572578561056a81611c1f565b965050610580565b8461057c81611c1f565b9550505b50505b600101610404565b5082158015610598575081155b156105a557505050610921565b6000836001600160401b038111156105bf576105bf6116ba565b60405190808252806020026020018201604052801561061157816020015b6040805160808101825260008082526020808301829052928201819052606082015282526000199092019101816105dd5790505b5090506000836001600160401b0381111561062e5761062e6116ba565b604051908082528060200260200182016040528015610657578160200160208202803683370190505b50905060008060005b8b81101561080f5785818151811061067a5761067a611afa565b60200260200101516108075760008d8d8381811061069a5761069a611afa565b905060c002018036038101906106b09190611b5d565b90506000604051806080016040528083600001516001600160a01b03168152602001836020015163ffffffff1681526020018360400151815260200183606001518152509050610703826020015161106c565b15610783578087868151811061071b5761071b611afa565b602090810291909101015280516001600160a01b031661073a82611082565b7fdbe674c66915823ad8cb90cac7eb482e951adec0311c9cf091da19de527ee935836040516107699190611c38565b60405180910390a38461077b81611c1f565b955050610804565b600061078e82611082565b9050808786815181106107a3576107a3611afa565b60200260200101818152505081600001516001600160a01b0316817f740137a4fd93de42bb435842325e4fad55ea4ba617db0b44125377b94b43249d846040516107ed9190611c38565b60405180910390a3846107ff81611c1f565b955050505b50505b600101610660565b50600254604051639d6a54cb60e01b81526001600160a01b0390911690639d6a54cb906108429087908790600401611c72565b600060405180830381600087803b15801561085c57600080fd5b505af1158015610870573d6000803e3d6000fd5b50506003546001600160a01b0316915063f099f9f590507f738128fe393bef1bcd8a524796fff40618b938cd467c71fcf37850ab0ba4f7d7336108b38a8c611d2c565b6040516001600160e01b031960e086901b16815260048101939093526001600160a01b0390911660248301526044820152606401600060405180830381600087803b15801561090157600080fd5b505af1158015610915573d6000803e3d6000fd5b50505050505050505050505b5050505050565b7ff0c57e16840df040f15088dc2f81fe391c3923bec73e23a9662efc9c229c6a008054600160401b810460ff1615906001600160401b031660008115801561096d5750825b90506000826001600160401b031660011480156109895750303b155b905081158015610997575080155b156109b55760405163f92ee8a960e01b815260040160405180910390fd5b845467ffffffffffffffff1916600117855583156109df57845460ff60401b1916600160401b1785555b6001600160a01b038b16610a0657604051639fabe1c160e01b815260040160405180910390fd5b6001600160a01b038a16610a2d57604051639fabe1c160e01b815260040160405180910390fd5b6001600160a01b038916610a5457604051639fabe1c160e01b815260040160405180910390fd5b6001600160a01b038816610a7b57604051639fabe1c160e01b815260040160405180910390fd5b6001600160a01b038716610aa257604051639fabe1c160e01b815260040160405180910390fd5b610aab8b6110fa565b610ab361110b565b600080546001600160a01b03808d166001600160a01b031992831617909255600180548b8416908316179055600380548a841690831617905560028054928c1692909116919091179055610b0686610e1b565b8315610b4c57845460ff60401b19168555604051600181527fc7f505b2f371ae2175ee4913f4499e1f2633a7b5936321eed1cdaeb6115181d29060200160405180910390a15b5050505050505050505050565b610b61610d4f565b6001600160a01b038116610b8b57604051631e4fbdf760e01b81526000600482015260240161034b565b610b9481610daa565b50565b306001600160a01b037f0000000000000000000000000000000000000000000000000000000000000000161480610c1e57507f00000000000000000000000000000000000000000000000000000000000000006001600160a01b0316610c12600080516020611e5b833981519152546001600160a01b031690565b6001600160a01b031614155b156102885760405163703e46dd60e11b815260040160405180910390fd5b610b94610d4f565b816001600160a01b03166352d1902d6040518163ffffffff1660e01b8152600401602060405180830381865afa925050508015610c9e575060408051601f3d908101601f19168201909252610c9b91810190611bf0565b60015b610cc657604051634c9c8ce360e01b81526001600160a01b038316600482015260240161034b565b600080516020611e5b8339815191528114610cf757604051632a87526960e21b81526004810182905260240161034b565b610d018383611113565b505050565b306001600160a01b037f000000000000000000000000000000000000000000000000000000000000000016146102885760405163703e46dd60e11b815260040160405180910390fd5b33610d817f9016d09d72d40fdae2fd8ceac6b6234c7706214fd39c1cd1e609a0528c199300546001600160a01b031690565b6001600160a01b0316146102885760405163118cdaa760e01b815233600482015260240161034b565b7f9016d09d72d40fdae2fd8ceac6b6234c7706214fd39c1cd1e609a0528c19930080546001600160a01b031981166001600160a01b03848116918217845560405192169182907f8be0079c531659141344cd1fd0a4f28419497f9722a3daafe3b4186f6b6457e090600090a3505050565b60005b8151811015610e9c576000610e56838381518110610e3e57610e3e611afa565b6020026020010151600561116990919063ffffffff16565b905080610e9357828281518110610e6f57610e6f611afa565b6020026020010151604051631a3aa67b60e31b815260040161034b91815260200190565b50600101610e1e565b507f03e4a91d34a2a2419d5513d9814cf5ea9e317e6166670b4b89a97e478541d4b981604051610ecc919061185a565b60405180910390a150565b6000610ee38383611175565b90505b92915050565b60606000610ef983611268565b9392505050565b610f6983600001358686808060200260200160405190810160405280939291908181526020016000905b82821015610f5657610f4760c08302860136819003810190611b5d565b81526020019060010190610f2a565b50505050506112c490919063ffffffff16565b610f865760405163fbf63aef60e01b815260040160405180910390fd5b33610f976040850160208601611adf565b6001600160a01b031614610fbe57604051635f4736cb60e11b815260040160405180910390fd5b6000546001600160a01b0316637e4f7a8a8383610ff0610feb610fe6368a90038a018a611d3f565b611321565b611354565b6040518463ffffffff1660e01b815260040161100e93929190611d94565b602060405180830381865afa15801561102b573d6000803e3d6000fd5b505050506040513d601f19601f8201168201806040525081019061104f9190611ddc565b61092157604051630e28fbf160e21b815260040160405180910390fd5b6000610ee6600563ffffffff808516906113cc16565b600081600001518260200151836040015184606001516040516020016110dd949392919060609490941b6001600160601b031916845260e09290921b6001600160e01b03191660148401526018830152603882015260580190565b604051602081830303815290604052805190602001209050919050565b6111026113e4565b610b948161142d565b6102886113e4565b61111c82611435565b6040516001600160a01b038316907fbc7cd75a20ee27fd9adebab32041f755214dbc6bffa90cc0225b39da2e5c2d3b90600090a280511561116157610d01828261149a565b610255611510565b6000610ee3838361152f565b6000818152600183016020526040812054801561125e576000611199600183611dfe565b85549091506000906111ad90600190611dfe565b90508082146112125760008660000182815481106111cd576111cd611afa565b90600052602060002001549050808760000184815481106111f0576111f0611afa565b6000918252602080832090910192909255918252600188019052604090208390555b855486908061122357611223611e11565b600190038181906000526020600020016000905590558560010160008681526020019081526020016000206000905560019350505050610ee6565b6000915050610ee6565b6060816000018054806020026020016040519081016040528092919081815260200182805480156112b857602002820191906000526020600020905b8154815260200190600101908083116112a4575b50505050509050919050565b600080805b84518110156113055760008582815181106112e6576112e6611afa565b602002602001015190506112fa818461157e565b9250506001016112c9565b50828114611317576000915050610ee6565b5060019392505050565b6000816000015182602001516040516020016110dd92919091825260601b6001600160601b031916602082015260340190565b604080516008808252610120820190925260609160009190602082016101008036833701905050905060005b60088110156113c557611394816020611e27565b84901b60e01c63ffffffff168282815181106113b2576113b2611afa565b6020908102919091010152600101611380565b5092915050565b60008181526001830160205260408120541515610ee3565b7ff0c57e16840df040f15088dc2f81fe391c3923bec73e23a9662efc9c229c6a0054600160401b900460ff1661028857604051631afcd79f60e31b815260040160405180910390fd5b610b616113e4565b806001600160a01b03163b60000361146b57604051634c9c8ce360e01b81526001600160a01b038216600482015260240161034b565b600080516020611e5b83398151915280546001600160a01b0319166001600160a01b0392909216919091179055565b6060600080846001600160a01b0316846040516114b79190611e3e565b600060405180830381855af49150503d80600081146114f2576040519150601f19603f3d011682016040523d82523d6000602084013e6114f7565b606091505b5091509150611507858383611620565b95945050505050565b34156102885760405163b398979f60e01b815260040160405180910390fd5b600081815260018301602052604081205461157657508154600181810184556000848152602080822090930184905584548482528286019093526040902091909155610ee6565b506000610ee6565b600081836000015184602001518560400151866060015187608001518860a00151604051602001611602979695949392919096875260609590951b6001600160601b031916602087015260e093841b6001600160e01b0319908116603488015260388701939093526058860191909152607885015291901b166098820152609c0190565b60405160208183030381529060405280519060200120905092915050565b6060826116355761163082611675565b610ef9565b815115801561164c57506001600160a01b0384163b155b156113c557604051639996b31560e01b81526001600160a01b038516600482015260240161034b565b8051156116855780518082602001fd5b60405163d6bda27560e01b815260040160405180910390fd5b80356001600160a01b03811681146116b557600080fd5b919050565b634e487b7160e01b600052604160045260246000fd5b604051601f8201601f191681016001600160401b03811182821017156116f8576116f86116ba565b604052919050565b6000806040838503121561171357600080fd5b61171c8361169e565b915060208301356001600160401b0381111561173757600080fd5b8301601f8101851361174857600080fd5b80356001600160401b03811115611761576117616116ba565b611774601f8201601f19166020016116d0565b81815286602083850101111561178957600080fd5b816020840160208301376000602083830101528093505050509250929050565b600080602083850312156117bc57600080fd5b82356001600160401b038111156117d257600080fd5b8301601f810185136117e357600080fd5b80356001600160401b038111156117f957600080fd5b8560208260051b840101111561180e57600080fd5b6020919091019590945092505050565b600081518084526020840193506020830160005b82811015611850578151865260209586019590910190600101611832565b5093949350505050565b602081526000610ee3602083018461181e565b60006040828403121561187f57600080fd5b50919050565b60008083601f84011261189757600080fd5b5081356001600160401b038111156118ae57600080fd5b6020830191508360208285010111156118c657600080fd5b9250929050565b6000806000806000608086880312156118e557600080fd5b85356001600160401b038111156118fb57600080fd5b8601601f8101881361190c57600080fd5b80356001600160401b0381111561192257600080fd5b88602060c08302840101111561193757600080fd5b60209182019650945061194d908890880161186d565b925060608601356001600160401b0381111561196857600080fd5b61197488828901611885565b969995985093965092949392505050565b60005b838110156119a0578181015183820152602001611988565b50506000910152565b60208152600082518060208401526119c8816040850160208701611985565b601f01601f19169190910160400192915050565b60008060008060008060c087890312156119f557600080fd5b6119fe8761169e565b9550611a0c6020880161169e565b9450611a1a6040880161169e565b9350611a286060880161169e565b9250611a366080880161169e565b915060a08701356001600160401b03811115611a5157600080fd5b8701601f81018913611a6257600080fd5b80356001600160401b03811115611a7b57611a7b6116ba565b8060051b611a8b602082016116d0565b9182526020818401810192908101908c841115611aa757600080fd5b6020850194505b83851015611acd57843580835260209586019590935090910190611aae565b80955050505050509295509295509295565b600060208284031215611af157600080fd5b610ee38261169e565b634e487b7160e01b600052603260045260246000fd5b6020808252810182905260006001600160fb1b03831115611b3057600080fd5b8260051b80856040850137919091016040019392505050565b803563ffffffff811681146116b557600080fd5b600060c0828403128015611b7057600080fd5b5060405160009060c081016001600160401b0381118282101715611b9657611b966116ba565b604052611ba28461169e565b8152611bb060208501611b49565b602082015260408481013590820152606080850135908201526080808501359082018190529150611be360a08501611b49565b60a0820152949350505050565b600060208284031215611c0257600080fd5b5051919050565b634e487b7160e01b600052601160045260246000fd5b600060018201611c3157611c31611c09565b5060010190565b81516001600160a01b0316815260208083015163ffffffff1690820152604080830151908201526060808301519082015260808101610ee6565b6040808252835190820181905260009060208501906060840190835b81811015611ce457611cce83855180516001600160a01b0316825260208082015163ffffffff169083015260408082015190830152606090810151910152565b6020939093019260809290920191600101611c8e565b50508381036020808601919091528551808352918101925085019060005b81811015611d20578251845260209384019390920191600101611d02565b50919695505050505050565b80820180821115610ee657610ee6611c09565b60006040828403128015611d5257600080fd5b50604080519081016001600160401b0381118282101715611d7557611d756116ba565b60405282358152611d886020840161169e565b60208201529392505050565b60408152826040820152828460608301376000606084830101526000601f19601f85011682016060838203016020840152611dd2606082018561181e565b9695505050505050565b600060208284031215611dee57600080fd5b81518015158114610ef957600080fd5b81810381811115610ee657610ee6611c09565b634e487b7160e01b600052603160045260246000fd5b8082028115828204841417610ee657610ee6611c09565b60008251611e50818460208701611985565b919091019291505056fe360894a13ba1a3210667c828492db98dca3e2076cc3735a920a3ca505d382bbca2646970667358221220bfb786d32a2daffcc7bf88e137de91d808540fdb5d343611cbb8c6a08d09625964736f6c634300081b0033",
  "linkReferences": {},
  "deployedLinkReferences": {}
}